:1000000000800020611F0000491F0000491F000000
:1000100000000000000000000000000000000000E0
:10002000000000000000000000000000491F000068
:100030000000000000000000491F0000B51F000084
:10004000491F0000491F0000491F0000491F000010
:10005000491F0000491F0000491F00004D1F0000FC
:10006000491F0000A1410000790100005D0100006E
:1000700079410000491F0000B1410000491F000004
:10008000491F0000491F0000491F0000491F0000D0
:1000900000000000491F0000491F0000491F000028
:1000A000491F0000491F0000491F0000491F0000B0
:1000B0000000000010B5064C2378002B07D1054B3B
:1000C000002B02D0044800E000BF0123237010BDC4
:1000D00050010020000000006C560000084B10B5D5
:1000E000002B03D00749084800E000BF0748036819
:1000F000002B00D110BD064B002BFBD09847F9E731
:1001000000000000540100206C5600004401002053
:100110000000000010B5040001F05AFF206020002C
:1001200010BD10B5040001F053FF2368C01A10BDC4
:1001300070B504000D0001F04BFF401B2060200053
:1001400070BD10B50A004369016903F0CBFD10BD15
:1001500010B54269016903F015FE10BD054B1A7E0A
:10016000D20905D08022197E52420A431A765B8B4F
:100170007047C0460010004270B52A4B1A7E198D98
:10018000187E5207D20F89B2C00920D080201C7E71
:10019000404220431876588B800718D5002101244F
:1001A0005983214B21481C70FFF7C2FF204B214D82
:1001B0001C702B68002B07D080221F4992001F481B
:1001C00004F02BFD1E4B1C7000232B6070BD002A19
:1001D000FCD01548C9B20378012B1DD0022BF5D1F4
:1001E0007F25144C2268D3172B40164D9B18DB112A
:1001F000154004D58026013D7642354301350E4E2B
:10020000DB01F31859558023013222609B009A428A
:10021000DCD1FE3BFF3B03E00223002900D000239A
:100220000370D3E7000C004270010020D0110020C1
:10023000E815002074010020E1130020E1110020E6
:10024000E91500207F00008070B525260C488AB093
:1002500043696A46016903F0A7FD0A4D3200694609
:10026000280004F0DAFC084C32002900200004F0D9
:10027000D4FC372323774533A3770AB070BDC0463B
:10028000F4170020CD170020A817002010B50A4948
:100290008AB00A4801F002FF25220949684604F0A5
:1002A000BCFC084C2000FFF753FF69462000FFF715
:1002B00048FF0AB010BDC046454E0000883E0020F1
:1002C000A8170020F417002070B50A4D2800FFF78A
:1002D00028FFFA235B0098420BD9074B1C78002CAF
:1002E00007D121002800FFF723FF21000B2003F096
:1002F0003FFC70BDE4150020E815002010B5FFF7A5
:10030000C5FF642001F06AFE00210E2003F030FCDE
:1003100010BD0000F8B58B4C2178002913D10522BF
:10032000894B8A481A708A4A1268824205DD8948D8
:10033000824200DD84E004221A70012300218648F5
:100340002370FFF7F5FE2378002B78D07E4D2E78B2
:10035000002E09D1012B1FD17F4F3800FFF7E1FE9E
:100360007E4B984200D97CE02B78012B14D1237866
:10037000012B06D1784E3000FFF7D3FE632800D959
:100380007AE02378022B07D1734E3000FFF7C9FEC5
:10039000734B984200D97BE02F78022F14D1237839
:1003A000012B06D16C4E3000FFF7BBFE632800D94D
:1003B00079E02378022B07D1674E3000FFF7B1FEBA
:1003C000684B984200D979E02B78032B15D123781C
:1003D000012B06D1604E3000FFF7A3FE632800D941
:1003E00077E02378022B08D15B4E3000FFF799FEAF
:1003F000F423FF33984200D977E02B78042B13D1F4
:100400002378012B06D1544E3000FFF78AFE632873
:1004100000D975E02378022B06D14F4E3000FFF74C
:1004200080FE632800D977E02B78052B07D14A4D51
:100430002800FFF776FE4B4B984200D977E0F8BDD5
:100440004948824201DC032276E74848824201DCC7
:10045000022271E74648824201DC01226CE71970F2
:100460006BE7444B3100187803F082FB3100380011
:100470002670FFF75DFE77E73E4B0021187803F00A
:1004800077FB0223002130002370FFF751FE78E74D
:10049000384B0121187803F06BFB002130002170EC
:1004A000FFF746FE78E7334B0021187803F060FB36
:1004B000002130002770FFF73BFE7AE72D4B01212A
:1004C000187803F055FB002130002170FFF730FE53
:1004D0007AE7284B0021187803F04AFB0223002119
:1004E00030002370FFF724FE7BE7224B01211878B0
:1004F00003F03EFB002130002170FFF719FE7CE77E
:100500001C4B0021187803F033FB0223002130003C
:100510002370FFF70DFE7DE7164B0121187803F0DD
:1005200027FB002130002170FFF702FE7CE7114B12
:100530000121187803F01CFB002128002170FFF72F
:10054000F7FD7CE7F315002026000020D90200000B
:10055000D41100200B030000D811002087130000E5
:10056000CF070000E70300001F0300003D03000069
:10057000920300001C000020F7B5694C2378002B83
:1005800013D1684A1370684B1B78012B01D113708B
:1005900005E0022BFBD0032BF9D0042BF7D001236D
:1005A000002162482370FFF7C3FD2378002B59D048
:1005B0005C4D2E78002E07D1012B11D15B4F3800F6
:1005C000FFF7AFFD63284ED82B78012B08D1277891
:1005D000012F1CD1554E3000FFF7A3FD63284DD8E5
:1005E0002B780193022B12D12778012F06D14F4E81
:1005F0003000FFF796FD4E4B98424AD82378022BE5
:1006000005D14A4E3000FFF78CFD63284ED82B7879
:10061000032B12D12778012F05D1444E3000FFF76C
:1006200080FD63284DD82378022B06D13F4E300041
:10063000FFF777FD3E4B98424FD82B78042B11D112
:100640002678012E05D1394D2800FFF76AFD632871
:100650004ED82378022B05D1344D2800FFF761FDD9
:10066000632851D8F7BD334B3100187803F080FA76
:10067000310038002670FFF75BFDA5E72D4B3900F0
:10068000187803F075FA002130002170FFF750FD53
:10069000A6E7284B3900187803F06AFA6B461B79F5
:1006A000002130002370FFF743FDA7E7214B002115
:1006B000187803F05DFA002130002170FFF738FD53
:1006C000A5E71C4B3900187803F052FA02230021E9
:1006D00030002370FFF72CFDA5E7164B002118789A
:1006E00003F046FA002130002170FFF721FDA4E756
:1006F000104B3100187803F03BFA02230021280048
:100700002370FFF715FDA4E70A4B0021187803F0CA
:100710002FFA002128002170FFF70AFDA2E7C0464A
:10072000CC110020141800201C180020C811002033
:100730008303000031000020F0B5194F85B0386800
:1007400003F064F9174B186064230193164C174E9D
:100750002368174D9B0002939B5938680393039AB3
:100760002B689B1A2B6003F051F9029B9851236868
:100770009A0090592A68013380182860632B0CDC9A
:100780002360642104F020F90A4B1860019B013BAF
:100790000193002BDAD105B0F0BD0023F0E7C0468D
:1007A00028000020FC1500200C1600201016002048
:1007B00010180020D4110020F7B54648FFF7B1FC0F
:1007C000454B984204D9454B1B78002B00D17DE066
:1007D000434E444C33689D00434BEB580193019AC0
:1007E00023689B1A2360414B186803F00FF93E4BB6
:1007F0003D49E85033689A00505822680133801808
:100800002060632B60DC3360642104F0DDF8384B3A
:10081000384F18603B68984200DD3860364B1A68E4
:10082000904200DA1860354B1B78002B40D0344CD6
:10083000344D2000290001F031FC0A220021200063
:1008400001F093FC2900200001F028FC0A222E4927
:10085000200001F08AFC2900200001F01FFC0A2280
:100860003968200001F081FC2900200001F016FC0D
:10087000214B0A221968200001F077FC2900200092
:1008800001F00CFC1A4B0A221968200001F06DFCE3
:100890002900200001F002FC336813499B00C9586D
:1008A0000A22200001F061FC2900200001F0F6FB83
:1008B000164B174A1B6812689B1A0D4A126893421E
:1008C00001DDFFF71BFDF7BD00239CE70422114B60
:1008D0001A707DE71818002010270000F21500207C
:1008E0000C160020101800201016002028000020F0
:1008F000D4110020EC150020FC150020E011002090
:1009000028180020434E0000FF03000020000020B4
:10091000180000201C180020F8B50600A027114C74
:100920000021207803F024F93B00013BFDD10E4863
:10093000310003F0A7FA01210500207803F018F92F
:100940000A4C0B4B187803F03FF9002802D1013C08
:10095000002CF6D12B0603D5642001F03FFBDEE727
:100960002800F8BD24000020001E002010270000F1
:1009700025000020F7B504000D0080260192330603
:100980000ED4019E002E2ADD1D48002C21D121000D
:1009900003F078FA002D01D028700135013EF1E70F
:1009A000184F0021387803F0E3F8A023013BFDD174
:1009B0000021134803F066FA06000306DFD53878F5
:1009C000012103F0D5F8104BC046013B002BFBD1B1
:1009D000D5E72178671C03F055FA3C00DAE7094BAC
:1009E0000121187803F0C4F8074C084B187803F07D
:1009F000EBF8002802D1013C002CF6D1F7BDC0462F
:100A0000001E0020240000201027000025000020E8
:100A1000F8B50D0016001F00FFF77EFF0A4C0B4BC8
:100A2000187803F0D1F8002809D1A023013BFDD1AB
:100A300028003A003100FFF79DFF0120F8BD013C7E
:100A4000002CECD12000F9E7102700002500002041
:100A5000F7B50D2003F0B8F803005A1E93412C4C53
:100A6000011E237009D12B4B1A78002A05D02A4A7F
:100A7000187010702948FFF75BFB2378002B2AD0F1
:100A8000244B1A78002A26D10127244D1F702800F4
:100A9000FFF747FB204E632818D92800FFF741FBDA
:100AA000FA239B00984211D83278002A0ED10223F3
:100AB00001A90B7041203B00FFF7AAFF184B1B78E0
:100AC000002B03D01749184801F0FAFA002128003A
:100AD0003170FFF72DFB2378002B18D10F48FFF75B
:100AE00020FB124B984212D90B490A78002A0ED1EA
:100AF000012341200B7001A90B70FFF789FF084B00
:100B00001B78002B03D00A49074801F0D9FAF7BD3A
:100B1000F41500202D000020F5150020F815002008
:100B2000E01100209F4E000028180020B70B0000A5
:100B3000A74E000070B5FA24144D8023002229002E
:100B400064019120FFF764FF2300013BFDD12900E0
:100B50008023803100229120FFF75AFF2300013BC0
:100B6000FDD1691CFF31802300229120FFF750FF47
:100B70002300013BFDD129008131FF318023002278
:100B80009120FFF745FF013CFDD170BDE111002030
:100B900010B504000100052002F0EAFF2100062044
:100BA00002F0E6FF10BD000010B5104C2378002BBA
:100BB00016D00F4B1A78002A03D000221A70FFF7C4
:100BC000B9FF0C48FFF7ADFAFA2301219B009842C8
:100BD00007D90B2002F0CCFF0023074A23701360D3
:100BE00010BD0B2002F0C4FFFAE7C046E815002054
:100BF000E9150020D01100207401002007B5224B18
:100C0000224A23481A6000225A711A71FFF782FAA9
:100C10002048FFF77FFA2048FFF77CFA1F48FFF7CC
:100C200079FA25221E491F4803F044F81E48FFF7B1
:100C300071FA1E48FFF76EFA1D48FFF76BFA1D4860
:100C4000FFF768FA1C48FFF765FA1C48FFF762FADD
:100C50001B48FFF75FFA1B48FFF75CFA1A48FFF7DB
:100C600059FA01F0B5F9194B0C22186001230193D0
:100C70000233009316490733164801F097FC1648D3
:100C8000FFF748FA07BDC046A017002080841E0069
:100C9000C41100207C010020780100206C0100209C
:100CA00000500000F4170020081600200016002055
:100CB000F8150020E4150020D0110020D8110020E4
:100CC00018180020DC110020C81100208401002029
:100CD000C84E0020880100200C180020F0B50F003D
:100CE000150085B001902C4C200001F0FBFB002882
:100CF00003DD200001F012FCF5E7FA239B006B43B3
:100D000000252E000093BD4231DA022E2FD0234958
:100D1000200001F0C3F90199200001F0BFF920493A
:100D2000200001F0BBF9200001F0E2FB01F050F9D6
:100D3000039003A8FFF7F5F9009B984214D2002115
:100D4000032002F015FF192001F048F901210320CA
:100D500002F00EFF192001F041F91249200001F0C4
:100D60009AFB0028E5D002260135EDB2CBE7002141
:100D7000032002F0FDFE642001F030F90320012180
:100D800002F0F6FE642001F029F9022E01D000F0F5
:100D900019FB300005B0F0BD883E0020A54D0000D5
:100DA000A94D0000AB4D000010B50A220221FFF74B
:100DB00095FF10BD452307B501A80380FFF7F4FF99
:100DC00007BD00001FB50922044901A803F025FF53
:100DD00001A8FFF7E9FF05B000BDC046AF4D000018
:100DE0001FB5002803D0FFF7EDFF05B000BD0922B5
:100DF000034901A803F011FF01A8FFF7D5FFF4E7AD
:100E0000B84D00007FB51222044901A803F005FF88
:100E100001A8FFF7C9FF07B000BDC046C14D0000E3
:100E20007FB51122044901A803F0F7FE01A8FFF7DE
:100E3000BBFF07B000BDC046944D00007FB5122235
:100E4000044901A803F0E9FE01A8FFF7ADFF07B0D0
:100E500000BDC046824D000000B589B0192204498A
:100E600001A803F0DAFE01A8FFF79EFF09B000BD5C
:100E70002D4F000013B5FA2400216400032002F076
:100E800077FE200001F0AAF80121032002F070FE95
:100E9000200001F0A3F85A2301A80380FFF784FF84
:100EA00013BD000000B589B01D220449684603F057
:100EB000B4FE6846FFF778FF09B000BD084E000099
:100EC00000B58BB02322044901A803F0A6FE01A8B7
:100ED000FFF76AFF0BB000BDD34D000007B5052238
:100EE0000349684603F099FE6846FFF75DFF07BDBA
:100EF000284F00007FB51222044901A803F08DFE9F
:100F000001A8FFF751FF07B000BDC046F64D000035
:100F100000B589B01D220449684603F07EFE68468C
:100F2000FFF742FF09B000BD7C4E000000B589B05C
:100F300020220449684603F070FE6846FFF734FF3C
:100F400009B000BDD44E000000B58BB0002803D01E
:100F5000FFF7ECFF0BB000BD2122044901A803F00C
:100F60005CFE01A8FFF720FFF4E7C046F44E000046
:100F700000B58FB03422044901A803F04EFE01A849
:100F8000FFF712FF0FB000BD464F00001FB50C2247
:100F9000044901A803F041FE01A8FFF705FF05B0D1
:100FA00000BDC046BB4E00001FB5002803D0FFF7B0
:100FB000EDFF05B000BD0D220349684603F02DFE8C
:100FC0006846FFF7F1FEF4E7C74E00001FB50A229E
:100FD000044901A803F021FE01A8FFF7E5FE05B0D2
:100FE00000BDC046154F00001FB5002803D0FFF715
:100FF000EDFF05B000BD0922034901A803F00DFE75
:1010000001A8FFF7D1FEF4E71F4F000010B5002143
:10101000032002F0ADFDFA2000F0E0FF01210320E3
:1010200002F0A6FDFA2000F0D9FF0021032002F013
:101030009FFDFA2000F0D2FF0121032002F098FD6D
:10104000FFF7B8FE0020FFF7CBFEFFF739FFFFF7F1
:10105000BDFF0120FFF78CFFFFF768FFFFF74AFF96
:10106000FFF756FF0020FFF7BFFF0020FFF76CFFE0
:10107000FFF7F2FEFFF716FFFFF7C4FEFFF7D0FE03
:10108000FFF7DCFEFFF7F6FE10BD00001FB50028DD
:1010900009D00822054901A803F0BFFD01A8FFF708
:1010A00083FE05B000BD09220149F4E77A4F000034
:1010B000824F0000F7B504000021032002F058FD24
:1010C000FA2000F08BFF0121032002F051FDFA20ED
:1010D00000F084FF0021032002F04AFDFA2000F016
:1010E0007DFF0121032002F043FD00F083F9FFF7AB
:1010F00061FE5D4A631CDBB213705C4A5C4D0532D5
:10110000D3775C4E012C06D0022C0AD001232B7021
:101110000023337001E02C7034700020FFF744FF8F
:1011200004E000232B703370FFF730FFC827FFF770
:10113000D5FE7F000021032002F01AFD192000F0E7
:101140004DFF0121032002F013FD192000F046FF9E
:1011500049494A4801F09FF9002802D1013F002F78
:10116000E8D10021032002F003FDFA20400000F046
:1011700035FF0121032002F0FBFCFA20400000F0C3
:101180002DFF00F037F9FFF715FE3078FFF72CFF41
:10119000631E012B0DD8FFF7C9FE052238496846AA
:1011A00003F03BFD012C08D0022C0BD0FFF762FEB0
:1011B0003FE00020FFF7C8FEEFE7FFF7A9FEFFF7CB
:1011C00099FEF3E7C824FFF755FE032619276400AC
:1011D0000021300002F0CCFC380000F0FFFE0121BD
:1011E000300002F0C5FC380000F0F8FE2249234828
:1011F00001F051F9002802D1013C002CE8D1002176
:10120000032002F0B5FCFA20400000F0E7FE0121C7
:10121000032002F0ADFCFA20400000F0DFFE00F0F9
:10122000E9F8FFF7C7FD2878FFF730FF6846FFF7BA
:10123000BBFD0021032002F09BFCFA2000F0CEFE53
:101240000121032002F094FCFA2000F0C7FE0021E7
:10125000032002F08DFCFA2000F0C0FE01210320E3
:1012600002F086FCF7BDC0461C180020A81700201D
:101270002C000020F1150020B14E0000883E002017
:10128000B64E0000F8B50F2002F09EFC431E9841B8
:10129000444E454D37782870444C002F09D1390011
:1012A0002000FEF745FF39004148FEF741FF414B62
:1012B0001F702F78002F4ED0012333702B78002B16
:1012C00020D03D4B1A78002A1CD13278002A19D040
:1012D000012220001A70FEF724FF384B984201D9F2
:1012E000FFF70CF82000FEF71CFF632806D920004A
:1012F000FEF717FFFA235B0098423AD9002120003D
:10130000FEF716FF2D78002D08D12000FEF709FF0B
:101310002A4B984202D93378002B2FD12000FEF7B8
:1013200000FFF423FF33984214D9224C2378022B78
:1013300002D10120FFF7BEFE2378032B02D100204B
:10134000FFF7B8FE2378052B02D10220FFF7B2FE8B
:1013500000232370F8BD184B1A78002AAED039004C
:1013600020001F70FEF7E4FE39001148FEF7E0FE92
:10137000A4E7104A137801331370BFE70C4E300016
:10138000FEF7CFFE6328C9D901210D4B03201A783F
:101390005140197002F0ECFB29003000FEF7C8FE46
:1013A000BCE7C046EA1500200516002008160020FC
:1013B000001600200416002006160020CF070000AB
:1013C0002E00002070B5FA246400FFF75BFF084D83
:1013D0000121287802F0CCFB200000F0FFFD2878E6
:1013E000002102F0C5FB200000F0F8FDEDE7C0464B
:1013F00031000020F7B5234C200001F073F80028DD
:1014000003DD200001F08AF8F5E700F0E1FD1E4958
:101410000190200000F042FE200001F069F8002554
:101420001A4E01A8FEF77DFE194FB04209D8002DD3
:1014300009D13900200001F02EF80500F1E7FFF78F
:10144000C1FF002DFBD00A2000F0C8FD39002000AC
:1014500000F024FE200001F04BF8002501A8FEF763
:1014600060FEB04207D8002D05D10A49200001F0E6
:1014700012F80500F2E7192000F0B0FD002DDED0D3
:101480000220FEBD883E0020994E0000C3090000E6
:101490009D4E0000AB4D000070B50C4C0C4B200075
:1014A0006B215D7F02F096FD0121200002F029FDF5
:1014B00080212000294302F024FD200002F0CEFD0F
:1014C00096235B01013BFDD170BDC046181E002074
:1014D000A817002073B51025374C23782B420DD068
:1014E000012301A9002249200B70FFF791FA23780C
:1014F000AB432370FA239B01013BFDD101252378E7
:101500002B420FD02D4B01A95B7800220B7040209D
:101510002B00FFF77DFA2378AB432370FA239B015E
:10152000013BFDD1402523782B420DD023490B23CD
:10153000002211315220FFF76BFA2378AB4323705E
:10154000FA239B01013BFDD123789B0612D51B4B4F
:1015500001A91B7C022B2CDD0B70002201235120E2
:10156000FFF756FA2022237893432370FA239B0136
:10157000013BFDD123787F2B1AD9962600247601D2
:101580000F4D6B21280002F025FDE1B2280002F08A
:10159000B8FC0A4B28001B19197F02F0B2FC280086
:1015A00002F05CFD3300013BFDD10134082CE7D192
:1015B00073BD0323D0E7C04627000020A8170020F2
:1015C000181E0020F0B5D74B97B01B78D64E002BD5
:1015D00004D00C23D54A1370023B337001210E2036
:1015E00002F07AFA01210E2002F0C2FA0121032052
:1015F00002F072FA0121032002F0BAFA02210F2050
:1016000002F06AFA0D20022102F066FA0D2002F0C3
:10161000DBFA002802D10123C54A137001210B20F7
:1016200002F05AFA00210B2002F0A2FAC149C24886
:1016300001F07CF9E121C148890200F03BFFC04A7A
:10164000BC49C04801F05EF802210A2002F0D4FA39
:1016500002210C2002F0D0FABB4C200002F08CFCDE
:101660002000BA4902F0A8FCFEF7EEFDB84C237842
:10167000002B43D18222250001276270A370E37002
:101680002371803AA371E3716372A372E3722373CF
:10169000B049613362712272637309324733113585
:1016A000A3738918A33B0CA823742770E77303F076
:1016B000B4FA0B220CA9280003F0AFFA34232377E5
:1016C000193B63774533A3774F3BE377A133EB7344
:1016D000183B2B74973B6B7448332100AB74252265
:1016E00002A8EF7403F099FA9B4C2000FEF730FD3E
:1016F00002A92000FEF725FDFEF7A6FD0121052029
:1017000002F0EAF90121062002F0E6F90020FFF7D5
:101710003FFA924C0125200002F070FB904B200014
:1017200006CB02F093FB8F4C0121207802F0D4F914
:101730000121112002F0D0F93078012102F0CCF91A
:101740003078012102F014FA784B0221187802F067
:10175000C3F90121207802F00BFA642000F03EFC6E
:101760002078002102F004FAFEF7E6FF6B46002223
:101770001D7069462B004920FFF74AF97A4E7B4BD2
:1017800032689A421CDCFA20400000F027FC290055
:10179000207802F0EDF9642000F020FC0021207890
:1017A00002F0E6F9642000F019FC2900207802F02C
:1017B000DFF9642000F012FC2078002102F0D8F953
:1017C0006B4B32689A4209DC2078012102F0D0F993
:1017D000FA20800000F002FCFEF790FDFEF79AFD73
:1017E000FFF778FE554E6421300000F0D2FD504BDB
:1017F0001B78002B2FD0FFF74FFE002354492522E2
:101800000CA80B7003F009FA534C2000FEF7A0FC63
:1018100020000CA9FEF795FC01210B2002F0A8F98D
:10182000544800F0DBFB0124FFF7E4FDFFF7EEFB7B
:10183000514D2800FEF775FCFA2805D94F48FEF7F0
:1018400070FC4C4B984260D8FFF71CFDFFF700F985
:10185000FEF7B2FFECE74A4D6B1DDB7F012B45D055
:1018600000F0B6FB019001A8FEF75BFC454B464C2F
:10187000984216D84549300000F00DFE01210700BE
:101880002078002F34D002F073F9FA20400000F0E5
:10189000A5FB2078002102F06BF9FA20400000F04F
:1018A0009DFB0121207802F063F9FA20400000F04E
:1018B00095FB0021207802F05BF9FA200535400005
:1018C00000F08CFBFFF796FDFFF774FAEB7F032B1C
:1018D00002D10020FFF7DAFBFFF774FA05222C494A
:1018E0000CA803F09AF90CA8FFF75EFA17B0F0BD48
:1018F00002F03EF9322000F071FB2078390002F04E
:1019000037F9322000F06AFBADE700212800FEF72E
:101910000FFC204B0B2019786140197002F028F958
:1019200092E7C046F015002024000020250000208A
:10193000E011002090D0030028180020883E0020ED
:101940003304000088010020181E0020801A0600C1
:10195000CD170020644D0000F4170020001E002069
:10196000A01700201C000020D4110020CF0300008D
:10197000A702000010270000DC110020181800202A
:10198000A81700203F1F0000310000200051000078
:10199000B64E00003000002037B58E4908221631BF
:1019A000684603F03AF98C4C08226946200000F0A2
:1019B00053FB0021200000F0D5FD2121200000F084
:1019C000D1FD864D2000297800F0CCFD69782000FB
:1019D00000F0C8FDA978200000F0C4FDE9782000DF
:1019E00000F0C0FD3621200000F0BCFD19212000D0
:1019F00000F0B8FD0C21200000F0B4FD1221200001
:101A000000F0B0FD0021200000F0ACFD002120001E
:101A100000F0A8FD0021200000F0A4FDFF2120001F
:101A200000F0A0FD0021200000F09CFD002120001E
:101A300000F098FDD721200000F094FD51212000F6
:101A400000F090FD12226649200000F005FB2722DD
:101A50006449200000F000FB192500212000013D11
:101A600000F080FD002DF8D1403500212000013D1F
:101A700000F078FD002DF8D12900200000F072FD63
:101A80000121200000F06EFD8021200000F06AFDA1
:101A90002900200000F066FD2900200000F062FD12
:101AA0002900200000F05EFD8021200000F05AFD9A
:101AB0000821200000F056FD0821200000F052FD12
:101AC0000821200000F04EFD8021200000F04AFD9A
:101AD0002900200000F046FD2900200000F042FD12
:101AE0002900200000F03EFD2900200000F03AFD12
:101AF0002900200000F036FD2900200000F032FD12
:101B00002900200000F02EFD2900200000F02AFD11
:101B10002900200000F026FD2900200000F022FD11
:101B20002900200000F01EFD2900200000F01AFD11
:101B30002900200000F016FD2900200000F012FD11
:101B40002900200000F00EFD2900200000F00AFD11
:101B50002900200000F006FD2900200000F002FD11
:101B60002900200000F0FEFC2900200000F0FAFC13
:101B70002900200000F0F6FC2900200000F0F2FC13
:101B80002900200000F0EEFC2900200000F0EAFC13
:101B90002900200000F0E6FC2900200000F0E2FC13
:101BA0002900200000F0DEFC2900200000F0DAFC13
:101BB0002900200000F0D6FC0F21200000F0D2FC0C
:101BC0001A3500212000013D00F0CCFC002DF8D199
:101BD00037BDC046644D0000883E00201200002042
:101BE00000000020544E0000F0B5B34B8FB01B78BE
:101BF000002B0CD0B14C200000F074FC042806DD52
:101C0000AF49200000F047FC002800D026E10FB0CB
:101C1000F0BD062205A9200000F0BDFBA94B1B78F2
:101C2000002BF4D1A027A84D3B00013BFDD12000A3
:101C300000F058FCA54EB04202DC013D002DF3D16E
:101C4000200000F04FFCB042E1DD8023A04D9B005E
:101C5000EF180026200000F061FCA8550136802E08
:101C6000F8D18035BD42F4D101210B2001F080FF75
:101C7000FEF760FFCBE7A026964D200000F032FC77
:101C8000012805DC3300013BFDD1013D002DF4D1DD
:101C900005AD01222900200000F07DFB28780628F0
:101CA00035D802F0FDFD044034648D34B600A02721
:101CB000884E200000F016FC222805DC3B00013B8A
:101CC000FDD1013E002EF4D123222900200000F096
:101CD00062FB8148EA7B037C934205D020237F4945
:101CE00002740C7823430B701130040001000B22A6
:101CF00009A802F083FF002809D04023774A20007A
:101D000011780B43137009A90B2202F086FF744A65
:101D10001378002B04D1704B0533D97F714B1970A8
:101D20000123137073E7A0266A4D200000F0DAFB50
:101D3000152805DC3300013BFDD1013D002DF4D118
:101D400012226949200000F026FB200000F0E6FB8B
:101D5000664D2870200000F0E1FB6870200000F064
:101D6000DDFBA870200000F0D9FBE870CFE7A026CB
:101D7000584D200000F0B6FB012805DC3300013B84
:101D8000FDD1013D002DF4D1200000F0C7FBC5B20C
:101D9000012D06D0022D04D000215548FEF7C8F9C8
:101DA00009E0052000F01AF903A9012300224120CF
:101DB0000D70FEF72DFE4F49200000F081F9A6E7D7
:101DC0004D4B1D78002DF6D10122290048481A708C
:101DD000FEF7AEF96422494B494E1A70494B3570F3
:101DE000187801F0F1FE484B0500187801F0ECFE80
:101DF000ED0080000543032001F0E6FE07000B2004
:101E000001F0E2FE7F00054330783D430543357025
:101E1000D1E7A0262F4D200000F064FB012805DC4F
:101E20003300013BFDD1013D002DF4D103A9062271
:101E3000200000F0B0FA00212D48FEF779F966E79E
:101E4000324C3349200000F029F969782B780902D7
:101E500019430A22200000F088F9D8E6052201A9DA
:101E6000200000F098FA6B465D1D6B782A781B0203
:101E70001343C8229201934200D1FCE6A022D20172
:101E8000934200D1C5E6802292019342D8D1A02688
:101E9000104D200000F026FB012805DC3300013B3B
:101EA000FDD1013D002DF4D1022205A9200000F052
:101EB00072FAFFF771FDAAE62F000020883E00208D
:101EC000254E0000E815002010270000FF0100004B
:101ED000E111002088130000A8170020270000202F
:101EE000F21500201C180020000000201200002025
:101EF00084010020AC4D0000800100208201002000
:101F0000810100201C000020310000202818002042
:101F10002D4E000010B5FFF7B5F9FEF799FDFEF75D
:101F200043FEFEF7D1F9FEF727FBFEF745FCFEF76F
:101F3000F1F9FFF7CFFA022000F050F8FFF754FE56
:101F4000022000F04BF810BD03BEFEE7034B10B5B6
:101F50001B68002B00D0984710BDC04620180020F9
:101F600070B50F490F4CA14204D100F04DF900F0BB
:101F700051F8FEE70C4D00238D42F6D0CA18E81840
:101F8000A24205D39042F0D0084B0949002204E058
:101F9000006804331060F1E704C38B42FCD3E4E72C
:101FA0000000002050010020705600005001002069
:101FB000F84E002010B500F02AF8002801D100F0FA
:101FC0001BF810BD014B18607047C0462018002058
:101FD000014B18687047C0462418002070B5041ED5
:101FE00007D0044D2E6800F011F82B689B1B9C4213
:101FF000F9D870BD2418002010B5034A13680133C6
:10200000136000F0C5F810BD2418002070470020B0
:102010007047704710B501F045FC02F0C1FDFFF7B5
:10202000F8FF0120FFF7DAFF084C200000F0B0FEB7
:10203000200000F025FFFFF7C5FAFFF76BFF044B08
:10204000002BFAD000E000BFF7E7C046441800209C
:102050000000000000207047F7B506000D000C00DE
:102060008B180193019B671B9C4207D03368217832
:102070001B683000984701340028F3D13800FEBDBA
:1020800070B505000C00081E07D002F047FE2B6853
:1020900002005B6821002800984770BD10B5FFF76B
:1020A000EFFF10BD10B503681B68984710BD000016
:1020B00010B50249FFF7E4FF10BDC046085100000B
:1020C00070B50400FFF7DCFF05002000FFF7F0FF0C
:1020D000401970BDF0B5160000228DB002AB05337B
:1020E00001900D00DA77012E00DC0A260BAC2800E7
:1020F000310002F065FC0F00CBB2280031000093E4
:1021000002F0D8FBFBB237330500013CDBB2092FEC
:1021100002D8009B3033DBB22370002DE7D12100C1
:102120000198FFF7ADFF0DB0F0BDF8B506000C004B
:10213000151E04D10368C9B21B689847F8BDD2B216
:102140000A2D0DD12A0000290ADA2D21FFF7AAFF56
:10215000614207002A003000FFF7BCFF3818EDE7A6
:1021600021003000FFF7B6FFE8E710B5FFF7DDFF0D
:1021700010BD0000014B18607047C04634000020BD
:102180000122024B52421A607047C04634000020C0
:10219000164A10B51368591C27D0013B1360002B59
:1021A00023D172B6124B134A0433934208D8BFF3BB
:1021B0004F8F114A114BDA60BFF34F8FC046FDE7D6
:1021C0000F4A01211000147D0C42FCD02021148BF9
:1021D000FF319B085B0021431183D361094B1380BE
:1021E0000123027D1A42FCD0E1E710BD340000203B
:1021F00000000000030200000400FA0500ED00E00A
:102200000040004102A5FFFF1E2270B54648474925
:10221000436893431C3A1343436008238C69234368
:102220008B61434C434B9C829C8A14439C82DC68A8
:102230001442FCD00124404A14701578254203D082
:1022400055786DB2002DF8DB01249460547864B2A7
:10225000002CFBDB394C5460547864B2002CFBDB5F
:102260008224E4015480547864B2002CFBDB022405
:102270009C840E34DD682542FCD0314CDC62102495
:10228000DD682542FCD09D8C2E4C2C439C84102470
:10229000DD682542FCD002249D8C80262C439C8442
:1022A0004024DD683542FCD0DD682542F9D0102499
:1022B000DD682542FCD000249460547864B2002C80
:1022C000FBDB214C5460547864B2002CFBDB1C6AAD
:1022D0001E4D2C4080251C621C6AAC431C620323EB
:1022E00093601B4B536053785BB2002BFBDB0023E6
:1022F000FF240B72174A4B728B72CB72164B1A600B
:10230000164B174A1B6811689A065B01C90E2340D9
:10231000520F12020B431343124A13858023426863
:102320001343436070BDC0460040004100040040BC
:102330000C06000000080040000C004001050100F0
:10234000B905FF7D040A000000070300FFFCFFFF42
:1023500003060100006CDC02B40000202460800051
:10236000206080000040004210B50400FFF730FEFE
:10237000E060236820005B699847002808DAFFF7CF
:1023800027FEE368C01AA3689842F2D301204042B6
:1023900010BD81607047F7B50E000C0001908D18DC
:1023A000A71BAC4207D00198FFF7DEFF002802DB35
:1023B00020700134F4E73800FEBD0000F0B50C23B6
:1023C00087B003900C0008005A438B180193019BBF
:1023D00098420AD24368002B05D1001B224C801082
:1023E000604307B0F0BD0C30F1E70398FFF7BCFF86
:1023F000071E36DB2000019B9842F6D206688268F1
:10240000B35C9F4208D14368013282609A4210D186
:10241000041BA4101448E3E7002A0AD0836802933F
:10242000013B8360F15C8F4218D1002B03D1013353
:1024300083600C30DFE70021D51A75190495755CAF
:10244000AC46049D6D5C0595059DAC4502D10131FE
:102450008B42F4D88B42E1D1029BE9E7002BDDD11E
:10246000E7E701204042BCE7ABAAAAAA7FB5040077
:102470000E00150000210C2201A802F0D7FB01225A
:1024800001A9200001960295FFF798FF43425841A9
:10249000C0B204B070BD70B5050008000C0002F0B9
:1024A0003DFC210002002800FFF7E0FF70BD012085
:1024B0007047000010B50368014A1B6A984710BDB9
:1024C0001304000010B50400006901F071FF200042
:1024D000143001F0E3FE024BE01801F0DFFE10BD06
:1024E0001C08000010B5143001F0F6FE10BD00000D
:1024F00010B50400044BE01801F0EEFE0028F9D1FD
:10250000206901F06AFF10BD1C08000010B5024BE5
:10251000C01801F0EFFE10BD1C08000070B50500EA
:1025200004001435280001F0C3FE084B0600E35CEC
:10253000FF2B09D0280001F0DDFE0A2804DD044B42
:10254000044AE358A2581A60300070BD28100000F9
:10255000301000003410000010B5143001F0DCFE23
:1025600010BD000070B5040000690E0001F051FFBD
:102570000D4BE518002804D0280001F0ADFE00281E
:102580000DD0280001F0D6FE0028FAD12800310035
:1025900001F074FE206901F04DFF012070BD310093
:1025A000206901F03FFFF8E71C080000F7B51D00A7
:1025B00008AB1B780400009309AB1B78160001934D
:1025C00000234360FA239B0083600F4B0F00083306
:1025D0000360143001F042FE0C4BE01801F03EFEA7
:1025E0006A460B4B2761E6540A4B1278E5540A4BB6
:1025F0002000E2546A46094B1279E254FF23084A4C
:10260000A354084AA354FEBD0C5100001C0800004E
:1026100024100000251000002610000027100000E4
:10262000281000003810000070B50400006901F0A7
:10263000E0FE002816D02500206901F0EFFE1435D9
:102640000100280001F01AFE184BE35CFF2B09D0B3
:10265000280001F04FFE092804DC154B154AE35809
:10266000A2581A60206901F0D4FE00280DD0124B48
:10267000E518280001F030FE002812D0280001F0F3
:1026800017FEC1B2206901F0CDFE206901F0B6FE4F
:10269000002805D0206901F0B5FE206901F0A5FEF3
:1026A00070BD206901F0CCFEEFE7C04628100000A5
:1026B0002C100000341000001C080000F020014025
:1026C0003039484248417047F0231B0119408023AC
:1026D00006209B0099420AD00133FF330130994212
:1026E00005D0802302385B00994200D0002070475B
:1026F0000F2001400020012903D00239481E8141EA
:10270000481C7047F0B5182685B0334B0291040081
:10271000C05C330008214343304D1700EB18595675
:1027200001F06AFA2E4B0821E05C33004343EB18BA
:10273000595601F061FA2B4BE25C0393022A09D14E
:10274000294BE05CFF2805D008214643AE1971569D
:1027500001F052FA254EA05DFF2816D0012101F0AC
:10276000BBF91822A35D22495A43AB56AD1801228A
:10277000DB0158181F4960501F495B181F496350FF
:1027800069688A401E4962501A600122029B11004A
:10279000206901F0BFFF39002000FFF795FF3900E5
:1027A00005002000FFF7A4FF390006002000FFF716
:1027B00085FF3300009029002069012201F0CCFD43
:1027C000104B2069E25C039BE15C01F0DFFD2069B6
:1027D00001F0FAFD05B0F0BD24100000EC5100003E
:1027E00025100000271000003810000028100000FD
:1027F000184400412C100000144400413010000027
:1028000034100000261000003F20704713B56B46BF
:102810000268D9710733546819000122A04716BD18
:1028200010B50221006900F02DFC10BD10B5032188
:10283000006900F03DFC10BD10B5130004000A0053
:102840000069032100F02EFD002801D101236360FF
:1028500010BD000010B5054C23685A1C04D1036854
:102860005B69984703002060180010BD88000020B5
:10287000074B0200186810B5411C03D001225242D8
:102880001A6010BD0221106900F0FEFCF9E7C04695
:102890008800002010B503784222023303700249F9
:1028A000024800F0ABFD10BD440000204418002099
:1028B00010B50178030042780020A12908D1212A0F
:1028C00005D11A3A1649174800F098FD012010BDAD
:1028D0002129FCD1202A11D1193A1149114800F0BF
:1028E0002BFC96220E4BD2001968914203D1012491
:1028F000D87904400ED0FFF743FC0EE0222A03D122
:102900009A78074BDA71ECE7232AE0D15A88064B14
:102910001A60DCE7FA20FFF72DFC0020D7E7C0465D
:102920003C000020441800203800002070470000C0
:10293000FA220021054B92009A60054A596008323C
:102940001A60044A19761A617047C0462818002098
:10295000405100004418002030B50F25CB1D01392F
:1029600002002A40140000093034092A01DD373200
:1029700014001C70013B8B42F2D130BD70B5C026F3
:10298000C1B21B4C4B01E3189A681A4DB6052A4098
:1029900032439A60184A800110180A0058600720D4
:1029A000246808325201115D81430800012101436E
:1029B0007020115599692940314399610F49596136
:1029C000115D8143080010210143115599680C489D
:1029D000A218084080214903014399609968890B36
:1029E00089039960402351790B43537170BDC046F0
:1029F000FC1C0020FFFFFF8F301A00207018002001
:102A0000FF3F00F070B50400012320CC00212A789C
:102A10002000134380222B70520002F007F9AB789C
:102A2000DB07FCD46C6270BD1F22144B70B51B68B1
:102A3000590B9C0C9B0111405B0F22401F2900D1B8
:102A40001A391F2A00D1023A072B00D1043B1F2557
:102A500000688E01048D0A492A40214031430185D6
:102A6000018D14000A00AA4322430285028D190336
:102A7000044B13400B43038570BDC04624608000A7
:102A80003FF8FFFFFF8FFFFFEFF310830360012389
:102A9000436072B670470368002B02D162B6BFF381
:102AA0006F8F704737B5056904006846002D14D153
:102AB000FFF7EAFF019B621D013B02D3D57FEDB218
:102AC000FAE768460193FFF7E6FF002D01D10020E9
:102AD0003EBD206AE369C01AFAE7FFF7D5FF22007E
:102AE0000025019B3432013B02D31578EDB2FAE7A1
:102AF00068460193FFF7CFFF002DE8D0206BE36A13
:102B0000E9E70000F0B501254668037A31685A010B
:102B10008C18FF34A77AB2183D43A572C468094DDA
:102B20009068A404284024092043906090680833EA
:102B3000800B8003906040225B01CB1819790A4317
:102B40001A71F0BDFF3F00F0F7B5036904000E00F5
:102B500017006846002B3DD1FFF796FF019B611DD2
:102B6000013B5A1C0CD0CD7F5A1EEDB2002D05D171
:102B700068460193FFF78FFF2800FEBD1300F0E7C2
:102B8000684601930025FFF786FFE369AF4202D054
:102B9000226A934257D3226A9342EDD10023E36124
:102BA000013323616846FFF76FFF22000021019B7C
:102BB000671D013B3532581CDAD0F97710785E1E5C
:102BC000002805D0117020000193FFF79BFFECE770
:102BD0003300F0E7FFF758FF2100019B3431013B40
:102BE0005A1C06D00D785A1EEDB2002DC0D013002D
:102BF000F6E7684601930025FFF74DFFE36ABD4203
:102C000002D0226B934226D3226B9342B4D100238D
:102C10006846E3622361FFF737FF270022000021A7
:102C2000019B3437013B3532581CA1D039701078E4
:102C30005E1E002805D0117020000193FFF762FF8F
:102C4000EBE73300F0E75A1CE261A269D3181B7866
:102C50007355013599E75A1CE262A26AD3181B78B2
:102C600073550135CAE7F7B5027A436811000400CD
:102C70000831186849014118C879C00727D50125CE
:102C80005201CD719B189A6861699204920C0029D7
:102C900021D12262226A002A3ED0A26A656168467A
:102CA0005A60FFF7F1FE27002100019B661D013BE2
:102CB000343735315A1C2BD0F5773A78581ED2B2BA
:102CC000002A05D0019368460D70FFF7E4FEF7BDBA
:102CD0000A700300EEE72263226B002A1CD0002258
:102CE0006261A26968465A60FFF7CEFE26002100A5
:102CF000019B3436013B671D35315A1C08D03570B5
:102D0000FA7F581ED2B2002ADCD10A700300F4E721
:102D100068460193FFF7BFFE2000FFF7F3FED6E7FA
:102D200037B56B46DC1D00230D0020002370FFF734
:102D3000B1FD2B681818286001F0A0FD210001F0FA
:102D400059FD2B681818286020783EBD03290ED144
:102D500080220E4B62311B68FF31585C52420243A5
:102D60005A5468226339FF39FF3299547047012958
:102D7000FCD18022054B24311B68FF31585C524244
:102D800002435A542339FF392822EDE7FC1C002066
:102D900070B500252F4B012104001A201D7000F092
:102DA0009BFE01211A2000F0E3FE2B4B012119208C
:102DB0001D7000F091FE0121192000F0D9FE2023A2
:102DC000264A0F20D1690B43D361012224490B7895
:102DD00013430B70234B19788143197006211D781A
:102DE0002943197020490D782A430A701A78024045
:102DF0001A70602219780A431A701C4B1C4A5A80B8
:102E00005A78D209FCD11B48FFF7DCF81A4D28008C
:102E1000FFF7F8FD2800FFF707FE7F212B68C12090
:102E20001A7880000A401A70042219780A430C218B
:102E30001A701A898A4311491A810A581202120A11
:102E40000A5080220A6019787E3A0A431A700123D8
:102E5000237070BD65180020641800200004004035
:102E6000584400413C44004159440041000C00409A
:102E70000640000085380000FC1C002000E100E056
:102E80000078002810D00121084B1B681A898A435A
:102E90001A810822198B0A431A830422198B0A43C8
:102EA0001A830022024B1A607047C046FC1C0020A7
:102EB000F41C002010B50F4A93699B0B9B03936190
:102EC00013680222FF331A729879823A02439A7188
:102ED0001A7A9207FCD57F24074A2140937A08008A
:102EE000A3431900802301439172917A5B420B4303
:102EF000937210BDFC1C00200050004110B50B79EE
:102F00000C00002B0CD10800FFF7D2FC002801D0E8
:102F1000012010BD094A93699B0B9B039361F7E75E
:102F200001F0ACFC210001F098FC0028F0D1034A2C
:102F300093699B0B9B039361EBE7C046FC1C00204D
:102F4000F7B50D00832A19D1CBB2404C5A01A21813
:102F500091693F48AD010840C02189050143916155
:102F60003C4920684D197021083355615B011A5C9A
:102F70008A43110040220A431A54F7BD022A3DD168
:102F8000382001F067F9344B8027036000232F4E6F
:102F90007F00421D036203614361C3614660856037
:102FA000C760D3772F32C362036304001370380005
:102FB000537001F019FE0190A061380001F014FE79
:102FC000EBB25A01A062B218916821480833084058
:102FD000C021890501439160306807265B01195CB7
:102FE000AD00B1430E00032131431954019B200071
:102FF0005360FFF787FD194BEC50BEE7822A1FD1C3
:10300000CBB2124C5A01A21891691148AD01084087
:10301000C0218905014391610E4908334D19802172
:10302000556122685B01D01804794942214301713E
:103030007020995C814308003021014399549CE73A
:10304000002A9AD10800FFF799FC96E7FC1C0020A3
:10305000FFFFFF8F701800206C51000048180020FF
:1030600070B505000124064BA200D258002A05D0F5
:1030700021002800FFF764FF0134F4E770BDC0466B
:103080008C000020084B8A00D05810B5002803D0CF
:1030900003689B68984710BDC9B2044B4901591891
:1030A00088688004800CF6E748180020FC1C00208B
:1030B00010B50C00FFF7E6FF00280CD0064BE4B279
:1030C0001B68083464011C19802362795B42134336
:1030D00063710223E37110BDFC1C002070B5134B1B
:1030E000CCB2134A600189015918131859609968C4
:1030F000104D08340D4080218902294340259960F4
:103100009968890B8903996011686301CB181E794E
:1031100035431D719D796D06FCD564010919CB7984
:10312000DB07FCD512189068C0B270BD301A0020C1
:10313000FC1C0020FF3F00F070B5140040220B4B38
:103140000D001B68FF3359790A435A710021FFF7BC
:10315000C5FFA04200D9200000230549A34203D0A7
:103160005A5CEA540133F9E770BDC046FC1C0020EC
:10317000301A002010B5C9B20B48490142189368B3
:103180009B049B0C3F2B0BDD9468403B9B04A40BE2
:103190009B0CA4032343936041188868C0B210BD00
:1031A00093689B0B9B03F6E7FC1C0020F0B51C000A
:1031B000304B85B01B6806000D000192002B55D0E6
:1031C0002D4F3978C9B2002902D1192000F0D0FC66
:1031D00064233B70294BAA00D058002808D003680C
:1031E00022005B68019998470400200005B0F0BDFB
:1031F00029003000FFF746FF844204D9290030003F
:10320000FFF740FF040029003000FFF7B3FF012162
:10321000EBB21B4F03935B010293029A3B68019848
:103220009B18FF335A7A0A4316495A72AB01C918E0
:10323000220001F0F2FC002CD7D029003000FFF76B
:1032400021FF0028D1D14021039B3A6808335B015C
:10325000D3181879014319710121D9710121029BF9
:10326000D318FF339A7A0A439A72BEE70124644264
:10327000BBE7C046F41C002064180020481800205A
:10328000FC1C0020301A002013B56B46DC1D220008
:103290000123FFF78BFF012801D1207816BD012003
:1032A0004042FBE7F0B51E003A4B85B01B680F00AB
:1032B0000192002B3FD08023DB019E423BD8364C4D
:1032C0002178C9B2002902D11A2000F051FC6423F0
:1032D0000025324A2370BB01D3180293002E2CD054
:1032E0002F4B1B680393FF233B401C0000930834C3
:1032F000039B64011C19A379DB0921D0294B2A49BE
:10330000186801F0D7FA294B1721584301F0D2FA77
:10331000274BE279920713D4DA5D002A01D10138F4
:10332000F7D20122DA55009B5A011D4B9B189A696E
:10333000920B92039A6101256D42280005B0F0BD01
:1033400000221B4B3400DA553F2E00D93F242200C7
:103350000199029801F061FC009BA1045A01104BF5
:10336000890C9B18029A2D195A619A69361B920B87
:1033700092030A439A61009B039A08335B01D318B6
:103380000222DA715979823A0A435A71019B1B1958
:103390000193A3E7F41C002065180020701800209A
:1033A000FC1C0020B400002040420F0070110100FE
:1033B0006718002070B50D001C000D4EAB01F6180B
:1033C00011003000220001F028FCEDB209496D0126
:1033D0004D196E61AB69084A20001340AB61AB69BF
:1033E000A2049B0B920C9B031343AB6170BDC046C0
:1033F00070180020FC1C0020FF3F00F0F7B5104BB8
:1034000001901B780F001500002B0CD10D4B1600FE
:103410001C78002C09D00C4E0C4834880019641913
:1034200001F0FBFB34802800FEBD002EFBD03A19D2
:10343000330000210198FFF7BDFF2418361AF4E786
:10344000F01B0020F11C0020F21C0020F11B0020CA
:10345000F8B5002000AF0E001500012A26DDD31DAF
:103460006A46DB08DB00D31A9D46080001F056FCD3
:103470006C460323002101304000207063705A1E07
:10348000D2B295420BDD3078002808D00136A05426
:103490009D4203D0E1540233DBB2F0E72A00210061
:1034A0000348FFF7ABFF431E9841C0B2BD46F8BDCD
:1034B00044180020F0B50027012687B01E4B00916C
:1034C00002A91E7005000297FFF72AFC03AC0190C9
:1034D00009223900200001F0A9FB092323700223EF
:1034E00063709E33E3715A332372029B6671093312
:1034F00063806B461B7923710F4B1F70009B092B58
:1035000007D11A0021002800FFF778FF012007B03B
:10351000F0BD0A4B09221E70094E210028000297B7
:103520003780FFF76BFF02A92800FFF7F9FB034B79
:1035300032881F700349E6E7F01B0020F11C0020D1
:10354000F21C0020F11B002070B5CE7892B005006F
:103550000C00022E08D1C9882B48FFF7ABFF431E91
:103560009841C0B212B070BD01F088F9210001F09D
:1035700055F9002803D0C317181AC00FF2E7012E1F
:103580000BD1E2882149112A10DCD2B2002A0DD0D9
:103590002800FFF733FF0120E4E7032EE2D1A378F0
:1035A000002B05D1E2881A49032AEEDD0A78EFE7FD
:1035B000022B05D1A27917492800FFF749FFD1E76F
:1035C000012B02D1A2791449F6E7032BCAD1134B80
:1035D00001A91868FFF7C0F9114B03A91868FFF794
:1035E000BBF9104B05A91868FFF7B6F90E4B07A9F0
:1035F0001868FFF7B1F901F041F909A901F01EF9C6
:10360000A27901A9D8E7C0464418002096510000CD
:1036100086510000785100008A5100000CA0800003
:1036200040A0800044A0800048A0800073B5060040
:1036300048780D000B2811D801F032F9061D102E24
:10364000104348704C4F696C097801AA002907D1D2
:103650000223117051703000FFF7ACFE012076BDDF
:103660000023137053702E4B1B78012B00D1137065
:1036700002230021EFE78A780023012A04D101AA5E
:1036800013705370274BEFE7254A1370264A93694E
:103690009B0B9B039361E1E78C78012C06D1002101
:1036A000204B01AA1C7011702300D4E7002C08D114
:1036B00001201B4B1C4A187093699B0B9B03936161
:1036C000CDE7A9783000FFF7F5FBC7E73000FFF73B
:1036D0003BFFC4E70123154ACBE70B780020DB064C
:1036E000BDD13000FFF7BCFC2A200221AA780F4B85
:1036F000FF301A600C4A13681C5C21434A24195499
:10370000FF34195D2938FF3801431955D4E70123E7
:10371000074AAEE78A78064B1A60B7E700209EE7B3
:10372000661800206E180020FC1C0020F41C0020ED
:10373000F81C00204B4BF7B51C780700002C7CD1FF
:10374000494E33689B8B1B070DD52000FFF716F9F8
:10375000326810231100FF31887A03438B72434B88
:103760001C600823938333689A8B52071FD5042269
:103770009A833F4A1378002B0AD01378013BDBB2BF
:1037800013701378002B03D101211A2000F0F0F9F7
:10379000384A1378002B0AD01378013BDBB2137040
:1037A0001378002B03D10121192000F0E1F93368CF
:1037B000FF331A7AD20620D510221A725979303284
:1037C0000A435A7160232C4938000A781A4235D1CD
:1037D000FFF72CFF002834D0802233685242FF3399
:1037E00099790A439A713368FF331A7A520604D5DD
:1037F00040221A72597A0A435A72336800251C8C87
:1038000001239C43E4B20193E9B2002C15D02300BC
:103810002B41019A13420DD02B00326808335B0113
:10382000D318DA79D20713D4DB799B0710D4019B24
:10383000AB409C430135092DE6D1F7BDFFF75EFB98
:10384000C8E720220D4BCDE703681B689847EEE7D9
:103850000B4BAA00D0580028F6D13800FFF776FAB3
:10386000E5E7C046F11C0020FC1C0020F41C0020F1
:103870006518002064180020301A0020FF50004115
:103880004818002010B50248FFF754FF10BDC0468D
:1038900044180020014A024B1A6070470050004152
:1038A000FC1C0020FA21314B10B51868890001F08A
:1038B00001F82F4B0138984256D82E492E4A4860BD
:1038C000C020136A00061B021B0A03431362002474
:1038D00007238C600B608021136A09061B021B0AF8
:1038E0000B431362FC22254B196A0A431A62FC221D
:1038F000196A92010A431A62A022196AD2020A4383
:103900001A6220000021013400F0E6F8142CF8D1EE
:103910001B4B1C005A7852B2002AFBDB194A5A8012
:10392000194B1A00597EC9090129FBD0E421C900AD
:1039300099803F21D970537EDB09012BFBD0C02336
:1039400000205B011361907000F02EF863785BB289
:10395000002BFBDB0D4B0E4A6380D379DB09012B77
:10396000FBD04123537010BDFEE7C046B4000020D9
:10397000FFFFFF0010E000E000ED00E00004004069
:10398000000C00401E4000000040004221400000AA
:1039900000480042914202D002D98A1AD0407047B2
:1039A000521A9040FBE70000164A00B51300517E02
:1039B000C9090129FBD00138042816D81969124A0F
:1039C0000A400F211A615A788A4300F069FF030800
:1039D000060B0300110001220A435A7000BD1100BA
:1039E0000322F9E711000222F6E7F02311691B0513
:1039F0000B430F21136153788B43190002230B43B0
:103A00005370EBE700400042FFFFFFF010B50400E9
:103A10000D2800D80E340121200000F0EDF80E2C06
:103A20000DD1284B1900DA79D209012AFBD00220E6
:103A30001A7882431A70CB79DB09012BFBD022491B
:103A40000B004A7ED209012AFBD0182262431F4C88
:103A5000A418207C1F240A692040A24302430A6163
:103A60005A7ED209012AFBD0022219780A431A7021
:103A70005A7ED209012AFBD00222197B0A431A730B
:103A800001221A765A7ED209012AFBD00222197B22
:103A90000A431A731A7ED207FCD5588B80B25A7E1D
:103AA000D209012AFBD002211A788A431A705A7E61
:103AB000D209012AFBD0064B1A68064B1968FFF79A
:103AC00069FF10BD0048004200400042EC51000078
:103AD000BC000020B8000020182330B51D000400F1
:103AE00045430820204A55192856013014D003298F
:103AF00012D808006343D156D31800F0D1FE022833
:103B00000E1B5868CB010221184A9B181A18403224
:103B10001170012282405A6030BD5868CB010621E5
:103B2000124A9B181A1840321170012282405A60C2
:103B30009A61F1E75868CB0106210C4A9B181A18C4
:103B400040321170012282405A605A61E4E758689D
:103B5000CB010221054A9B181A184032117001222C
:103B600082409A60D8E7C046EC5100000044004112
:103B70001823F0B508245843114A13181C57013470
:103B80001BD0012635005F688356BD400D4ADB011E
:103B90009A18906828420BD10C00601E8441D219FB
:103BA0004032107834400336A400B04320431070F4
:103BB000044A9B18002901D15D61F0BD9D61FCE7BD
:103BC000EC51000000440041182310B5082458436C
:103BD000074900230A181457013406D043560549F3
:103BE000DB015B181B6A5268D3400120184010BDEE
:103BF000EC51000000440041F8B503001820584380
:103C00002A4A1018007A40B20400013013D0481C30
:103C100000240C280FD800F043FE451C1C1C1C1C63
:103C20001C1C1C0707070700092906D100211800E2
:103C3000FFF752FF00242000F8BD0A2901D10839FE
:103C4000F5E700240B29F6D10A391800FFF744FFE5
:103C5000F1E718204343D018466801253400D256B6
:103C60001348D20112187308D31830332C40187837
:103C7000002C0BD00F24090120400143C9B2921936
:103C80001970403213781D431570D3E70F27B843DE
:103C900001439219C9B21970130040331A781543C1
:103CA0001D70C8E701246442C5E7C046EC5100001E
:103CB0000044004130B5094D094CAB685B035B0F14
:103CC0009B001C590460AB6801619BB24360634375
:103CD000A4008360C460426130BDC0460040004122
:103CE000A8510000F7B580261A4D03336F689B0872
:103CF0003E436E600191002B2BD0174E2E802E7DFF
:103D0000F107FCD51E0001689F1B89088F4219D25C
:103D1000002E17D0FF2117788C433C430F4957786A
:103D20000C403F023C439778013E39040C4F27403A
:103D3000D478BFB20F43240601993C4310C10191CE
:103D40000432E0E7074B2B802B7DDB07FCD53300EB
:103D5000D1E7F7BD0040004144A5FFFFFF00FFFF92
:103D6000FFFF00FF04A5FFFF044B054A4908D96186
:103D70001A801A7DD207FCD57047C046004000412A
:103D800002A5FFFF70B5050016000C00EB682100CE
:103D900028009E4205D9FFF7E7FFEB68E418F61A02
:103DA000F4E7FFF7E1FF70BD10B510001A0000F056
:103DB00034FF10BD437A002B04D18372C372C360F9
:103DC00001334372704730B5040085B002AD00681E
:103DD0000291039200F063FB6B79227AE179009300
:103DE0002068002300F0C8FC2979029A206800F0BE
:103DF0002BFB206800F04AFB05B030BD70B51826DB
:103E00000400FFF7D7FF3300082120790D4D43430D
:103E1000EB185956FFF7F0FE33000821A079434311
:103E2000EB185956FFF7E8FE082160794643AD19B3
:103E30006956FFF7E1FE044B200006CBFFF7C3FFF6
:103E400070BDC046EC510000101E002007B5837AFB
:103E500000910192002B07D09A070AD5EFF3108248
:103E600053425341C37272B60099019AFFF7ABFFF8
:103E700007BDDB07F8D58389014A9360F4E7C046A4
:103E80000018004010B5006800F012FB10BD0000E3
:103E9000094B0A4A0A491A6000225A711A71094BE1
:103EA0001960162119710231997101395971163948
:103EB0005A72D9711A727047101E002000093D0015
:103EC000D44E0020001E0020F8B505000E0017009B
:103ED0000024BC4208D02B68315D1B68280098473D
:103EE000002801D00134F4E72000F8BD704710B578
:103EF000183000F0F1F910BD10B5183000F0D8F905
:103F000010BD70B5837D0D00002B01D1002070BD68
:103F100082231B01C418200000F00CFA0028F5D100
:103F20002000290000F0AAF90120F0E710B51830B0
:103F300000F0F2F910BD0000F7B50193FA23002557
:103F40009B0083600B4B040008334560036018300E
:103F50000F00160000F082F982231B01E01800F028
:103F60007DF96B461B7927612675A5752000637561
:103F7000FEBDC046C851000070B5060018250C49AA
:103F8000006900F01DFC306900F0AAFA2B0008213E
:103F9000307D084C4343E3185956FFF72DFE0821A6
:103FA000707D454364196156FFF726FE70BDC0461B
:103FB000A0860100EC51000070B504000D000069FE
:103FC00000F0A1FA2900206900F0FAFB206900F056
:103FD00087FA70BD054B10B5C15482231B01040044
:103FE000C01800F05BF90123A37510BD2810000074
:103FF0000022F8B5184B827504000E00C15C006900
:1040000000F0B8FA002806D10321206900F096FAE2
:1040100002252800F8BD82231B01E518280000F0C6
:104020005BF900280FD02800276900F041F9C1B2E0
:10403000380000F0CBFA0028EDD10321206900F010
:104040007DFA0325E5E70500002EE2D00321206973
:1040500000F074FADDE7C0462810000010B5012119
:10406000FFF7C6FF10BD000070B50400006900F046
:10407000CDFA002827D0206900F0D6FA00280ED10A
:10408000206900F0DBFA002851D0206900F0D1FA55
:1040900000284CD0206900F0D6FA002847D12069CA
:1040A00000F042FA0321206900F048FA304BE5584D
:1040B000002D04D0236820001B699847A8472000E2
:1040C000183000F0EBF870BD206900F02DFA20697F
:1040D000032100F033FA206900F0B5FA0028F2D08D
:1040E00082231B01E01800F0D9F80123A375214BAE
:1040F000E358002BE7D09847E5E72500183528005E
:1041000000F018F9002807D0206900F005FA032113
:10411000206900F013FAD6E7206900F099FA01004F
:10412000280000F0ABF8206900F0FEF9EFE7206905
:1041300000F084FA0028C7D1206900F070FA002846
:10414000C1D0206900F07FFA0028D6D082231B015D
:10415000E518280000F0C0F8FF21002803D028004F
:1041600000F0A6F8C1B2206900F042FAA075AAE7F3
:10417000301000002C10000010B50248FFF774FF4B
:1041800010BDC046181E002010B515231422024988
:104190000248FFF7D1FE10BDD04E0020181E0020AF
:1041A00010B50248FEF740FA10BDC046883E002018
:1041B00010B50248FEF738FA10BDC0464C2E00205C
:1041C000F7B501240326154F1549380000F0C2F851
:1041D0001449154800F0BEF81449154800F0BAF823
:1041E0001449154800F0B6F81449154800F0B2F823
:1041F000144D1549280000F0ADF839000096230051
:10420000019400221148FEF7D1F90096290001948B
:104210001E231F220E48FEF7C9F9F7BDC44E002029
:1042200000080042000C0042C84E0020001000426E
:10423000CC4E002000140042D04E00200018004256
:10424000D44E0020D84E0020001C0042883E0020A2
:104250004C2E002010B500F0C7FC10BD70B58025B5
:104260002D012A000021040000F0E0FC0023024A96
:1042700063512000A35070BD040800008022120189
:1042800030B58458044D631C45595B055B0D9D4258
:1042900001D00155835030BD040800008022002366
:1042A00012018350014A83507047C0460408000041
:1042B00080220849120143588258934206D0C25CBA
:1042C00001335B055B0D43501000704701204042F5
:1042D000FBE7C046040800008023054A1B01C358C1
:1042E0008058181A02D580231B01C0187047C04699
:1042F000040800008023064A1B01C35880588342EB
:1043000003DBC01A034BC0187047C01A0138FBE723
:1043100004080000FF0700008022054B1201C3586B
:104320008258934201D0C05C704701204042FBE7B5
:104330000408000080231B01C358054A013380583C
:104340005B055B0D181A43425841C0B27047C04626
:104350000408000001607047F0B505AC25780468DA
:10436000981E471EB8412668920700063243024352
:10437000072022600140AD01626829430020022B22
:1043800000D05803114301436160F0BD10B5C02453
:104390000368A4031868120522400243C0200904E0
:1043A00080020140114319605A681043586010BDE3
:1043B0000122036819680A431A601A68D207FCD4FC
:1043C000DA69D207F9D470470222036819680A43F0
:1043D0001A60DA699207FCD4704703681A7ED20724
:1043E00002D41A7E9207FCD57047002203685A83D4
:1043F00070470368187E4007C00F70470368187E37
:10440000C0097047802302685B42117E0B4313761C
:1044100070470368187EC007C00F70470368188D87
:10442000C0B2704703681A7ED207FCD589B201205A
:104430001985704701230268917D0B43937570477E
:10444000012203681A75704770B5012504684B088E
:104450002B402940206809075B070B430343236077
:104460005100034800F026FA0138C0B2207370BD35
:10447000006CDC020122036819680A431A601A689A
:10448000D207FCD4DA69D207F9D470470222036854
:1044900019680A431A60DA699207FCD47047036806
:1044A000DA699207FCD402211A688A431A607047BD
:1044B0000268936A5B0A5B0219439162137E5B0791
:1044C000FCD5906AC0B270470122036819680A439C
:1044D0001A601A68D207FCD4DA69D207F9D4704797
:1044E0000222036819680A431A60DA699207FCD449
:1044F00030215A8B8A43110010220A435A83DA6909
:104500005207FCD47047022103681A688A431A6074
:10451000DA699207FCD4704780230268DB021168D5
:1045200051680B4353607047036803491A685A681F
:104530000A405A607047C046FFFFFBFF036810B592
:1045400018680322C006400F094C052809D1586895
:1045500011400904204001435960DA695207FCD434
:1045600010BD586811400904204001435960F7E725
:10457000FFFFFCFF49001143036810B5CCB2598B13
:104580008906890F012904D0598B8906890F0229D0
:10459000F5D1596AC90AC90221435962002A0CD0CF
:1045A000187E8007C00F0BD11A7ED207F8D5C02223
:1045B000596892020A435A6010BD1A7ED207FCD590
:1045C000588B4007C30F01205840F5E703681A00D5
:1045D00028321170187EC007C00F03D15A8BD20742
:1045E000F8D57047588B4007C30F01205840F8E7B3
:1045F000036800201A00283211701A7E520704D571
:10460000588B01234007C00F584070470368186853
:10461000C006400F043843425841C0B27047036897
:10462000187E4007C00F70470368187EC007C00F90
:1046300070470368588BC006C00F70470368187E28
:104640008007C00F70470368588B0007C00F704782
:1046500003681A68D206520F052A02D11A7E920701
:10466000FCD528331878C0B2704700000368214A8F
:1046700030B5934211D0204A93422FD01F4A934223
:104680002FD01F4A93422FD01E4A93422FD01E4A4A
:10469000934222D10E23192201E009231422012181
:1046A000032599401948C024016099082B40AB406C
:1046B000FC359D4089000918A4000859A843C0256D
:1046C0009D402B0003430B518023DB011A43104B09
:1046D0005A805A7852B2002AFBDB30BD0A231522D9
:1046E000DDE70B231622DAE70C231722D7E70D2389
:1046F0001822D4E700080042000C004200100042DB
:104700000014004200180042001C004200E100E0DA
:10471000000C0040F8B5040016000F001D00FFF764
:10472000A5FF2000FFF744FE1C22BB0013407207C8
:104730002468120C134323608423A375012F18D11E
:104740001021012E00D008390A4B69431868C000B7
:1047500000F0B0F80722A3890240DB045203DB0C0F
:104760001343A3810304A089DB0C400B40031843CF
:10477000A081F8BDB4000020F7B50700019308AB95
:104780001E780D001400FFF775FE3800FFF76EFF6E
:10479000C022240592031440B2070C2607211643B9
:1047A000019A34430A40C02611008022B6022D042B
:1047B0003B683540920225430A431D605A60F7BDAD
:1047C00070B504000D00FFF751FF2000FFF77CFEDD
:1047D0001423246869002360054B186800F06AF808
:1047E000FF22431EE068134090431843E06070BD11
:1047F000B400002070B50E0000254468002C0BD0DA
:10480000236831005B6820009847002802DB2D18E0
:10481000E468F3E701256D42280070BD70B50D0016
:104820004468002C08D0236829009B682000984722
:10483000002802D1E468F4E7200070BD70B50D00D7
:104840004468002C07D0236829002000DB689847C3
:10485000E4682D18F5E72C7070BD70B50D00446844
:10486000002C08D0236829001B68200098470028E6
:1048700002D1E468F4E7200070BD00000121064A7F
:1048800010B5136805480B4005D1022404702419A3
:1048900044704360116010BDDC4E0020E04E0020EB
:1048A00002B4714649084900095C49008E4402BCC3
:1048B0007047C046002243088B4274D303098B42E1
:1048C0005FD3030A8B4244D3030B8B4228D3030CE0
:1048D0008B420DD3FF22090212BA030C8B4202D382
:1048E0001212090265D0030B8B4219D300E0090AAA
:1048F000C30B8B4201D3CB03C01A5241830B8B42B3
:1049000001D38B03C01A5241430B8B4201D34B039B
:10491000C01A5241030B8B4201D30B03C01A524100
:10492000C30A8B4201D3CB02C01A5241830A8B4285
:1049300001D38B02C01A5241430A8B4201D34B026E
:10494000C01A5241030A8B4201D30B02C01A5241D2
:10495000CDD2C3098B4201D3CB01C01A5241830986
:104960008B4201D38B01C01A524143098B4201D3C0
:104970004B01C01A524103098B4201D30B01C01AEB
:104980005241C3088B4201D3CB00C01A5241830865
:104990008B4201D38B00C01A524143088B4201D392
:1049A0004B00C01A5241411A00D2014652411046F2
:1049B0007047FFE701B5002000F0F0F802BDC046E7
:1049C0000029F7D076E7704703460B437FD40022D7
:1049D00043088B4274D303098B425FD3030A8B4293
:1049E00044D3030B8B4228D3030C8B420DD3FF22FD
:1049F000090212BA030C8B4202D31212090265D0CB
:104A0000030B8B4219D300E0090AC30B8B4201D37D
:104A1000CB03C01A5241830B8B4201D38B03C01AC4
:104A20005241430B8B4201D34B03C01A5241030B3B
:104A30008B4201D30B03C01A5241C30A8B4201D3EC
:104A4000CB02C01A5241830A8B4201D38B02C01A97
:104A50005241430A8B4201D34B02C01A5241030A0E
:104A60008B4201D30B02C01A5241CDD2C3098B42F3
:104A700001D3CB01C01A524183098B4201D38B0170
:104A8000C01A524143098B4201D34B01C01A524113
:104A900003098B4201D30B01C01A5241C3088B4258
:104AA00001D3CB00C01A524183088B4201D38B0043
:104AB000C01A524143088B4201D34B00C01A5241E5
:104AC000411A00D201465241104670475DE0CA0FBC
:104AD00000D04942031000D34042534000229C467C
:104AE00003098B422DD3030A8B4212D3FC22890186
:104AF00012BA030A8B420CD3890192118B4208D35C
:104B0000890192118B4204D389013AD0921100E0BD
:104B10008909C3098B4201D3CB01C01A52418309D1
:104B20008B4201D38B01C01A524143098B4201D3FE
:104B30004B01C01A524103098B4201D30B01C01A29
:104B40005241C3088B4201D3CB00C01A52418308A3
:104B50008B4201D38B00C01A5241D9D243088B42F9
:104B600001D34B00C01A5241411A00D2014663469C
:104B700052415B10104601D34042002B00D5494200
:104B8000704763465B1000D3404201B5002000F03F
:104B900005F802BD0029F8D016E770477047C046F7
:104BA00070B500260C4D0D4C641BA410A64209D113
:104BB000002600F0CBF80A4D0A4C641BA410A64254
:104BC00005D170BDB300EB5898470136EEE7B3004E
:104BD000EB5898470136F2E7240100202401002019
:104BE000240100204001002010B5034B010018688B
:104BF00000F024F810BDC046C000002030B50024ED
:104C0000A24201D1002005E0035D651C0C5DA342BA
:104C100001D0181B30BD2C00F2E7002310B59A42DA
:104C200000D110BDCC5CC4540133F8E703008218F6
:104C3000934200D1704719700133F9E7032370B52F
:104C4000CD1C9D43083506000C2D1ED20C25A94213
:104C50001DD8300000F069F8254A146821000029A9
:104C600019D1244C2368002B03D1300000F044F804
:104C700020602900300000F03FF8431C2CD10C23A9
:104C80003000336000F052F803E0002DDFDA0C232F
:104C90003360002070BD0B685B1B1AD40B2B03D94B
:104CA0000B60CC18256003E08C420ED16368136062
:104CB000300000F03BF8200007220B30231D90430A
:104CC000C31AE7D05A42E250E4E74B6863600C0035
:104CD000EEE70C004968C2E70323C41C9C43A042D2
:104CE000E0D0211A300000F007F8431CDAD1C6E703
:104CF000E84E0020EC4E0020002370B5064C050065
:104D00000800236000F014F8431C03D12368002B33
:104D100000D02B6070BDC046F44E00200023C25C62
:104D20000133002AFBD1581E7047704770470000BE
:104D3000044A1368002B03D018181060180070473D
:104D4000014BF9E7F04E0020F84E0020F8B5C046C0
:104D5000F8BC08BC9E467047F8B5C046F8BC08BC15
:104D60009E4670470C11161B20252A2F34393EFF12
:104D7000FFFF0000000000FFFFFF4172742D4E6531
:104D800074004653454E433D5750413250534B2CCF
:104D90004145530046534B45593D71756965746FE4
:104DA0006E7365740041542B000D002B6F6B004136
:104DB00052544E45543D31004152544E45543D30BD
:104DC000004653535349443D52617470616320411E
:104DD0004B53004E4554503D5544502C434C49458F
:104DE0004E542C363435342C31302E31302E313077
:104DF000302E323535005753535349443D52617478
:104E000070616320414B530057414B45593D57500A
:104E1000413250534B2C4145532C71756965746F69
:104E20006E736574004172742D4E657400556E6B1F
:104E30006E6F776E204172744E6574204F70436FB1
:104E400064653A200057726974696E672045455061
:104E5000524F4D0052617470616320414B53202DBD
:104E60002044657369676E656420627920526174BD
:104E70007061632044696D6D6572730057534B45D3
:104E8000593D5750413250534B2C4145532C71756D
:104E90006965746F6E736574002B2B2B0061004C79
:104EA000696E6B696E6700556E6C696E6B696E67D3
:104EB000005F72656200454E544D00465645573DB1
:104EC000656E61626C6500465645573D6469736165
:104ED000626C65004C414E4E3D31302E31302E39E2
:104EE000392E3235342C3235352E3235352E323599
:104EF000352E30004C414E4E3D31302E31302E316A
:104F000030302E3235342C3235352E3235352E3286
:104F100035352E3000574D4F44453D5354410057D1
:104F20004D4F44453D41500052454C44005741507F
:104F30003D313142474E2C52617470616320414BC8
:104F4000532C4348310057414E4E3D444843502C6A
:104F500031302E31302E3130302E3130302C323550
:104F6000352E3235352E3235352E302C31302E312E
:104F7000302E3130302E323534004D534C503D4FB1
:104F80004E004D534C503D4F46460000000000007F
:104F90000000000000000000000000000000000011
:104FA0000000000000000000000000000000000001
:104FB00000000000000000000000000000000000F1
:104FC00000000000000000000000000000000000E1
:104FD00000000000000000000000000000000000D1
:104FE00000000000000000000000000000000000C1
:104FF00000000000000000000000000000000000B1
:1050000000000000000000000000000000000000A0
:105010000000000000000000000000000000000090
:105020000000000000000000000000000000000080
:105030000000000000000000000000000000000070
:105040000000000000000000000000000000000060
:105050000000000000000000000000000000000050
:105060000000000000000000000000000000000040
:105070000000000000000000000000000000000030
:105080000000000000000000000000000000000020
:105090000000000000000000000000000000000010
:1050A0000000000000000000000000000000000000
:1050B00000000000000000000000000000000000F0
:1050C00000000000000000000000000000000000E0
:1050D00000000000000000000000000000000000D0
:1050E00000000000000000000000000000000000C0
:1050F00000000000000000000000000000000000B0
:105100005F7265626F6F74000D0A0000000000009E
:105110000000000065250000592000000D2500005A
:10512000F1240000E52400001D25000059250000A1
:10513000B524000005270000C5240000AF240000AE
:1051400000000000000000000D28000039280000C9
:10515000092800002D2800002128000071280000E7
:10516000552800000000000000000000672C00002F
:10517000492B0000A52A000041726475696E6F20FA
:105180005A65726F00000403090441726475696E08
:105190006F204C4C430012010002EF0201404123FA
:1051A0004D80000101020301080000001000000012
:1051B000200000004000000080000000000100000E
:1051C00000020000000400000000000000000000D9
:1051D000033F0000C93E000055200000ED3E0000E6
:1051E000EF3E0000F93E00002D3F000000000000EF
:1051F0000B0000000200000004000000FF00FFFFA1
:10520000FFFF0B00000000000A0000000200000089
:1052100004000000FF00FFFFFFFF0A000000000085
:105220000E0000000800000004000000FF00FFFF67
:10523000FFFF0E0000000000090000000400000055
:105240001C000000FF000100010009000000000038
:1052500008000000040000001C000000FF00000027
:1052600000001000000000000F000000040000001B
:105270001C000000FF00010301030F0000000000FC
:1052800014000000050000002C000000FF000200D8
:1052900002000400000000001500000005000000EE
:1052A0002C000000FF0003000300050000000000C8
:1052B00006000000040000001C000000FF000001C8
:1052C00000010600000000000700000004000000CC
:1052D0001C000000FF0001010101070000000000A8
:1052E00012000000040000001C000000FF0000038A
:1052F0000003020000000000100000000400000095
:105300001C000000FF00000200020000000000007E
:1053100013000000050000002C000000FF00030047
:105320000300030000000000110000000400000062
:105330001C000000FF00010201020100000000004B
:105340000200000001000000020000000000FFFF5A
:10535000FFFF020001000000080000000100000043
:105360001800000002000004000408000100000012
:105370000900000001000000180000000300010403
:10538000010409000000000004000000010000000A
:10539000000000000400FFFFFFFF04000000000009
:1053A0000500000001000000000000000500FFFFF4
:1053B000FFFF0500010000000200000001000000E6
:1053C000000000000A00FFFFFFFF020000000000D5
:1053D000160000000200000004000000FF00FFFFB4
:1053E000FFFF0600000000001700000002000000A0
:1053F00004000000FF00FFFFFFFF070000000000A7
:105400000C0000000300000004000000FF00FFFF8C
:10541000FFFF0C00010000000A0000000300000074
:1054200004000000FF00FFFFFFFF0A000100000072
:105430000B0000000300000004000000FF00FFFF5D
:10544000FFFF0B0001000000030000000B00000044
:1054500004000000FF00FFFFFFFFFF00000000004E
:105460001B0000000B00000004000000FF00FFFF15
:10547000FFFFFF00000000001C000000060000000D
:1054800000000000FF00FFFFFFFFFF000000000022
:10549000180000000600000000000000FF00FFFFF1
:1054A000FFFFFF00000000001900000006000000E0
:1054B00000000000FF00FFFFFFFFFF0001000000F1
:1054C000160000000300000000000000FF00FFFFC6
:1054D000FFFFFF00010000001700000003000000B4
:1054E00000000000FF00FFFFFFFFFF0000000000C2
:1054F000160000000200000000000000FF00FFFF97
:10550000FFFFFF0000000000170000000200000085
:1055100000000000FF00FFFFFFFFFF000000000091
:10552000130000000200000000000000FF00FFFF69
:10553000FFFFFF000000000010000000020000005C
:1055400000000000FF00FFFFFFFFFF000000000061
:10555000120000000200000000000000FF00FFFF3A
:10556000FFFFFF000000000011000000020000002B
:1055700000000000FF00FFFFFFFFFF000000000031
:105580000D000000040000000C000000FF000100FE
:10559000FFFF0D00000000001500000005000000E6
:1055A0000C000000FF000300FFFFFF0000000000F0
:1055B00006000000040000000C000000FF000001D5
:1055C000FFFFFF00000000000700000004000000D3
:1055D0000C000000FF000101FFFFFF0000000000C1
:1055E000030000000100000002000000FF00FFFFB8
:1055F000FFFFFF00000000000200000001000000AB
:10560000020000001400FFFFFFFF02000000000086
:10561000000000000000000000000000000000008A
:10562000000000000000000000000000000000007A
:10563000000000000000000000000000000000006A
:10564000000000000000000000000000000000005A
:10565000000000000000000000000000000000004A
:10566000000000000000000000000000000000003A
:1056700052617470616320414B5320202020202010
:1056800020200A0A64FE0000320000001200000020
:10569000EE020000080909FF1300000001010101EA
:1056A00001110000FFFFFFFFFFFFFFFF00C201002D
:1056B00000000800080B00020202000009040000BC
:1056C0000102020000052400100104240206052442
:1056D00006000105240101010705810310001009DE
:1056E000040100020A000000070502024000000752
:1056F0000583024000000000FFFFFFFF00000000E4
:105700008300000002000000820000000000000092
:105710000000000000000000000000000000000089
:105720000000000040420F000A0000000A000000D4
:10573000C4000020000000002C5600004C56000061
:105740000C560000000000000000000000000000F7
:105750000000000000000000000000000000000049
:105760000000000000000000000000000000000039
:105770000000000000000000000000000000000029
:105780000000000000000000000000000000000019
:1057900000000000DD000000FD0B000031290000CA
:1057A00095380000913E000089410000C141000091
:1057B000B500000000000000000000000000000034
:0400000300001F6179
:00000001FF
