:1000000000800020752000005D2000005D200000C1
:1000100000000000000000000000000000000000E0
:100020000000000000000000000000005D20000053
:1000300000000000000000005D200000C92000005A
:100040005D2000005D2000005D2000005D200000BC
:100050005D2000005D2000005D20000061200000A8
:100060005D200000B5420000790100005D01000044
:100070008D4200005D200000C54200005D200000B0
:100080005D2000005D2000005D2000005D2000007C
:10009000000000005D2000005D2000005D200000E9
:1000A0005D2000005D2000005D2000005D2000005C
:1000B0000000000010B5064C2378002B07D1054B3B
:1000C000002B02D0044800E000BF0123237010BDC4
:1000D00050010020000000006C570000084B10B5D4
:1000E000002B03D00749084800E000BF0748036819
:1000F000002B00D110BD064B002BFBD09847F9E731
:1001000000000000540100206C5700004401002052
:100110000000000010B5040001F0E4FF20602000A2
:1001200010BD10B5040001F0DDFF2368C01A10BD3A
:1001300070B504000D0001F0D5FF401B20602000C9
:1001400070BD10B50A004369016903F055FE10BD8A
:1001500010B54269016903F09FFE10BD054B1A7E80
:10016000D20905D08022197E52420A431A765B8B4F
:100170007047C0460010004270B52A4B1A7E198D98
:10018000187E5207D20F89B2C00920D080201C7E71
:10019000404220431876588B800718D5002101244F
:1001A0005983214B21481C70FFF7C2FF204B214D82
:1001B0001C702B68002B07D080221F4992001F481B
:1001C00004F0B5FD1E4B1C7000232B6070BD002A8F
:1001D000FCD01548C9B20378012B1DD0022BF5D1F4
:1001E0007F25144C2268D3172B40164D9B18DB112A
:1001F000154004D58026013D7642354301350E4E2B
:10020000DB01F31859558023013222609B009A428A
:10021000DCD1FE3BFF3B03E00223002900D000239A
:100220000370D3E7000C004270010020D0110020C1
:10023000E815002074010020E1130020E1110020E6
:10024000E91500207F00008070B525260C488AB093
:1002500043696A46016903F031FE0A4D320069467E
:10026000280004F064FD084C32002900200004F04E
:100270005EFD372323774533A3770AB070BDC046B0
:10028000F8170020D1170020AC17002010B50A493C
:100290008AB00A4801F08CFF25220949684604F01B
:1002A00046FD084C2000FFF753FF69462000FFF78A
:1002B00048FF0AB010BDC046594F00008C3E0020D8
:1002C000AC170020F817002070B50A4D2800FFF782
:1002D00028FFFA235B0098420BD9074B1C78002CAF
:1002E00007D121002800FFF723FF21000B2003F096
:1002F000C9FC70BDE4150020E8150020F0B587B0FA
:1003000072B680220023920015498020595C002695
:1003100001910821134D144C2260019C20421CD0F5
:100320000396039C671E0397002CFAD10496049C45
:10033000671E0497002CFAD12A600594059C671E5D
:100340000597002CFAD1013940080029E3D1013387
:10035000032BD9D162B607B0F0BD2A60E6E7C046EC
:1003600000160020144400411844004170B5214D8E
:100370002B78002B04D10121032003F083FC08E03B
:100380001D4C2678002E05D10121032003F07AFCB4
:100390002E7070BD194D2800FFF7C3FE6428F8D9F0
:1003A00023780021013B28002370FFF7C1FE144B86
:1003B0001C78200003F092FC41424141200003F0F0
:1003C00061FC104B1C78200003F088FC4142414145
:1003D000200003F057FC032003F080FC4142414120
:1003E000032003F04FFC0B2003F078FC4142414115
:1003F0000B20C2E780010020820100208401002040
:100400001C0000203100002010B5FFF73FFF6420E2
:1004100001F06EFE00210E2003F034FC10BD000040
:10042000F8B58B4C2178002913D10522894B8A48D5
:100430001A708A4A1268824205DD8948824200DDCC
:1004400084E004221A700123002186482370FFF7FC
:100450006FFE2378002B78D07E4D2E78002E09D1A8
:10046000012B1FD17F4F3800FFF75BFE7E4B984278
:1004700000D97CE02B78012B14D12378012B06D1F5
:10048000784E3000FFF74DFE632800D97AE02378DC
:10049000022B07D1734E3000FFF743FE734B984297
:1004A00000D97BE02F78022F14D12378012B06D1BD
:1004B0006C4E3000FFF735FE632800D979E02378D1
:1004C000022B07D1674E3000FFF72BFE684B984296
:1004D00000D979E02B78032B15D12378012B06D195
:1004E000604E3000FFF71DFE632800D977E02378C7
:1004F000022B08D15B4E3000FFF713FEF423FF33CD
:10050000984200D977E02B78042B13D12378012B64
:1005100006D1544E3000FFF704FE632800D975E081
:100520002378022B06D14F4E3000FFF7FAFD6328E7
:1005300000D977E02B78052B07D14A4D2800FFF72B
:10054000F0FD4B4B984200D977E0F8BD4948824214
:1005500001DC032276E74848824201DC022271E78F
:100560004648824201DC01226CE719706BE7444B7C
:100570003100187803F086FB310038002670FFF751
:10058000D7FD77E73E4B0021187803F07BFB022371
:10059000002130002370FFF7CBFD78E7384B0121B5
:1005A000187803F06FFB002130002170FFF7C0FDC9
:1005B00078E7334B0021187803F064FB002130000A
:1005C0002770FFF7B5FD7AE72D4B0121187803F06E
:1005D00059FB002130002170FFF7AAFD7AE7284B74
:1005E0000021187803F04EFB022300213000237015
:1005F000FFF79EFD7BE7224B0121187803F042FBB9
:10060000002130002170FFF793FD7CE71C4B002197
:10061000187803F037FB0223002130002370FFF726
:1006200087FD7DE7164B0121187803F02BFB002195
:1006300030002170FFF77CFD7CE7114B0121187819
:1006400003F020FB002128002170FFF771FD7CE7FB
:10065000F315002026000020D9020000D41100204C
:100660000B030000D811002087130000CF07000003
:10067000E70300001F0300003D0300009203000099
:100680001C000020F7B5694C2378002B13D1684A71
:100690001370684B1B78012B01D1137005E0022BFE
:1006A000FBD0032BF9D0042BF7D0012300216248A3
:1006B0002370FFF73DFD2378002B59D05C4D2E7839
:1006C000002E07D1012B11D15B4F3800FFF729FD18
:1006D00063284ED82B78012B08D12778012F1CD105
:1006E000554E3000FFF71DFD63284DD82B78019340
:1006F000022B12D12778012F06D14F4E3000FFF781
:1007000010FD4E4B98424AD82378022B05D14A4E11
:100710003000FFF706FD63284ED82B78032B12D14B
:100720002778012F05D1444E3000FFF7FAFC6328EB
:100730004DD82378022B06D13F4E3000FFF7F1FC55
:100740003E4B98424FD82B78042B11D12678012E9E
:1007500005D1394D2800FFF7E4FC63284ED82378F3
:10076000022B05D1344D2800FFF7DBFC632851D85C
:10077000F7BD334B3100187803F084FA31003800AC
:100780002670FFF7D5FCA5E72D4B3900187803F04C
:1007900079FA002130002170FFF7CAFCA6E7284B48
:1007A0003900187803F06EFA6B461B79002130008F
:1007B0002370FFF7BDFCA7E7214B0021187803F059
:1007C00061FA002130002170FFF7B2FCA5E71C4B55
:1007D0003900187803F056FA022300213000237004
:1007E000FFF7A6FCA5E7164B0021187803F04AFA9C
:1007F000002130002170FFF79BFCA4E7104B310073
:10080000187803F03FFA0223002128002370FFF735
:100810008FFCA4E70A4B0021187803F033FA00217B
:1008200028002170FFF784FCA2E7C046CC1100200D
:100830001818002020180020C81100208303000091
:1008400031000020F0B5194F85B0386803F068F921
:10085000174B186064230193164C174E2368174DED
:100860009B0002939B5938680393039A2B689B1A49
:100870002B6003F055F9029B985123689A00905918
:100880002A68013380182860632B0CDC2360642104
:1008900004F024F90A4B1860019B013B0193002BE3
:1008A000DAD105B0F0BD0023F0E7C04628000020F3
:1008B000FC1500201016002014160020141800202B
:1008C000D4110020F7B54648FFF72BFC454B984262
:1008D00004D9454B1B78002B00D17DE0434E444C9E
:1008E00033689D00434BEB580193019A23689B1A90
:1008F0002360414B186803F013F93E4B3D49E85023
:1009000033689A0050582268013380182060632BA6
:1009100060DC3360642104F0E1F8384B384F186034
:100920003B68984200DD3860364B1A68904200DA26
:100930001860354B1B78002B40D0344C344D2000D0
:10094000290001F035FC0A220021200001F097FC6B
:100950002900200001F02CFC0A222E49200001F081
:100960008EFC2900200001F023FC0A2239682000B7
:1009700001F085FC2900200001F01AFC214B0A221D
:100980001968200001F07BFC2900200001F010FC18
:100990001A4B0A221968200001F071FC290020007E
:1009A00001F006FC336813499B00C9580A22200055
:1009B00001F065FC2900200001F0FAFB164B174AF4
:1009C0001B6812689B1A0D4A1268934201DDFFF7FB
:1009D0001BFDF7BD00239CE70422114B1A707DE735
:1009E0001C18002010270000F2150020101600200F
:1009F000141800201416002028000020D411002014
:100A0000EC150020FC150020E01100202C1800201F
:100A1000574F0000FF0300002000002018000020B6
:100A200020180020F8B50600A027114C00212078DE
:100A300003F028F93B00013BFDD10E48310003F0E3
:100A4000ABFA01210500207803F01CF90A4C0B4B8E
:100A5000187803F043F9002802D1013C002CF6D1AC
:100A60002B0603D5642001F043FBDEE72800F8BD28
:100A700024000020041E0020102700002500002074
:100A8000F7B504000D008026019233060ED4019EB6
:100A9000002E2ADD1D48002C21D1210003F07CFA14
:100AA000002D01D028700135013EF1E7184F0021DB
:100AB000387803F0E7F8A023013BFDD1002113486B
:100AC00003F06AFA06000306DFD53878012103F047
:100AD000D9F8104BC046013B002BFBD1D5E721785C
:100AE000671C03F059FA3C00DAE7094B012118783A
:100AF00003F0C8F8074C084B187803F0EFF800280B
:100B000002D1013C002CF6D1F7BDC046041E0020E6
:100B1000240000201027000025000020F8B50D005B
:100B200016001F00FFF77EFF0A4C0B4B187803F0EE
:100B3000D5F8002809D1A023013BFDD128003A00B7
:100B40003100FFF79DFF0120F8BD013C002CECD1E6
:100B50002000F9E71027000025000020F7B50D2040
:100B600003F0BCF803005A1E93412C4C011E237065
:100B700009D12B4B1A78002A05D02A4A1870107018
:100B80002948FFF7D5FA2378002B2AD0244B1A786E
:100B9000002A26D10127244D1F702800FFF7C1FA33
:100BA000204E632818D92800FFF7BBFAFA239B00D0
:100BB000984211D83278002A0ED1022301A90B7075
:100BC00041203B00FFF7AAFF184B1B78002B03D0F6
:100BD0001749184801F0FEFA002128003170FFF78C
:100BE000A7FA2378002B18D10F48FFF79AFA124B77
:100BF000984212D90B490A78002A0ED101234120CC
:100C00000B7001A90B70FFF789FF084B1B78002BB5
:100C100003D00A49074801F0DDFAF7BDF4150020BA
:100C20002D000020F5150020F8150020E01100200F
:100C3000B34F00002C180020B70B0000BB4F000082
:100C400070B5FA24144D80230022290064019120FC
:100C5000FFF764FF2300013BFDD129008023803191
:100C600000229120FFF75AFF2300013BFDD1691CB0
:100C7000FF31802300229120FFF750FF2300013B2A
:100C8000FDD129008131FF31802300229120FFF71F
:100C900045FF013CFDD170BDE111002010B50400FD
:100CA0000100052002F0EEFF2100062002F0EAFF1D
:100CB00010BD000010B5104C2378002B16D00F4B40
:100CC0001A78002A03D000221A70FFF7B9FF0C48E7
:100CD000FFF727FAFA2301219B00984207D90B203E
:100CE00002F0D0FF0023074A2370136010BD0B20D1
:100CF00002F0C8FFFAE7C046E8150020E915002019
:100D0000D01100207401002007B5224B224A23484D
:100D10001A6000225A711A71FFF7FCF92048FFF798
:100D2000F9F92048FFF7F6F91F48FFF7F3F92522F4
:100D30001E491F4803F048F81E48FFF7EBF91E480C
:100D4000FFF7E8F91D48FFF7E5F91D48FFF7E2F95D
:100D50001C48FFF7DFF91C48FFF7DCF91B48FFF7D9
:100D6000D9F91B48FFF7D6F91A48FFF7D3F901F074
:100D7000B9F9194B0C221860012301930233009337
:100D800016490733164801F09BFC1648FFF7C2F9D5
:100D900007BDC046A417002080841E00C411002097
:100DA0007C010020780100206C010020005100002F
:100DB000F81700200C16002004160020F81500205B
:100DC000E4150020D0110020D81100201C180020AC
:100DD000DC110020C811002084010020CC4E00202E
:100DE0008801002010180020F0B50F00150085B014
:100DF00001902C4C200001F0FFFB002803DD2000B7
:100E000001F016FCF5E7FA239B006B4300252E004A
:100E10000093BD4231DA022E2FD02349200001F089
:100E2000C7F90199200001F0C3F92049200001F021
:100E3000BFF9200001F0E6FB01F054F9039003A88C
:100E4000FFF76FF9009B984214D20021032002F0B3
:100E500019FF192001F04CF90121032002F012FFC3
:100E6000192001F045F91249200001F09EFB0028ED
:100E7000E5D002260135EDB2CBE70021032002F0D8
:100E800001FF642001F034F90320012102F0FAFE91
:100E9000642001F02DF9022E01D000F019FB300082
:100EA00005B0F0BD8C3E0020B94E0000BD4E0000E4
:100EB000BF4E000010B50A220221FFF795FF10BDBA
:100EC000452307B501A80380FFF7F4FF07BD000025
:100ED0001FB50922044901A803F029FF01A8FFF763
:100EE000E9FF05B000BDC046C34E00001FB5002895
:100EF00003D0FFF7EDFF05B000BD0922034901A8AB
:100F000003F015FF01A8FFF7D5FFF4E7CC4E000072
:100F10007FB51222044901A803F009FF01A8FFF7D9
:100F2000C9FF07B000BDC046D54E00007FB51122F5
:100F3000044901A803F0FBFE01A8FFF7BBFF07B0BF
:100F400000BDC046A84E00007FB51222044901A88A
:100F500003F0EDFE01A8FFF7ADFF07B000BDC046EE
:100F6000964E000000B589B01922044901A803F08B
:100F7000DEFE01A8FFF79EFF09B000BD4150000052
:100F800013B5FA2400216400032002F07BFE200048
:100F900001F0AEF80121032002F074FE200001F000
:100FA000A7F85A2301A80380FFF784FF13BD0000B0
:100FB00000B589B01D220449684603F0B8FE6846B2
:100FC000FFF778FF09B000BD1C4F000000B58BB0E3
:100FD0002322044901A803F0AAFE01A8FFF76AFF33
:100FE0000BB000BDE74E000007B505220349684677
:100FF00003F09DFE6846FFF75DFF07BD3C50000013
:101000007FB51222044901A803F091FE01A8FFF761
:1010100051FF07B000BDC0460A4F000000B589B0BF
:101020001D220449684603F082FE6846FFF742FF2E
:1010300009B000BD904F000000B589B020220449DE
:10104000684603F074FE6846FFF734FF09B000BD40
:10105000E84F000000B58BB0002803D0FFF7ECFF8D
:101060000BB000BD2122044901A803F060FE01A8D5
:10107000FFF720FFF4E7C0460850000000B58FB02E
:101080003422044901A803F052FE01A8FFF712FF21
:101090000FB000BD5A5000001FB50C22044901A832
:1010A00003F045FE01A8FFF705FF05B000BDC046EF
:1010B000CF4F00001FB5002803D0FFF7EDFF05B0AC
:1010C00000BD0D220349684603F031FE6846FFF774
:1010D000F1FEF4E7DB4F00001FB50A22044901A826
:1010E00003F025FE01A8FFF7E5FE05B000BDC046F0
:1010F000295000001FB5002803D0FFF7EDFF05B011
:1011000000BD0922034901A803F011FE01A8FFF761
:10111000D1FEF4E73350000010B50021032002F0A7
:10112000B1FDFA2000F0E4FF0121032002F0AAFD46
:10113000FA2000F0DDFF0021032002F0A3FDFA20D9
:1011400000F0D6FF0121032002F09CFDFFF7B8FE5E
:101150000020FFF7CBFEFFF739FFFFF7BDFF0120AF
:10116000FFF78CFFFFF768FFFFF74AFFFFF756FF17
:101170000020FFF7BFFF0020FFF76CFFFFF7F2FE34
:10118000FFF716FFFFF7C4FEFFF7D0FEFFF7DCFE08
:10119000FFF7F6FE10BD00001FB5002809D0082299
:1011A000054901A803F0C3FD01A8FFF783FE05B0C0
:1011B00000BD09220149F4E78E500000965000005E
:1011C000F7B504000021032002F05CFDFA2000F0D6
:1011D0008FFF0121032002F055FDFA2000F088FF67
:1011E0000021032002F04EFDFA2000F081FF0121D2
:1011F000032002F047FD00F083F9FFF761FE5D4A2E
:10120000631CDBB213705C4A5C4D0532D3775C4ED5
:10121000012C06D0022C0AD001232B70002333703E
:1012200001E02C7034700020FFF744FF04E000233D
:101230002B703370FFF730FFC827FFF7D5FE7F0014
:101240000021032002F01EFD192000F051FF0121B2
:10125000032002F017FD192000F04AFF49494A48CF
:1012600001F0A3F9002802D1013F002FE8D10021AD
:10127000032002F007FDFA20400000F039FF0121B1
:10128000032002F0FFFCFA20400000F031FF00F0E4
:1012900037F9FFF715FE3078FFF72CFF631E012B9F
:1012A0000DD8FFF7C9FE05223849684603F03FFD17
:1012B000012C08D0022C0BD0FFF762FE3FE000208B
:1012C000FFF7C8FEEFE7FFF7A9FEFFF799FEF3E788
:1012D000C824FFF755FE03261927640000213000BB
:1012E00002F0D0FC380000F003FF0121300002F0D2
:1012F000C9FC380000F0FCFE2249234801F055F9F2
:10130000002802D1013C002CE8D10021032002F08A
:10131000B9FCFA20400000F0EBFE0121032002F0AE
:10132000B1FCFA20400000F0E3FE00F0E9F8FFF71E
:10133000C7FD2878FFF730FF6846FFF7BBFD0021A7
:10134000032002F09FFCFA2000F0D2FE01210320CE
:1013500002F098FCFA2000F0CBFE0021032002F0FE
:1013600091FCFA2000F0C4FE0121032002F08AFC67
:10137000F7BDC04620180020AC1700202C0000202C
:10138000F1150020C54F00008C3E0020CA4F000020
:10139000F8B50F2002F0A2FC431E9841444E454D83
:1013A00037782870444C002F09D139002000FEF70F
:1013B000BFFE39004148FEF7BBFE414B1F702F783E
:1013C000002F4ED0012333702B78002B20D03D4BC3
:1013D0001A78002A1CD13278002A19D00122200064
:1013E0001A70FEF79EFE384B984201D9FFF70CF8B1
:1013F0002000FEF796FE632806D92000FEF791FE36
:10140000FA235B0098423AD900212000FEF790FEB3
:101410002D78002D08D12000FEF783FE2A4B98423C
:1014200002D93378002B2FD12000FEF77AFEF42367
:10143000FF33984214D9224C2378022B02D1012089
:10144000FFF7BEFE2378032B02D10020FFF7B8FE82
:101450002378052B02D10220FFF7B2FE0023237070
:10146000F8BD184B1A78002AAED0390020001F7042
:10147000FEF75EFE39001148FEF75AFEA4E7104A57
:10148000137801331370BFE70C4E3000FEF749FEAE
:101490006328C9D901210D4B03201A7851401970D6
:1014A00002F0F0FB29003000FEF742FEBCE7C04628
:1014B000EA150020091600200C1600200416002052
:1014C000081600200A160020CF0700002E0000207A
:1014D00070B5FA246400FFF75BFF084D01212878FE
:1014E00002F0D0FB200000F003FE2878002102F07B
:1014F000C9FB200000F0FCFDEDE7C04631000020F4
:10150000F7B5234C200001F077F8002803DD200018
:1015100001F08EF8F5E700F0E5FD1E49019020008E
:1015200000F046FE200001F06DF800251A4E01A8DB
:10153000FEF7F7FD194FB04209D8002D09D1390047
:10154000200001F032F80500F1E7FFF7C1FF002DA0
:10155000FBD00A2000F0CCFD3900200000F028FE6E
:10156000200001F04FF8002501A8FEF7DAFDB04297
:1015700007D8002D05D10A49200001F016F8050012
:10158000F2E7192000F0B4FD002DDED00220FEBDF0
:101590008C3E0020AD4F0000C3090000B14F000099
:1015A000BF4E000070B50C4C0C4B20006B215D7FD2
:1015B00002F09AFD0121200002F02DFD8021200083
:1015C000294302F028FD200002F0D2FD96235B01A2
:1015D000013BFDD170BDC0461C1E0020AC17002091
:1015E00073B51025374C23782B420DD0012301A968
:1015F000002249200B70FFF791FA2378AB43237048
:10160000FA239B01013BFDD1012523782B420FD00A
:101610002D4B01A95B7800220B7040202B00FFF7B7
:101620007DFA2378AB432370FA239B01013BFDD164
:10163000402523782B420DD023490B230022113162
:101640005220FFF76BFA2378AB432370FA239B01F8
:10165000013BFDD123789B0612D51B4B01A91B7CB6
:10166000022B2CDD0B70002201235120FFF756FACC
:101670002022237893432370FA239B01013BFDD161
:1016800023787F2B1AD99626002476010F4D6B21E3
:10169000280002F029FDE1B2280002F0BCFC0A4B50
:1016A00028001B19197F02F0B6FC280002F060FD2B
:1016B0003300013BFDD10134082CE7D173BD032376
:1016C000D0E7C04627000020AC1700201C1E0020D9
:1016D000F0B5D74B97B01B78D64E002B04D00C2317
:1016E000D54A1370023B337001210E2002F07EFABE
:1016F00001210E2002F0C6FA0121032002F076FA41
:101700000121032002F0BEFA02210F2002F06EFA3E
:101710000D20022102F06AFA0D2002F0DFFA002803
:1017200002D10123C54A137001210B2002F05EFA99
:1017300000210B2002F0A6FAC149C24801F080F94D
:10174000E121C148890200F03FFFC04ABC49C048BE
:1017500001F062F802210A2002F0D8FA02210C20DE
:1017600002F0D4FABB4C200002F090FC2000BA49F1
:1017700002F0ACFCFEF768FDB84C2378002B43D197
:101780008222250001276270A370E3702371803AE2
:10179000A371E3716372A372E3722373B04961337F
:1017A000627122726373093247331135A37389184A
:1017B000A33B0CA823742770E77303F0B8FA0B223D
:1017C0000CA9280003F0B3FA34232377193B63777D
:1017D0004533A3774F3BE377A133EB73183B2B746F
:1017E000973B6B7448332100AB74252202A8EF7439
:1017F00003F09DFA9B4C2000FEF7AAFC02A92000F2
:10180000FEF79FFCFEF720FD0121052002F0EEF916
:101810000121062002F0EAF90020FFF73FFA924C7E
:101820000125200002F074FB904B200006CB02F053
:1018300097FB8F4C0121207802F0D8F9012111206B
:1018400002F0D4F93078012102F0D0F9307801218A
:1018500002F018FA784B0221187802F0C7F901213A
:10186000207802F00FFA642000F042FC207800217A
:1018700002F008FAFEF7E6FF6B4600221D7069468B
:101880002B004920FFF74AF97A4E7B4B32689A4287
:101890001CDCFA20400000F02BFC2900207802F02C
:1018A000F1F9642000F024FC0021207802F0EAF92C
:1018B000642000F01DFC2900207802F0E3F9642088
:1018C00000F016FC2078002102F0DCF96B4B326846
:1018D0009A4209DC2078012102F0D4F9FA20800034
:1018E00000F006FCFEF790FDFEF79AFDFFF778FE8C
:1018F000554E6421300000F0D6FD504B1B78002B74
:101900002FD0FFF74FFE0023544925220CA80B705F
:1019100003F00DFA534C2000FEF71AFC20000CA92E
:10192000FEF70FFC01210B2002F0ACF9544800F047
:10193000DFFB0124FFF7E4FDFFF7EEFB514D28002C
:10194000FEF7EFFBFA2805D94F48FEF7EAFB4C4BB0
:10195000984260D8FFF71CFDFFF700F9FEF7B2FFD1
:10196000ECE74A4D6B1DDB7F012B45D000F0BAFB45
:10197000019001A8FEF7D5FB454B464C984216D87E
:101980004549300000F011FE012107002078002FAA
:1019900034D002F077F9FA20400000F0A9FB20785B
:1019A000002102F06FF9FA20400000F0A1FB0121B4
:1019B000207802F067F9FA20400000F099FB00213E
:1019C000207802F05FF9FA200535400000F090FB26
:1019D000FFF796FDFFF774FAEB7F032B02D100208F
:1019E000FFF7DAFBFFF774FA05222C490CA803F085
:1019F0009EF90CA8FFF75EFA17B0F0BD02F042F9AD
:101A0000322000F075FB2078390002F03BF93220DB
:101A100000F06EFBADE700212800FEF789FB204BAC
:101A20000B2019786140197002F02CF992E7C0463A
:101A3000F01500202400002025000020E0110020E7
:101A400090D003002C1800208C3E002033040000AE
:101A5000880100201C1E0020801A0600D1170020DB
:101A6000784E0000F8170020041E0020A417002064
:101A70001C000020D4110020CF030000A7020000AA
:101A800010270000DC1100201C180020AC170020DB
:101A90003F1F00003100002000520000CA4F00002C
:101AA0003000002037B58E4908221631684603F011
:101AB0003EF98C4C08226946200000F057FB0021BB
:101AC000200000F0D9FD2121200000F0D5FD864D39
:101AD0002000297800F0D0FD6978200000F0CCFDCE
:101AE000A978200000F0C8FDE978200000F0C4FDCE
:101AF0003621200000F0C0FD1921200000F0BCFDBF
:101B00000C21200000F0B8FD1221200000F0B4FDEF
:101B10000021200000F0B0FD0021200000F0ACFD0D
:101B20000021200000F0A8FDFF21200000F0A4FD0E
:101B30000021200000F0A0FD0021200000F09CFD0D
:101B4000D721200000F098FD5121200000F094FDE5
:101B500012226649200000F009FB27226449200078
:101B600000F004FB192500212000013D00F084FD58
:101B7000002DF8D1403500212000013D00F07CFD12
:101B8000002DF8D12900200000F076FD0121200071
:101B900000F072FD8021200000F06EFD2900200081
:101BA00000F06AFD2900200000F066FD29002000F9
:101BB00000F062FD8021200000F05EFD0821200081
:101BC00000F05AFD0821200000F056FD08212000F9
:101BD00000F052FD8021200000F04EFD2900200081
:101BE00000F04AFD2900200000F046FD29002000F9
:101BF00000F042FD2900200000F03EFD29002000F9
:101C000000F03AFD2900200000F036FD29002000F8
:101C100000F032FD2900200000F02EFD29002000F8
:101C200000F02AFD2900200000F026FD29002000F8
:101C300000F022FD2900200000F01EFD29002000F8
:101C400000F01AFD2900200000F016FD29002000F8
:101C500000F012FD2900200000F00EFD29002000F8
:101C600000F00AFD2900200000F006FD29002000F8
:101C700000F002FD2900200000F0FEFC29002000F9
:101C800000F0FAFC2900200000F0F6FC29002000FA
:101C900000F0F2FC2900200000F0EEFC29002000FA
:101CA00000F0EAFC2900200000F0E6FC29002000FA
:101CB00000F0E2FC2900200000F0DEFC29002000FA
:101CC00000F0DAFC0F21200000F0D6FC1A350021CC
:101CD0002000013D00F0D0FC002DF8D137BDC046FA
:101CE000784E00008C3E00201200002000000020F2
:101CF000684F0000F0B5B34B8FB01B78002B0CD0B1
:101D0000B14C200000F078FC042806DDAF4920002B
:101D100000F04BFC002800D026E10FB0F0BD0622F9
:101D200005A9200000F0C1FBA94B1B78002BF4D1C2
:101D3000A027A84D3B00013BFDD1200000F05CFC3A
:101D4000A54EB04202DC013D002DF3D1200000F091
:101D500053FCB042E1DD8023A04D9B00EF1800262C
:101D6000200000F065FCA8550136802EF8D18035A2
:101D7000BD42F4D101210B2001F084FFFEF760FF8A
:101D8000CBE7A026964D200000F036FC012805DCAC
:101D90003300013BFDD1013D002DF4D105AD012201
:101DA0002900200000F081FB2878062835D802F0B1
:101DB00001FE044034648D34B600A027884E200014
:101DC00000F01AFC222805DC3B00013BFDD1013E5E
:101DD000002EF4D123222900200000F066FB814868
:101DE000EA7B037C934205D020237F4902740C7860
:101DF00023430B701130040001000B2209A802F0EC
:101E000087FF002809D04023774A200011780B4330
:101E1000137009A90B2202F08AFF744A1378002B71
:101E200004D1704B0533D97F714B197001231370A6
:101E300073E7A0266A4D200000F0DEFB152805DCC4
:101E40003300013BFDD1013D002DF4D1122269493F
:101E5000200000F02AFB200000F0EAFB664D28700D
:101E6000200000F0E5FB6870200000F0E1FBA870A6
:101E7000200000F0DDFBE870CFE7A026584D2000E1
:101E800000F0BAFB012805DC3300013BFDD1013D28
:101E9000002DF4D1200000F0CBFBC5B2012D06D0FF
:101EA000022D04D000215548FEF742F909E0052033
:101EB00000F01EF903A90123002241200D70FEF756
:101EC0002DFE4F49200000F085F9A6E74D4B1D7807
:101ED000002DF6D10122290048481A70FEF728F992
:101EE0006422494B494E1A70494B3570187801F0FD
:101EF000F5FE484B0500187801F0F0FEED0080007B
:101F00000543032001F0EAFE07000B2001F0E6FE86
:101F10007F00054330783D4305433570D1E7A02667
:101F20002F4D200000F068FB012805DC3300013B49
:101F3000FDD1013D002DF4D103A90622200000F0BF
:101F4000B4FA00212D48FEF7F3F866E7324C334926
:101F5000200000F02DF969782B78090219430A2234
:101F6000200000F08CF9D8E6052201A9200000F03D
:101F70009CFA6B465D1D6B782A781B021343C822BE
:101F80009201934200D1FCE6A022D201934200D1FB
:101F9000C5E6802292019342D8D1A026104D2000A0
:101FA00000F02AFB012805DC3300013BFDD1013D97
:101FB000002DF4D1022205A9200000F076FAFFF7E7
:101FC00071FDAAE62F0000208C3E0020394F000052
:101FD000E815002010270000FF010000E11100209B
:101FE00088130000AC17002027000020F215002005
:101FF0002018002000000020120000208401002092
:10200000C04E0000800100208201002081010020DC
:102010001C000020310000202C180020414F00003F
:1020200010B5FFF7B5F9FEF7A1F9FEF797FDFEF73A
:1020300065F9FEF73FFEFEF747F9FEF723FBFEF7D3
:1020400041FCFEF7EDF9FFF7CBFA022000F050F863
:10205000FFF750FE022000F04BF810BD03BEFEE774
:10206000034B10B51B68002B00D0984710BDC0462D
:102070002418002070B50F490F4CA14204D100F084
:102080004DF900F051F8FEE70C4D00238D42F6D0DB
:10209000CA18E818A24205D39042F0D0084B09496B
:1020A000002204E0006804331060F1E704C38B42AF
:1020B000FCD3E4E70000002050010020705700002E
:1020C00050010020FC4E002010B500F02AF8002836
:1020D00001D100F01BF810BD014B18607047C046DD
:1020E00024180020014B18687047C04628180020AB
:1020F00070B5041E07D0044D2E6800F011F82B684F
:102100009B1B9C42F9D870BD2818002010B5034ACB
:1021100013680133136000F0C5F810BD28180020C3
:10212000704700207047704710B501F045FC02F081
:10213000C1FDFFF7F8FF0120FFF7DAFF084C200090
:1021400000F0B0FE200000F025FFFFF7C1FAFFF716
:1021500067FF044B002BFAD000E000BFF7E7C04652
:10216000481800200000000000207047F7B5060066
:102170000D000C008B180193019B671B9C4207D03C
:10218000336821781B683000984701340028F3D168
:102190003800FEBD70B505000C00081E07D002F027
:1021A00047FE2B6802005B6821002800984770BD3D
:1021B00010B5FFF7EFFF10BD10B503681B68984717
:1021C00010BD000010B50249FFF7E4FF10BDC04686
:1021D0000852000070B50400FFF7DCFF0500200086
:1021E000FFF7F0FF401970BDF0B5160000228DB06A
:1021F00002AB053301900D00DA77012E00DC0A26D0
:102200000BAC2800310002F065FC0F00CBB22800B7
:102210003100009302F0D8FBFBB237330500013CDC
:10222000DBB2092F02D8009B3033DBB22370002DC4
:10223000E7D121000198FFF7ADFF0DB0F0BDF8B573
:1022400006000C00151E04D10368C9B21B6898472C
:10225000F8BDD2B20A2D0DD12A0000290ADA2D21AB
:10226000FFF7AAFF614207002A003000FFF7BCFF1A
:102270003818EDE721003000FFF7B6FFE8E710B5AA
:10228000FFF7DDFF10BD0000014B18607047C0462E
:10229000340000200122024B52421A607047C046AF
:1022A00034000020164A10B51368591C27D0013B92
:1022B0001360002B23D172B6124B134A043393429E
:1022C00008D8BFF34F8F114A114BDA60BFF34F8F1D
:1022D000C046FDE70F4A01211000147D0C42FCD0DE
:1022E0002021148BFF319B085B0021431183D361B4
:1022F000094B13800123027D1A42FCD0E1E710BD97
:102300003400002000000000030200000400FA0571
:1023100000ED00E00040004102A5FFFF1E2270B565
:1023200046484749436893431C3A13434360082394
:102330008C6923438B61434C434B9C829C8A14439E
:102340009C82DC681442FCD00124404A1470157849
:10235000254203D055786DB2002DF8DB012494603E
:10236000547864B2002CFBDB394C5460547864B26E
:10237000002CFBDB8224E4015480547864B2002CEE
:10238000FBDB02249C840E34DD682542FCD0314CFA
:10239000DC621024DD682542FCD09D8C2E4C2C4341
:1023A0009C841024DD682542FCD002249D8C80266C
:1023B0002C439C844024DD683542FCD0DD682542F6
:1023C000F9D01024DD682542FCD0002494605478B4
:1023D00064B2002CFBDB214C5460547864B2002CB6
:1023E000FBDB1C6A1E4D2C4080251C621C6AAC4322
:1023F0001C62032393601B4B536053785BB2002B2A
:10240000FBDB0023FF240B72174A4B728B72CB72DB
:10241000164B1A60164B174A1B6811689A065B0127
:10242000C90E2340520F12020B431343124A138565
:10243000802342681343436070BDC04600400041A2
:10244000000400400C06000000080040000C0040A2
:1024500001050100B905FF7D040A00000007030023
:10246000FFFCFFFF03060100006CDC02B40000204B
:1024700024608000206080000040004210B504000D
:10248000FFF730FEE060236820005B699847002872
:1024900008DAFFF727FEE368C01AA3689842F2D370
:1024A0000120404210BD81607047F7B50E000C005E
:1024B00001908D18A71BAC4207D00198FFF7DEFFF3
:1024C000002802DB20700134F4E73800FEBD000074
:1024D000F0B50C2387B003900C0008005A438B180A
:1024E0000193019B98420AD24368002B05D1001B3F
:1024F000224C8010604307B0F0BD0C30F1E7039828
:10250000FFF7BCFF071E36DB2000019B9842F6D286
:1025100006688268B35C9F4208D1436801328260DA
:102520009A4210D1041BA4101448E3E7002A0AD0F1
:1025300083680293013B8360F15C8F4218D1002BCA
:1025400003D1013383600C30DFE70021D51A751900
:102550000495755CAC46049D6D5C0595059DAC4588
:1025600002D101318B42F4D88B42E1D1029BE9E7E1
:10257000002BDDD1E7E701204042BCE7ABAAAAAAC5
:102580007FB504000E00150000210C2201A802F006
:10259000D7FB012201A9200001960295FFF798FFC1
:1025A00043425841C0B204B070BD70B50500080088
:1025B0000C0002F03DFC210002002800FFF7E0FFC4
:1025C00070BD01207047000010B50368014A1B6A06
:1025D000984710BD1304000010B50400006901F015
:1025E00071FF2000143001F0E3FE024BE01801F00F
:1025F000DFFE10BD1C08000010B5143001F0F6FE1F
:1026000010BD000010B50400044BE01801F0EEFE10
:102610000028F9D1206901F06AFF10BD1C080000F4
:1026200010B5024BC01801F0EFFE10BD1C080000F1
:1026300070B5050004001435280001F0C3FE084BF6
:102640000600E35CFF2B09D0280001F0DDFE0A281C
:1026500004DD044B044AE358A2581A60300070BDF0
:1026600028100000301000003410000010B51430A5
:1026700001F0DCFE10BD000070B5040000690E0022
:1026800001F051FF0D4BE518002804D0280001F09F
:10269000ADFE00280DD0280001F0D6FE0028FAD1AA
:1026A0002800310001F074FE206901F04DFF012087
:1026B00070BD3100206901F03FFFF8E71C08000001
:1026C000F7B51D0008AB1B780400009309AB1B781D
:1026D0001600019300234360FA239B0083600F4B95
:1026E0000F0008330360143001F042FE0C4BE01879
:1026F00001F03EFE6A460B4B2761E6540A4B127806
:10270000E5540A4B2000E2546A46094B1279E25420
:10271000FF23084AA354084AA354FEBD0C520000EC
:102720001C080000241000002510000026100000E6
:1027300027100000281000003810000070B50400B9
:10274000006901F0E0FE002816D02500206901F0A4
:10275000EFFE14350100280001F01AFE184BE35C6F
:10276000FF2B09D0280001F04FFE092804DC154B8F
:10277000154AE358A2581A60206901F0D4FE0028D7
:102780000DD0124BE518280001F030FE002812D0C1
:10279000280001F017FEC1B2206901F0CDFE2069CA
:1027A00001F0B6FE002805D0206901F0B5FE2069D1
:1027B00001F0A5FE70BD206901F0CCFEEFE7C04638
:1027C000281000002C100000341000001C0800002D
:1027D000F02001403039484248417047F0231B0146
:1027E0001940802306209B0099420AD00133FF3311
:1027F0000130994205D0802302385B00994200D015
:10280000002070470F2001400020012903D0023929
:10281000481E8141481C7047F0B5182685B0334BDF
:1028200002910400C05C330008214343304D17007F
:10283000EB18595601F06AFA2E4B0821E05C330080
:102840004343EB18595601F061FA2B4BE25C0393BA
:10285000022A09D1294BE05CFF2805D00821464314
:10286000AE19715601F052FA254EA05DFF2816D020
:10287000012101F0BBF91822A35D22495A43AB564E
:10288000AD180122DB0158181F4960501F495B1821
:102890001F49635069688A401E4962501A600122CC
:1028A000029B1100206901F0BFFF39002000FFF7F3
:1028B00095FF390005002000FFF7A4FF390006004E
:1028C0002000FFF785FF33000090290020690122D6
:1028D00001F0CCFD104B2069E25C039BE15C01F050
:1028E000DFFD206901F0FAFD05B0F0BD2410000005
:1028F000EC520000251000002710000038100000E6
:1029000028100000184400412C100000144400411D
:102910003010000034100000261000003F207047E7
:1029200013B56B460268D971073354681900012248
:10293000A04716BD10B50221006900F02DFC10BDA6
:1029400010B50321006900F03DFC10BD10B5130067
:1029500004000A000069032100F02EFD002801D1C7
:102960000123636010BD000010B5054C23685A1C9C
:1029700004D103685B69984703002060180010BD0C
:1029800088000020074B0200186810B5411C03D0D6
:10299000012252421A6010BD0221106900F0FEFCB3
:1029A000F9E7C0468800002010B5037842220233C0
:1029B00003700249024800F0ABFD10BD4400002046
:1029C0004818002010B50178030042780020A129A2
:1029D00008D1212A05D11A3A1649174800F098FD66
:1029E000012010BD2129FCD1202A11D1193A114909
:1029F000114800F02BFC96220E4BD2001968914230
:102A000003D10124D87904400ED0FFF743FC0EE037
:102A1000222A03D19A78074BDA71ECE7232AE0D116
:102A20005A88064B1A60DCE7FA20FFF72DFC0020DD
:102A3000D7E7C0463C00002048180020380000209E
:102A400070470000FA220021054B92009A60054A67
:102A5000596008321A60044A19761A617047C046F4
:102A60002C180020405200004818002030B50F25D7
:102A7000CB1D013902002A40140000093034092A14
:102A800001DD373214001C70013B8B42F2D130BDA6
:102A900070B5C026C1B21B4C4B01E3189A681A4DA1
:102AA000B6052A4032439A60184A800110180A007D
:102AB00058600720246808325201115D81430800E4
:102AC00001210143702011559969294031439961D1
:102AD0000F495961115D81430800102101431155CF
:102AE00099680C48A2180840802149030143996065
:102AF0009968890B89039960402351790B4353717D
:102B000070BDC046001D0020FFFFFF8F341A00205B
:102B100074180020FF3F00F070B50400012320CCA2
:102B200000212A782000134380222B70520002F0EB
:102B300007F9AB78DB07FCD46C6270BD1F22144B25
:102B400070B51B68590B9C0C9B0111405B0F224018
:102B50001F2900D11A391F2A00D1023A072B00D1B0
:102B6000043B1F2500688E01048D0A492A4021403C
:102B700031430185018D14000A00AA4322430285D6
:102B8000028D1903044B13400B43038570BDC046EF
:102B9000246080003FF8FFFFFF8FFFFFEFF31083FB
:102BA00003600123436072B670470368002B02D1B3
:102BB00062B6BFF36F8F704737B50569040068468A
:102BC000002D14D1FFF7EAFF019B621D013B02D3E8
:102BD000D57FEDB2FAE768460193FFF7E6FF002DD7
:102BE00001D100203EBD206AE369C01AFAE7FFF771
:102BF000D5FF22000025019B3432013B02D315781A
:102C0000EDB2FAE768460193FFF7CFFF002DE8D059
:102C1000206BE36AE9E70000F0B501254668037A16
:102C200031685A018C18FF34A77AB2183D43A57257
:102C3000C468094D9068A40428402409204390608A
:102C400090680833800B8003906040225B01CB18B2
:102C500019790A431A71F0BDFF3F00F0F7B5036917
:102C600004000E0017006846002B3DD1FFF796FFC9
:102C7000019B611D013B5A1C0CD0CD7F5A1EEDB249
:102C8000002D05D168460193FFF78FFF2800FEBD98
:102C90001300F0E7684601930025FFF786FFE3691C
:102CA000AF4202D0226A934257D3226A9342EDD1B7
:102CB0000023E361013323616846FFF76FFF2200C1
:102CC0000021019B671D013B3532581CDAD0F97792
:102CD00010785E1E002805D0117020000193FFF7C8
:102CE0009BFFECE73300F0E7FFF758FF2100019B63
:102CF0003431013B5A1C06D00D785A1EEDB2002D1E
:102D0000C0D01300F6E7684601930025FFF74DFF9A
:102D1000E36ABD4202D0226B934226D3226B9342D8
:102D2000B4D100236846E3622361FFF737FF270031
:102D300022000021019B3437013B3532581CA1D0C1
:102D4000397010785E1E002805D0117020000193A4
:102D5000FFF762FFEBE73300F0E75A1CE261A2697C
:102D6000D3181B787355013599E75A1CE262A26AA1
:102D7000D3181B7873550135CAE7F7B5027A436853
:102D8000110004000831186849014118C879C007CA
:102D900027D501255201CD719B189A68616992046B
:102DA000920C002921D12262226A002A3ED0A26A16
:102DB000656168465A60FFF7F1FE27002100019B1C
:102DC000661D013B343735315A1C2BD0F5773A78E4
:102DD000581ED2B2002A05D0019368460D70FFF745
:102DE000E4FEF7BD0A700300EEE72263226B002ABF
:102DF0001CD000226261A26968465A60FFF7CEFECD
:102E000026002100019B3436013B671D35315A1CD9
:102E100008D03570FA7F581ED2B2002ADCD10A7071
:102E20000300F4E768460193FFF7BFFE2000FFF7B9
:102E3000F3FED6E737B56B46DC1D00230D002000FE
:102E40002370FFF7B1FD2B681818286001F0A0FD72
:102E5000210001F059FD2B681818286020783EBD2C
:102E600003290ED180220E4B62311B68FF31585C62
:102E7000524202435A5468226339FF39FF3299544F
:102E800070470129FCD18022054B24311B68FF319A
:102E9000585C524202435A542339FF392822EDE745
:102EA000001D002070B500252F4B012104001A20C1
:102EB0001D7000F09BFE01211A2000F0E3FE2B4B59
:102EC000012119201D7000F091FE0121192000F050
:102ED000D9FE2023264A0F20D1690B43D36101225A
:102EE00024490B7813430B70234B197881431970D5
:102EF00006211D782943197020490D782A430A704C
:102F00001A7802401A70602219780A431A701C4B12
:102F10001C4A5A805A78D209FCD11B48FFF7DCF8CA
:102F20001A4D2800FFF7F8FD2800FFF707FE7F2164
:102F30002B68C1201A7880000A401A700422197880
:102F40000A430C211A701A898A4311491A810A58B6
:102F50001202120A0A5080220A6019787E3A0A4345
:102F60001A700123237070BD6918002068180020B2
:102F700000040040584400413C4400415944004191
:102F8000000C00400640000099390000001D0020A0
:102F900000E100E00078002810D00121084B1B68F8
:102FA0001A898A431A810822198B0A431A83042238
:102FB000198B0A431A830022024B1A607047C046DD
:102FC000001D0020F81C002010B50F4A93699B0BD0
:102FD0009B03936113680222FF331A729879823A35
:102FE00002439A711A7A9207FCD57F24074A21403E
:102FF000937A0800A3431900802301439172917AC8
:103000005B420B43937210BD001D00200050004135
:1030100010B50B790C00002B0CD10800FFF7D2FC87
:10302000002801D0012010BD094A93699B0B9B0326
:103030009361F7E701F0ACFC210001F098FC002857
:10304000F0D1034A93699B0B9B039361EBE7C04666
:10305000001D0020F7B50D00832A19D1CBB2404CDA
:103060005A01A21891693F48AD010840C021890565
:10307000014391613C4920684D1970210833556125
:103080005B011A5C8A43110040220A431A54F7BDBF
:10309000022A3DD1382001F067F9344B80270360C4
:1030A00000232F4E7F00421D036203614361C36111
:1030B00046608560C760D3772F32C3620363040024
:1030C00013703800537001F019FE0190A0613800B0
:1030D00001F014FEEBB25A01A062B21891682148C7
:1030E00008330840C02189050143916030680726F4
:1030F0005B01195CAD00B1430E000321314319544B
:10310000019B20005360FFF787FD194BEC50BEE791
:10311000822A1FD1CBB2124C5A01A21891691148D0
:10312000AD010840C0218905014391610E49083372
:103130004D198021556122685B01D01804794942FC
:10314000214301717020995C8143080030210143C3
:1031500099549CE7002A9AD10800FFF799FC96E75A
:10316000001D0020FFFFFF8F741800206C5200002C
:103170004C18002070B505000124064BA200D2585F
:10318000002A05D021002800FFF764FF0134F4E78E
:1031900070BDC0468C000020084B8A00D05810B586
:1031A000002803D003689B68984710BDC9B2044B40
:1031B0004901591888688004800CF6E74C180020F3
:1031C000001D002010B50C00FFF7E6FF00280CD012
:1031D000064BE4B21B68083464011C198023627931
:1031E0005B42134363710223E37110BD001D002095
:1031F00070B5134BCCB2134A6001890159181318EA
:1032000059609968104D08340D4080218902294386
:10321000402599609968890B890399601168630159
:10322000CB181E7935431D719D796D06FCD564015F
:103230000919CB79DB07FCD512189068C0B270BDB4
:10324000341A0020001D0020FF3F00F070B514006C
:1032500040220B4B0D001B68FF3359790A435A710A
:103260000021FFF7C5FFA04200D920000023054937
:10327000A34203D05A5CEA540133F9E770BDC0465B
:10328000001D0020341A002010B5C9B20B484901B6
:10329000421893689B049B0C3F2B0BDD9468403BCA
:1032A0009B04A40B9B0CA4032343936041188868E0
:1032B000C0B210BD93689B0B9B03F6E7001D002076
:1032C000F0B51C00304B85B01B6806000D00019264
:1032D000002B55D02D4F3978C9B2002902D11920C1
:1032E00000F0D0FC64233B70294BAA00D058002882
:1032F00008D0036822005B68019998470400200009
:1033000005B0F0BD29003000FFF746FF844204D924
:1033100029003000FFF740FF040029003000FFF7CC
:10332000B3FF0121EBB21B4F03935B010293029A9F
:103330003B6801989B18FF335A7A0A4316495A7220
:10334000AB01C918220001F0F2FC002CD7D02900F3
:103350003000FFF721FF0028D1D14021039B3A68BC
:1033600008335B01D3181879014319710121D97110
:103370000121029BD318FF339A7A0A439A72BEE75F
:1033800001246442BBE7C046F81C002068180020F6
:103390004C180020001D0020341A002013B56B4685
:1033A000DC1D22000123FFF78BFF012801D12078CB
:1033B00016BD01204042FBE7F0B51E003A4B85B038
:1033C0001B680F000192002B3FD08023DB019E423F
:1033D0003BD8364C2178C9B2002902D11A2000F01E
:1033E00051FC64230025324A2370BB01D318029399
:1033F000002E2CD02F4B1B680393FF233B401C0057
:1034000000930834039B64011C19A379DB0921D0C4
:10341000294B2A49186801F0D7FA294B172158433C
:1034200001F0D2FA274BE279920713D4DA5D002A31
:1034300001D10138F7D20122DA55009B5A011D4B08
:103440009B189A69920B92039A6101256D4228009C
:1034500005B0F0BD00221B4B3400DA553F2E00D9D9
:103460003F2422000199029801F061FC009BA10415
:103470005A01104B890C9B18029A2D195A619A69AE
:10348000361B920B92030A439A61009B039A0833FE
:103490005B01D3180222DA715979823A0A435A71D0
:1034A000019B1B190193A3E7F81C00206918002059
:1034B00074180020001D0020B400002040420F00BE
:1034C000701101006B18002070B50D001C000D4E2E
:1034D000AB01F61811003000220001F028FCEDB21B
:1034E00009496D014D196E61AB69084A200013400E
:1034F000AB61AB69A2049B0B920C9B031343AB61C2
:1035000070BDC04674180020001D0020FF3F00F071
:10351000F7B5104B01901B780F001500002B0CD154
:103520000D4B16001C78002C09D00C4E0C4834882A
:103530000019641901F0FBFB34802800FEBD002E49
:10354000FBD03A19330000210198FFF7BDFF241882
:10355000361AF4E7F41B0020F51C0020F61C0020AE
:10356000F51B0020F8B5002000AF0E001500012A61
:1035700026DDD31D6A46DB08DB00D31A9D46080012
:1035800001F056FC6C4603230021013040002070FE
:1035900063705A1ED2B295420BDD3078002808D0F5
:1035A0000136A0549D4203D0E1540233DBB2F0E770
:1035B0002A0021000348FFF7ABFF431E9841C0B229
:1035C000BD46F8BD48180020F0B50027012687B099
:1035D0001E4B009102A91E7005000297FFF72AFCFE
:1035E00003AC019009223900200001F0A9FB092356
:1035F0002370022363709E33E3715A332372029B5C
:103600006671093363806B461B7923710F4B1F7002
:10361000009B092B07D11A0021002800FFF778FF33
:10362000012007B0F0BD0A4B09221E70094E21008F
:10363000280002973780FFF76BFF02A92800FFF7E9
:10364000F9FB034B32881F700349E6E7F41B0020A7
:10365000F51C0020F61C0020F51B002070B5CE786C
:1036600092B005000C00022E08D1C9882B48FFF744
:10367000ABFF431E9841C0B212B070BD01F088F993
:10368000210001F055F9002803D0C317181AC00F04
:10369000F2E7012E0BD1E2882149112A10DCD2B2C7
:1036A000002A0DD02800FFF733FF0120E4E7032EA6
:1036B000E2D1A378002B05D1E2881A49032AEEDD76
:1036C0000A78EFE7022B05D1A27917492800FFF706
:1036D00049FFD1E7012B02D1A2791449F6E7032B68
:1036E000CAD1134B01A91868FFF7C0F9114B03A900
:1036F0001868FFF7BBF9104B05A91868FFF7B6F972
:103700000E4B07A91868FFF7B1F901F041F909A9B3
:1037100001F01EF9A27901A9D8E7C0464818002097
:103720009652000086520000785200008A52000033
:103730000CA0800040A0800044A0800048A0800031
:1037400073B5060048780D000B2811D801F032F946
:10375000061D102E104348704C4F696C097801AA61
:10376000002907D10223117051703000FFF7ACFE21
:10377000012076BD0023137053702E4B1B78012B54
:1037800000D1137002230021EFE78A780023012A79
:1037900004D101AA13705370274BEFE7254A137029
:1037A000264A93699B0B9B039361E1E78C78012C7C
:1037B00006D10021204B01AA1C7011702300D4E710
:1037C000002C08D101201B4B1C4A187093699B0BDD
:1037D0009B039361CDE7A9783000FFF7F5FBC7E7BE
:1037E0003000FFF73BFFC4E70123154ACBE70B7816
:1037F0000020DB06BDD13000FFF7BCFC2A200221EF
:10380000AA780F4BFF301A600C4A13681C5C2143E6
:103810004A241954FF34195D2938FF3801431955DA
:10382000D4E70123074AAEE78A78064B1A60B7E768
:1038300000209EE76A18002072180020001D00205A
:10384000F81C0020FC1C00204B4BF7B51C7807002F
:10385000002C7CD1494E33689B8B1B070DD5200073
:10386000FFF716F9326810231100FF31887A0343FD
:103870008B72434B1C600823938333689A8B5207E7
:103880001FD504229A833F4A1378002B0AD013785D
:10389000013BDBB213701378002B03D101211A20F6
:1038A00000F0F0F9384A1378002B0AD01378013B66
:1038B000DBB213701378002B03D10121192000F023
:1038C000E1F93368FF331A7AD20620D510221A7232
:1038D000597930320A435A7160232C4938000A78EA
:1038E0001A4235D1FFF72CFF002834D080223368EC
:1038F0005242FF3399790A439A713368FF331A7A37
:10390000520604D540221A72597A0A435A72336811
:1039100000251C8C01239C43E4B20193E9B2002CE6
:1039200015D023002B41019A13420DD02B00326891
:1039300008335B01D318DA79D20713D4DB799B07FC
:1039400010D4019BAB409C430135092DE6D1F7BD56
:10395000FFF75EFBC8E720220D4BCDE703681B682D
:103960009847EEE70B4BAA00D0580028F6D1380054
:10397000FFF776FAE5E7C046F51C0020001D0020A1
:10398000F81C00206918002068180020341A002054
:10399000FF5000414C18002010B50248FFF754FFBB
:1039A00010BDC04648180020014A024B1A607047FB
:1039B00000500041001D0020FA21314B10B518685D
:1039C000890001F001F82F4B0138984256D82E4952
:1039D0002E4A4860C020136A00061B021B0A0343DC
:1039E0001362002407238C600B608021136A090690
:1039F0001B021B0A0B431362FC22254B196A0A4364
:103A00001A62FC22196A92010A431A62A022196AF8
:103A1000D2020A431A6220000021013400F0E6F8C5
:103A2000142CF8D11B4B1C005A7852B2002AFBDB35
:103A3000194A5A80194B1A00597EC9090129FBD02D
:103A4000E421C90099803F21D970537EDB09012B05
:103A5000FBD0C02300205B011361907000F02EF8B2
:103A600063785BB2002BFBDB0D4B0E4A6380D3798E
:103A7000DB09012BFBD04123537010BDFEE7C0468C
:103A8000B4000020FFFFFF0010E000E000ED00E0C8
:103A900000040040000C00401E40000000400042B6
:103AA0002140000000480042914202D002D98A1A07
:103AB000D0407047521A9040FBE70000164A00B50C
:103AC0001300517EC9090129FBD00138042816D8FA
:103AD0001969124A0A400F211A615A788A4300F084
:103AE00069FF0308060B0300110001220A435A7004
:103AF00000BD11000322F9E711000222F6E7F023CE
:103B000011691B050B430F21136153788B43190077
:103B100002230B435370EBE700400042FFFFFFF02E
:103B200010B504000D2800D80E340121200000F04B
:103B3000EDF80E2C0DD1284B1900DA79D209012AA3
:103B4000FBD002201A7882431A70CB79DB09012B53
:103B5000FBD022490B004A7ED209012AFBD0182251
:103B600062431F4CA418207C1F240A692040A243F2
:103B700002430A615A7ED209012AFBD00222197837
:103B80000A431A705A7ED209012AFBD00222197BFD
:103B90000A431A7301221A765A7ED209012AFBD0EF
:103BA0000222197B0A431A731A7ED207FCD5588B5E
:103BB00080B25A7ED209012AFBD002211A788A43A8
:103BC0001A705A7ED209012AFBD0064B1A68064B9E
:103BD0001968FFF769FF10BD00480042004000422D
:103BE000EC520000BC000020B8000020182330B5C3
:103BF0001D00040045430820204A5519285601306D
:103C000014D0032912D808006343D156D31800F00A
:103C1000D1FE02280E1B5868CB010221184A9B18BE
:103C20001A1840321170012282405A6030BD586823
:103C3000CB010621124A9B181A184032117001223A
:103C400082405A609A61F1E75868CB0106210C4A1C
:103C50009B181A1840321170012282405A605A6132
:103C6000E4E75868CB010221054A9B181A18403234
:103C70001170012282409A60D8E7C046EC520000E1
:103C8000004400411823F0B508245843114A131882
:103C90001C5701341BD0012635005F688356BD4098
:103CA0000D4ADB019A18906828420BD10C00601E67
:103CB0008441D2194032107834400336A400B04316
:103CC00020431070044A9B18002901D15D61F0BDAA
:103CD0009D61FCE7EC52000000440041182310B540
:103CE00008245843074900230A181457013406D002
:103CF00043560549DB015B181B6A5268D34001201B
:103D0000184010BDEC52000000440041F8B503001B
:103D1000182058432A4A1018007A40B20400013093
:103D200013D0481C00240C280FD800F043FE451C7B
:103D30001C1C1C1C1C1C1C0707070700092906D19A
:103D400000211800FFF752FF00242000F8BD0A29C7
:103D500001D10839F5E700240B29F6D10A391800FA
:103D6000FFF744FFF1E718204343D01846680125C8
:103D70003400D2561348D20112187308D3183033C6
:103D80002C401878002C0BD00F240901204001434F
:103D9000C9B292191970403213781D431570D3E7D8
:103DA0000F27B84301439219C9B219701300403369
:103DB0001A7815431D70C8E701246442C5E7C04660
:103DC000EC5200000044004130B5094D094CAB688D
:103DD0005B035B0F9B001C590460AB6801619BB2E5
:103DE00043606343A4008360C460426130BDC04649
:103DF00000400041A8520000F7B580261A4D033359
:103E00006F689B083E436E600191002B2BD0174ECC
:103E10002E802E7DF107FCD51E0001689F1B8908AE
:103E20008F4219D2002E17D0FF2117788C433C43C4
:103E30000F4957780C403F023C439778013E3904C4
:103E40000C4F2740D478BFB20F43240601993C435E
:103E500010C101910432E0E7074B2B802B7DDB077B
:103E6000FCD53300D1E7F7BD0040004144A5FFFF7A
:103E7000FF00FFFFFFFF00FF04A5FFFF044B054A03
:103E80004908D9611A801A7DD207FCD57047C0460F
:103E90000040004102A5FFFF70B5050016000C00B0
:103EA000EB68210028009E4205D9FFF7E7FFEB6889
:103EB000E418F61AF4E7FFF7E1FF70BD10B5100043
:103EC0001A0000F034FF10BD437A002B04D1837236
:103ED000C372C36001334372704730B5040085B0CC
:103EE00002AD00680291039200F063FB6B79227AC5
:103EF000E17900932068002300F0C8FC2979029A38
:103F0000206800F02BFB206800F04AFB05B030BDB4
:103F100070B518260400FFF7D7FF33000821207979
:103F20000D4D4343EB185956FFF7F0FE33000821BF
:103F3000A0794343EB185956FFF7E8FE0821607952
:103F40004643AD196956FFF7E1FE044B200006CB4E
:103F5000FFF7C3FF70BDC046EC520000141E0020E6
:103F600007B5837A00910192002B07D09A070AD5F2
:103F7000EFF3108253425341C37272B60099019A13
:103F8000FFF7ABFF07BDDB07F8D58389014A9360D4
:103F9000F4E7C0460018004010B5006800F012FBBE
:103FA00010BD0000094B0A4A0A491A6000225A71E2
:103FB0001A71094B19601621197102319971013971
:103FC000597116395A72D9711A727047141E00202D
:103FD00000093D00D84E0020041E0020F8B5050061
:103FE0000E0017000024BC4208D02B68315D1B680E
:103FF00028009847002801D00134F4E72000F8BDDC
:10400000704710B5183000F0F1F910BD10B5183038
:1040100000F0D8F910BD70B5837D0D00002B01D1E3
:10402000002070BD82231B01C418200000F00CFA90
:104030000028F5D12000290000F0AAF90120F0E7BE
:1040400010B5183000F0F2F910BD0000F7B501937B
:10405000FA2300259B0083600B4B04000833456066
:10406000036018300F00160000F082F982231B0154
:10407000E01800F07DF96B461B7927612675A57560
:1040800020006375FEBDC046C852000070B5060032
:1040900018250C49006900F01DFC306900F0AAFAEF
:1040A0002B000821307D084C4343E3185956FFF795
:1040B0002DFE0821707D454364196156FFF726FEE9
:1040C00070BDC046A0860100EC52000070B504002F
:1040D0000D00006900F0A1FA2900206900F0FAFB48
:1040E000206900F087FA70BD054B10B5C1548223DA
:1040F0001B010400C01800F05BF90123A37510BD7B
:10410000281000000022F8B5184B827504000E003C
:10411000C15C006900F0B8FA002806D103212069CB
:1041200000F096FA02252800F8BD82231B01E5184D
:10413000280000F05BF900280FD02800276900F064
:1041400041F9C1B2380000F0CBFA0028EDD10321CB
:10415000206900F07DFA0325E5E70500002EE2D096
:104160000321206900F074FADDE7C0462810000042
:1041700010B50121FFF7C6FF10BD000070B50400A7
:10418000006900F0CDFA002827D0206900F0D6FAA7
:1041900000280ED1206900F0DBFA002851D02069F8
:1041A00000F0D1FA00284CD0206900F0D6FA00289F
:1041B00047D1206900F042FA0321206900F048FA53
:1041C000304BE558002D04D0236820001B69984728
:1041D000A8472000183000F0EBF870BD206900F00F
:1041E0002DFA2069032100F033FA206900F0B5FAB6
:1041F0000028F2D082231B01E01800F0D9F8012337
:10420000A375214BE358002BE7D09847E5E725003D
:104210001835280000F018F9002807D0206900F0B0
:1042200005FA0321206900F013FAD6E7206900F0AF
:1042300099FA0100280000F0ABF8206900F0FEF9BF
:10424000EFE7206900F084FA0028C7D1206900F068
:1042500070FA0028C1D0206900F07FFA0028D6D07B
:1042600082231B01E518280000F0C0F8FF21002878
:1042700003D0280000F0A6F8C1B2206900F042FA8D
:10428000A075AAE7301000002C10000010B50248FD
:10429000FFF774FF10BDC0461C1E002010B515238B
:1042A000142202490248FFF7D1FE10BDD44E00206F
:1042B0001C1E002010B50248FEF740FA10BDC04693
:1042C0008C3E002010B50248FEF738FA10BDC046FB
:1042D000502E0020F7B501240326154F154938004C
:1042E00000F0C2F81449154800F0BEF8144915480A
:1042F00000F0BAF81449154800F0B6F8144915480A
:1043000000F0B2F8144D1549280000F0ADF839005E
:1043100000962300019400221148FEF7D1F900967F
:10432000290001941E231F220E48FEF7C9F9F7BD8C
:10433000C84E002000080042000C0042CC4E002075
:1043400000100042D04E002000140042D44E002045
:1043500000180042D84E0020DC4E0020001C004215
:104360008C3E0020502E002010B500F0C7FC10BD80
:1043700070B580252D012A000021040000F0E0FC2A
:104380000023024A63512000A35070BD04080000BE
:104390008022120130B58458044D631C45595B05D9
:1043A0005B0D9D4201D00155835030BD04080000D3
:1043B0008022002312018350014A83507047C04677
:1043C0000408000080220849120143588258934291
:1043D00006D0C25C01335B055B0D43501000704793
:1043E00001204042FBE7C046040800008023054A44
:1043F0001B01C3588058181A02D580231B01C0180E
:104400007047C046040800008023064A1B01C358B9
:104410008058834203DBC01A034BC0187047C01A90
:104420000138FBE704080000FF0700008022054B6D
:104430001201C3588258934201D0C05C70470120DA
:104440004042FBE70408000080231B01C358054AD3
:10445000013380585B055B0D181A43425841C0B2C6
:104460007047C0460408000001607047F0B505AC15
:1044700025780468981E471EB841266892070006F2
:1044800032430243072022600140AD0162682943A4
:104490000020022B00D05803114301436160F0BD9E
:1044A00010B5C0240368A403186812052240024313
:1044B000C020090480020140114319605A6810436A
:1044C000586010BD0122036819680A431A601A680F
:1044D000D207FCD4DA69D207F9D470470222036804
:1044E00019680A431A60DA699207FCD470470368B6
:1044F0001A7ED20702D41A7E9207FCD5704700229A
:1045000003685A8370470368187E4007C00F7047DE
:104510000368187EC0097047802302685B42117EE1
:104520000B43137670470368187EC007C00F7047AF
:104530000368188DC0B2704703681A7ED207FCD595
:1045400089B201201985704701230268917D0B43D0
:1045500093757047012203681A75704770B501257D
:1045600004684B082B402940206809075B070B4370
:10457000034323605100034800F026FA0138C0B21B
:10458000207370BD006CDC020122036819680A43C5
:104590001A601A68D207FCD4DA69D207F9D47047D6
:1045A0000222036819680A431A60DA699207FCD488
:1045B00070470368DA699207FCD402211A688A43BB
:1045C0001A6070470268936A5B0A5B021943916242
:1045D000137E5B07FCD5906AC0B270470122036866
:1045E00019680A431A601A68D207FCD4DA69D2073C
:1045F000F9D470470222036819680A431A60DA691D
:104600009207FCD430215A8B8A43110010220A43AE
:104610005A83DA695207FCD47047022103681A688A
:104620008A431A60DA699207FCD4704780230268D3
:10463000DB02116851680B435360704703680349FC
:104640001A685A680A405A607047C046FFFFFBFF6D
:10465000036810B518680322C006400F094C0528EE
:1046600009D1586811400904204001435960DA69B2
:104670005207FCD410BD5868114009042040014382
:104680005960F7E7FFFFFCFF49001143036810B5CD
:10469000CCB2598B8906890F012904D0598B890620
:1046A000890F0229F5D1596AC90AC9022143596201
:1046B000002A0CD0187E8007C00F0BD11A7ED207BB
:1046C000F8D5C022596892020A435A6010BD1A7E7A
:1046D000D207FCD5588B4007C30F01205840F5E79F
:1046E00003681A0028321170187EC007C00F03D16A
:1046F0005A8BD207F8D57047588B4007C30F01205B
:104700005840F8E7036800201A00283211701A7E1A
:10471000520704D5588B01234007C00F58407047FB
:1047200003681868C006400F043843425841C0B2BD
:1047300070470368187E4007C00F70470368187EF3
:10474000C007C00F70470368588BC006C00F704782
:104750000368187E8007C00F70470368588B0007F6
:10476000C00F704703681A68D206520F052A02D19B
:104770001A7E9207FCD528331878C0B27047000023
:104780000368214A30B5934211D0204A93422FD07A
:104790001F4A93422FD01F4A93422FD01E4A934262
:1047A0002FD01E4A934222D10E23192201E0092361
:1047B00014220121032599401948C0240160990859
:1047C0002B40AB40FC359D4089000918A4000859D6
:1047D000A843C0259D402B0003430B518023DB01E0
:1047E0001A43104B5A805A7852B2002AFBDB30BD74
:1047F0000A231522DDE70B231622DAE70C23172202
:10480000D7E70D231822D4E700080042000C00422D
:10481000001000420014004200180042001C004238
:1048200000E100E0000C0040F8B5040016000F00A5
:104830001D00FFF7A5FF2000FFF744FE1C22BB0070
:10484000134072072468120C134323608423A3755A
:10485000012F18D11021012E00D008390A4B6943CD
:104860001868C00000F0B0F80722A3890240DB04FA
:104870005203DB0C1343A3810304A089DB0C400B20
:1048800040031843A081F8BDB4000020F7B507002D
:10489000019308AB1E780D001400FFF775FE380079
:1048A000FFF76EFFC022240592031440B2070C26C6
:1048B00007211643019A34430A40C0261100802282
:1048C000B6022D043B683540920225430A431D6021
:1048D0005A60F7BD70B504000D00FFF751FF2000CE
:1048E000FFF77CFE1423246869002360054B1868D9
:1048F00000F06AF8FF22431EE0681340904318431B
:10490000E06070BDB400002070B50E000025446862
:10491000002C0BD0236831005B68200098470028EA
:1049200002DB2D18E468F3E701256D42280070BD15
:1049300070B50D004468002C08D0236829009B68DE
:1049400020009847002802D1E468F4E7200070BDF9
:1049500070B50D004468002C07D0236829002000A2
:10496000DB689847E4682D18F5E72C7070BD70B5CA
:104970000D004468002C08D0236829001B68200023
:104980009847002802D1E468F4E7200070BD0000D9
:104990000121064A10B5136805480B4005D10224D1
:1049A0000470241944704360116010BDE04E002073
:1049B000E44E002002B4714649084900095C4900F0
:1049C0008E4402BC7047C046002243088B4274D319
:1049D00003098B425FD3030A8B4244D3030B8B4200
:1049E00028D3030C8B420DD3FF22090212BA030C09
:1049F0008B4202D31212090265D0030B8B4219D3EA
:104A000000E0090AC30B8B4201D3CB03C01A524109
:104A1000830B8B4201D38B03C01A5241430B8B4251
:104A200001D34B03C01A5241030B8B4201D30B033A
:104A3000C01A5241C30A8B4201D3CB02C01A524161
:104A4000830A8B4201D38B02C01A5241430A8B4224
:104A500001D34B02C01A5241030A8B4201D30B020D
:104A6000C01A5241CDD2C3098B4201D3CB01C01A27
:104A7000524183098B4201D38B01C01A5241430931
:104A80008B4201D34B01C01A524103098B4201D31F
:104A90000B01C01A5241C3088B4201D3CB00C01A8C
:104AA000524183088B4201D38B00C01A5241430804
:104AB0008B4201D34B00C01A5241411A00D2014629
:104AC000524110467047FFE701B5002000F0F0F8B2
:104AD00002BDC0460029F7D076E7704703460B4376
:104AE0007FD4002243088B4274D303098B425FD3E7
:104AF000030A8B4244D3030B8B4228D3030C8B4213
:104B00000DD3FF22090212BA030C8B4202D31212F8
:104B1000090265D0030B8B4219D300E0090AC30BCD
:104B20008B4201D3CB03C01A5241830B8B4201D37A
:104B30008B03C01A5241430B8B4201D34B03C01A63
:104B40005241030B8B4201D30B03C01A5241C30ADB
:104B50008B4201D3CB02C01A5241830A8B4201D34C
:104B60008B02C01A5241430A8B4201D34B02C01A36
:104B70005241030A8B4201D30B02C01A5241CDD2DB
:104B8000C3098B4201D3CB01C01A524183098B4226
:104B900001D38B01C01A524143098B4201D34B010F
:104BA000C01A524103098B4201D30B01C01A524172
:104BB000C3088B4201D3CB00C01A524183088B42F9
:104BC00001D38B00C01A524143088B4201D34B00E2
:104BD000C01A5241411A00D2014652411046704754
:104BE0005DE0CA0F00D04942031000D34042534059
:104BF00000229C4603098B422DD3030A8B4212D319
:104C0000FC22890112BA030A8B420CD3890192114A
:104C10008B4208D3890192118B4204D389013AD087
:104C2000921100E08909C3098B4201D3CB01C01A5C
:104C3000524183098B4201D38B01C01A524143096F
:104C40008B4201D34B01C01A524103098B4201D35D
:104C50000B01C01A5241C3088B4201D3CB00C01ACA
:104C6000524183088B4201D38B00C01A5241D9D2E2
:104C700043088B4201D34B00C01A5241411A00D263
:104C80000146634652415B10104601D34042002B5F
:104C900000D54942704763465B1000D3404201B5DE
:104CA000002000F005F802BD0029F8D016E7704793
:104CB0007047C04670B500260C4D0D4C641BA41007
:104CC000A64209D1002600F0CBF80A4D0A4C641B1D
:104CD000A410A64205D170BDB300EB589847013629
:104CE000EEE7B300EB5898470136F2E724010020C5
:104CF00024010020240100204001002010B5034BB6
:104D00000100186800F024F810BDC046C000002063
:104D100030B50024A24201D1002005E0035D651CEE
:104D20000C5DA34201D0181B30BD2C00F2E700231C
:104D300010B59A4200D110BDCC5CC4540133F8E7E1
:104D400003008218934200D1704719700133F9E7CC
:104D5000032370B5CD1C9D43083506000C2D1ED2D3
:104D60000C25A9421DD8300000F069F8254A1468C6
:104D70002100002919D1244C2368002B03D13000D5
:104D800000F044F820602900300000F03FF8431C98
:104D90002CD10C233000336000F052F803E0002DDA
:104DA000DFDA0C233360002070BD0B685B1B1AD464
:104DB0000B2B03D90B60CC18256003E08C420ED17D
:104DC00063681360300000F03BF8200007220B30CE
:104DD000231D9043C31AE7D05A42E250E4E74B68E0
:104DE00063600C00EEE70C004968C2E70323C41CB3
:104DF0009C43A042E0D0211A300000F007F8431C89
:104E0000DAD1C6E7EC4E0020F04E0020002370B54A
:104E1000064C05000800236000F014F8431C03D181
:104E20002368002B00D02B6070BDC046F84E0020D8
:104E30000023C25C0133002AFBD1581E7047704723
:104E400070470000044A1368002B03D01818106044
:104E500018007047014BF9E7F44E0020FC4E00208B
:104E6000F8B5C046F8BC08BC9E467047F8B5C046C9
:104E7000F8BC08BC9E4670470C11161B20252A2F33
:104E800034393EFFFFFF0000000000FFFFFF4172CA
:104E9000742D4E6574004653454E433D5750413284
:104EA00050534B2C4145530046534B45593D71756A
:104EB0006965746F6E7365740041542B000D002B8F
:104EC0006F6B004152544E45543D31004152544E97
:104ED00045543D30004653535349443D526174702C
:104EE000616320414B53004E4554503D5544502C76
:104EF000434C49454E542C363435342C31302E3108
:104F0000302E3130302E323535005753535349440B
:104F10003D52617470616320414B530057414B45D2
:104F2000593D5750413250534B2C4145532C7175CC
:104F30006965746F6E736574004172742D4E65748B
:104F400000556E6B6E6F776E204172744E657420E3
:104F50004F70436F64653A200057726974696E67D9
:104F600020454550524F4D0052617470616320419D
:104F70004B53202D2044657369676E656420627908
:104F8000205261747061632044696D6D65727300B5
:104F900057534B45593D5750413250534B2C414587
:104FA000532C71756965746F6E736574002B2B2BB0
:104FB0000061004C696E6B696E6700556E6C696EBE
:104FC0006B696E67005F72656200454E544D004626
:104FD0005645573D656E61626C6500465645573DC6
:104FE00064697361626C65004C414E4E3D31302EF8
:104FF00031302E39392E3235342C3235352E32358A
:10500000352E3235352E30004C414E4E3D31302E4E
:1050100031302E3130302E3235342C3235352E327F
:1050200035352E3235352E3000574D4F44453D53E2
:10503000544100574D4F44453D41500052454C446A
:10504000005741503D313142474E2C5261747061DE
:105050006320414B532C4348310057414E4E3D4451
:105060004843502C31302E31302E3130302E3130FB
:10507000302C3235352E3235352E3235352E302C1A
:1050800031302E31302E3130302E323534004D5308
:105090004C503D4F4E004D534C503D4F4646000046
:1050A0000000000000000000000000000000000000
:1050B00000000000000000000000000000000000F0
:1050C00000000000000000000000000000000000E0
:1050D00000000000000000000000000000000000D0
:1050E00000000000000000000000000000000000C0
:1050F00000000000000000000000000000000000B0
:10510000000000000000000000000000000000009F
:10511000000000000000000000000000000000008F
:10512000000000000000000000000000000000007F
:10513000000000000000000000000000000000006F
:10514000000000000000000000000000000000005F
:10515000000000000000000000000000000000004F
:10516000000000000000000000000000000000003F
:10517000000000000000000000000000000000002F
:10518000000000000000000000000000000000001F
:10519000000000000000000000000000000000000F
:1051A00000000000000000000000000000000000FF
:1051B00000000000000000000000000000000000EF
:1051C00000000000000000000000000000000000DF
:1051D00000000000000000000000000000000000CF
:1051E00000000000000000000000000000000000BF
:1051F00000000000000000000000000000000000AF
:105200005F7265626F6F74000D0A0000000000009D
:1052100000000000792600006D210000212600001A
:1052200005260000F9250000312600006D2600004B
:10523000C925000019280000D9250000C325000059
:105240000000000000000000212900004D2900009E
:105250001D29000041290000352900008529000092
:105260006929000000000000000000007B2D000004
:105270005D2C0000B92B000041726475696E6F20CF
:105280005A65726F00000403090441726475696E07
:105290006F204C4C430012010002EF0201404123F9
:1052A0004D80000101020301080000001000000011
:1052B000200000004000000080000000000100000D
:1052C00000020000000400000000000000000000D8
:1052D00017400000DD3F0000692100000140000090
:1052E000034000000D4000004140000000000000AD
:1052F0000B0000000200000004000000FF00FFFFA0
:10530000FFFF0B00000000000A0000000200000088
:1053100004000000FF00FFFFFFFF0A000000000084
:105320000E0000000800000004000000FF00FFFF66
:10533000FFFF0E0000000000090000000400000054
:105340001C000000FF000100010009000000000037
:1053500008000000040000001C000000FF00000026
:1053600000001000000000000F000000040000001A
:105370001C000000FF00010301030F0000000000FB
:1053800014000000050000002C000000FF000200D7
:1053900002000400000000001500000005000000ED
:1053A0002C000000FF0003000300050000000000C7
:1053B00006000000040000001C000000FF000001C7
:1053C00000010600000000000700000004000000CB
:1053D0001C000000FF0001010101070000000000A7
:1053E00012000000040000001C000000FF00000389
:1053F0000003020000000000100000000400000094
:105400001C000000FF00000200020000000000007D
:1054100013000000050000002C000000FF00030046
:105420000300030000000000110000000400000061
:105430001C000000FF00010201020100000000004A
:105440000200000001000000020000000000FFFF59
:10545000FFFF020001000000080000000100000042
:105460001800000002000004000408000100000011
:105470000900000001000000180000000300010402
:105480000104090000000000040000000100000009
:10549000000000000400FFFFFFFF04000000000008
:1054A0000500000001000000000000000500FFFFF3
:1054B000FFFF0500010000000200000001000000E5
:1054C000000000000A00FFFFFFFF020000000000D4
:1054D000160000000200000004000000FF00FFFFB3
:1054E000FFFF06000000000017000000020000009F
:1054F00004000000FF00FFFFFFFF070000000000A6
:105500000C0000000300000004000000FF00FFFF8B
:10551000FFFF0C00010000000A0000000300000073
:1055200004000000FF00FFFFFFFF0A000100000071
:105530000B0000000300000004000000FF00FFFF5C
:10554000FFFF0B0001000000030000000B00000043
:1055500004000000FF00FFFFFFFFFF00000000004D
:105560001B0000000B00000004000000FF00FFFF14
:10557000FFFFFF00000000001C000000060000000C
:1055800000000000FF00FFFFFFFFFF000000000021
:10559000180000000600000000000000FF00FFFFF0
:1055A000FFFFFF00000000001900000006000000DF
:1055B00000000000FF00FFFFFFFFFF0001000000F0
:1055C000160000000300000000000000FF00FFFFC5
:1055D000FFFFFF00010000001700000003000000B3
:1055E00000000000FF00FFFFFFFFFF0000000000C1
:1055F000160000000200000000000000FF00FFFF96
:10560000FFFFFF0000000000170000000200000084
:1056100000000000FF00FFFFFFFFFF000000000090
:10562000130000000200000000000000FF00FFFF68
:10563000FFFFFF000000000010000000020000005B
:1056400000000000FF00FFFFFFFFFF000000000060
:10565000120000000200000000000000FF00FFFF39
:10566000FFFFFF000000000011000000020000002A
:1056700000000000FF00FFFFFFFFFF000000000030
:105680000D000000040000000C000000FF000100FD
:10569000FFFF0D00000000001500000005000000E5
:1056A0000C000000FF000300FFFFFF0000000000EF
:1056B00006000000040000000C000000FF000001D4
:1056C000FFFFFF00000000000700000004000000D2
:1056D0000C000000FF000101FFFFFF0000000000C0
:1056E000030000000100000002000000FF00FFFFB7
:1056F000FFFFFF00000000000200000001000000AA
:10570000020000001400FFFFFFFF02000000000085
:105710000000000000000000000000000000000089
:105720000000000000000000000000000000000079
:105730000000000000000000000000000000000069
:105740000000000000000000000000000000000059
:105750000000000000000000000000000000000049
:105760000000000000000000000000000000000039
:1057700052617470616320414B532020202020200F
:1057800020200A0A64FE000032000000120000001F
:10579000EE020000080909FF1300000001010101E9
:1057A00001110000FFFFFFFFFFFFFFFF00C201002C
:1057B00000000800080B00020202000009040000BB
:1057C0000102020000052400100104240206052441
:1057D00006000105240101010705810310001009DD
:1057E000040100020A000000070502024000000751
:1057F0000583024000000000FFFFFFFF00000000E3
:105800008300000002000000820000000000000091
:105810000000000000000000000000000000000088
:105820000000000040420F000A0000000A000000D3
:10583000C4000020000000002C5700004C5700005E
:105840000C570000000000000000000000000000F5
:105850000000000000000000000000000000000048
:105860000000000000000000000000000000000038
:105870000000000000000000000000000000000028
:105880000000000000000000000000000000000018
:1058900000000000DD000000090D0000452A0000A6
:1058A000A9390000A53F00009D420000D54200003C
:1058B000B500000000000000000000000000000033
:040000030000207564
:00000001FF
