:1000000000800020FD1F0000E51F0000E51F00002C
:1000100000000000000000000000000000000000E0
:10002000000000000000000000000000E51F0000CC
:100030000000000000000000E51F0000512000004B
:10004000E51F0000E51F0000E51F0000E51F0000A0
:10005000E51F0000E51F0000E51F0000E91F00008C
:10006000E51F00003D420000790100005D01000035
:1000700015420000E51F00004D420000E51F000092
:10008000E51F0000E51F0000E51F0000E51F000060
:1000900000000000E51F0000E51F0000E51F000054
:1000A000E51F0000E51F0000E51F0000E51F000040
:1000B0000000000010B5064C2378002B07D1054B3B
:1000C000002B02D0044800E000BF0123237010BDC4
:1000D00050010020000000006C570000084B10B5D4
:1000E000002B03D00749084800E000BF0748036819
:1000F000002B00D110BD064B002BFBD09847F9E731
:1001000000000000540100206C5700004401002052
:100110000000000010B5040001F0A8FF20602000DE
:1001200010BD10B5040001F0A1FF2368C01A10BD76
:1001300070B504000D0001F099FF401B2060200005
:1001400070BD10B50A004369016903F019FE10BDC6
:1001500010B54269016903F063FE10BD054B1A7EBC
:10016000D20905D08022197E52420A431A765B8B4F
:100170007047C0460010004270B52A4B1A7E198D98
:10018000187E5207D20F89B2C00920D080201C7E71
:10019000404220431876588B800718D5002101244F
:1001A0005983214B21481C70FFF7C2FF204B214D82
:1001B0001C702B68002B07D080221F4992001F481B
:1001C00004F079FD1E4B1C7000232B6070BD002ACB
:1001D000FCD01548C9B20378012B1DD0022BF5D1F4
:1001E0007F25144C2268D3172B40164D9B18DB112A
:1001F000154004D58026013D7642354301350E4E2B
:10020000DB01F31859558023013222609B009A428A
:10021000DCD1FE3BFF3B03E00223002900D000239A
:100220000370D3E7000C004270010020D0110020C1
:10023000E815002074010020E1130020E1110020E6
:10024000E91500207F00008070B525260C488AB093
:1002500043696A46016903F0F5FD0A4D32006946BB
:10026000280004F028FD084C32002900200004F08A
:1002700022FD372323774533A3770AB070BDC046EC
:10028000F4170020CD170020A817002010B50A4948
:100290008AB00A4801F050FF25220949684604F057
:1002A0000AFD084C2000FFF753FF69462000FFF7C6
:1002B00048FF0AB010BDC046E14E0000883E002055
:1002C000A8170020F417002070B50A4D2800FFF78A
:1002D00028FFFA235B0098420BD9074B1C78002CAF
:1002E00007D121002800FFF723FF21000B2003F096
:1002F0008DFC70BDE4150020E815002070B5204D80
:100300002B78002B08D01F4C2678002E05D1012118
:10031000032003F07BFC2E7070BD1B4D2800FFF7FF
:1003200000FF6428F8D923780021013B28002370BE
:10033000FFF7FEFE154B1C78200003F093FC4142B2
:100340004141200003F062FC114B1C78200003F0B7
:1003500089FC41424141200003F058FC032003F096
:1003600081FC41424141032003F050FC0B2003F08B
:1003700079FC414241410B2003F048FCCCE7C046E8
:100380008001002082010020840100201C00002048
:100390003100002010B5FFF779FF642001F06CFEFA
:1003A00000210E2003F032FC10BD0000F8B58B4C8C
:1003B0002178002913D10522894B8A481A708A4A6C
:1003C0001268824205DD8948824200DD84E0042211
:1003D0001A700123002186482370FFF7A9FE2378B5
:1003E000002B78D07E4D2E78002E09D1012B1FD105
:1003F0007F4F3800FFF795FE7E4B984200D97CE096
:100400002B78012B14D12378012B06D1784E3000A4
:10041000FFF787FE632800D97AE02378022B07D103
:10042000734E3000FFF77DFE734B984200D97BE09E
:100430002F78022F14D12378012B06D16C4E300077
:10044000FFF76FFE632800D979E02378022B07D1EC
:10045000674E3000FFF765FE684B984200D979E09F
:100460002B78032B15D12378012B06D1604E300059
:10047000FFF757FE632800D977E02378022B08D1D5
:100480005B4E3000FFF74DFEF423FF33984200D956
:1004900077E02B78042B13D12378012B06D1544E0F
:1004A0003000FFF73EFE632800D975E02378022B69
:1004B00006D14F4E3000FFF734FE632800D977E0B5
:1004C0002B78052B07D14A4D2800FFF72AFE4B4B0E
:1004D000984200D977E0F8BD4948824201DC032206
:1004E00076E74848824201DC022271E746488242B0
:1004F00001DC01226CE719706BE7444B310018787E
:1005000003F084FB310038002670FFF711FE77E717
:100510003E4B0021187803F079FB022300213000C4
:100520002370FFF705FE78E7384B0121187803F0B8
:100530006DFB002130002170FFF7FAFD78E7334BA7
:100540000021187803F062FB002130002770FFF7CC
:10055000EFFD7AE72D4B0121187803F057FB0021BE
:1005600030002170FFF7E4FD7AE7284B002118786E
:1005700003F04CFB0223002130002370FFF7D8FD6D
:100580007BE7224B0121187803F040FB002130006B
:100590002170FFF7CDFD7CE71C4B0021187803F09C
:1005A00035FB0223002130002370FFF7C1FD7DE7FA
:1005B000164B0121187803F029FB0021300021702F
:1005C000FFF7B6FD7CE7114B0121187803F01EFB05
:1005D000002128002170FFF7ABFD7CE7F315002018
:1005E00026000020D9020000D41100200B030000D7
:1005F000D811002087130000CF070000E703000098
:100600001F0300003D030000920300001C000020B7
:10061000F7B5694C2378002B13D1684A1370684BE7
:100620001B78012B01D1137005E0022BFBD0032BAB
:10063000F9D0042BF7D00123002162482370FFF783
:1006400077FD2378002B59D05C4D2E78002E07D1F2
:10065000012B11D15B4F3800FFF763FD63284ED8A3
:100660002B78012B08D12778012F1CD1554E300053
:10067000FFF757FD63284DD82B780193022B12D139
:100680002778012F06D14F4E3000FFF74AFD4E4B21
:1006900098424AD82378022B05D14A4E3000FFF702
:1006A00040FD63284ED82B78032B12D12778012FD9
:1006B00005D1444E3000FFF734FD63284DD8237830
:1006C000022B06D13F4E3000FFF72BFD3E4B9842E8
:1006D0004FD82B78042B11D12678012E05D1394D16
:1006E0002800FFF71EFD63284ED82378022B05D182
:1006F000344D2800FFF715FD632851D8F7BD334B63
:100700003100187803F082FA310038002670FFF7C4
:100710000FFDA5E72D4B3900187803F077FA00217B
:1007200030002170FFF704FDA6E7284B3900187848
:1007300003F06CFA6B461B79002130002370FFF741
:10074000F7FCA7E7214B0021187803F05FFA00219E
:1007500030002170FFF7ECFCA5E71C4B390018783E
:1007600003F054FA0223002130002370FFF7E0FC6D
:10077000A5E7164B0021187803F048FA0021300055
:100780002170FFF7D5FCA4E7104B3100187803F077
:100790003DFA0223002128002370FFF7C9FCA4E7DB
:1007A0000A4B0021187803F031FA0021280021704B
:1007B000FFF7BEFCA2E7C046CC11002014180020B1
:1007C0001C180020C8110020830300003100002005
:1007D000F0B5194F85B0386803F066F9174B18600B
:1007E00064230193164C174E2368174D9B00029308
:1007F0009B5938680393039A2B689B1A2B6003F06C
:1008000053F9029B985123689A0090592A68013342
:1008100080182860632B0CDC2360642104F022F92B
:100820000A4B1860019B013B0193002BDAD105B004
:10083000F0BD0023F0E7C04628000020FC15002092
:100840000C1600201016002010180020D4110020D3
:10085000F7B54648FFF765FC454B984204D9454B30
:100860001B78002B00D17DE0434E444C33689D0043
:10087000434BEB580193019A23689B1A2360414B29
:10088000186803F011F93E4B3D49E85033689A006F
:1008900050582268013380182060632B60DC33607D
:1008A000642104F0DFF8384B384F18603B689842F9
:1008B00000DD3860364B1A68904200DA1860354B1C
:1008C0001B78002B40D0344C344D2000290001F01F
:1008D00033FC0A220021200001F095FC29002000B1
:1008E00001F02AFC0A222E49200001F08CFC29008C
:1008F000200001F021FC0A223968200001F083FC6D
:100900002900200001F018FC214B0A221968200060
:1009100001F079FC2900200001F00EFC1A4B0A229C
:100920001968200001F06FFC2900200001F004FC90
:10093000336813499B00C9580A22200001F063FC68
:100940002900200001F0F8FB164B174A1B681268BB
:100950009B1A0D4A1268934201DDFFF71BFDF7BD9C
:1009600000239CE70422114B1A707DE71818002021
:1009700010270000F21500200C160020101800208F
:100980001016002028000020D4110020EC150020B3
:10099000FC150020E011002028180020DF4E000088
:1009A000FF03000020000020180000201C18002079
:1009B000F8B50600A027114C0021207803F026F995
:1009C0003B00013BFDD10E48310003F0A9FA0121A3
:1009D0000500207803F01AF90A4C0B4B187803F045
:1009E00041F9002802D1013C002CF6D12B0603D599
:1009F000642001F041FBDEE72800F8BD2400002060
:100A0000001E00201027000025000020F7B504007C
:100A10000D008026019233060ED4019E002E2ADDA1
:100A20001D48002C21D1210003F07AFA002D01D0BD
:100A300028700135013EF1E7184F0021387803F0A6
:100A4000E5F8A023013BFDD10021134803F068FA2B
:100A500006000306DFD53878012103F0D7F8104BE4
:100A6000C046013B002BFBD1D5E72178671C03F082
:100A700057FA3C00DAE7094B0121187803F0C6F871
:100A8000074C084B187803F0EDF8002802D1013C20
:100A9000002CF6D1F7BDC046001E00202400002027
:100AA0001027000025000020F8B50D0016001F00DB
:100AB000FFF77EFF0A4C0B4B187803F0D3F80028A1
:100AC00009D1A023013BFDD128003A003100FFF7F6
:100AD0009DFF0120F8BD013C002CECD12000F9E77E
:100AE0001027000025000020F7B50D2003F0BAF80C
:100AF00003005A1E93412C4C011E237009D12B4B2D
:100B00001A78002A05D02A4A187010702948FFF771
:100B10000FFB2378002B2AD0244B1A78002A26D1E9
:100B20000127244D1F702800FFF7FBFA204E632891
:100B300018D92800FFF7F5FAFA239B00984211D83C
:100B40003278002A0ED1022301A90B7041203B000C
:100B5000FFF7AAFF184B1B78002B03D01749184842
:100B600001F0FCFA002128003170FFF7E1FA237848
:100B7000002B18D10F48FFF7D4FA124B984212D924
:100B80000B490A78002A0ED1012341200B7001A9DC
:100B90000B70FFF789FF084B1B78002B03D00A4925
:100BA000074801F0DBFAF7BDF41500202D00002006
:100BB000F5150020F8150020E01100203B4F000043
:100BC00028180020B70B0000434F000070B5FA242E
:100BD000144D80230022290064019120FFF764FF57
:100BE0002300013BFDD12900802380310022912088
:100BF000FFF75AFF2300013BFDD1691CFF31802321
:100C000000229120FFF750FF2300013BFDD1290076
:100C10008131FF31802300229120FFF745FF013C05
:100C2000FDD170BDE111002010B5040001000520C8
:100C300002F0ECFF2100062002F0E8FF10BD0000EA
:100C400010B5104C2378002B16D00F4B1A78002AC1
:100C500003D000221A70FFF7B9FF0C48FFF761FAC2
:100C6000FA2301219B00984207D90B2002F0CEFF06
:100C70000023074A2370136010BD0B2002F0C6FF4B
:100C8000FAE7C046E8150020E9150020D011002041
:100C90007401002007B5224B224A23481A60002223
:100CA0005A711A71FFF736FA2048FFF733FA2048D5
:100CB000FFF730FA1F48FFF72DFA25221E491F487B
:100CC00003F046F81E48FFF725FA1E48FFF722FA00
:100CD0001D48FFF71FFA1D48FFF71CFA1C48FFF7D5
:100CE00019FA1C48FFF716FA1B48FFF713FA1B48BE
:100CF000FFF710FA1A48FFF70DFA01F0B7F9194B90
:100D00000C22186001230193023300931649073324
:100D1000164801F099FC1648FFF7FCF907BDC046DC
:100D2000A017002080841E00C41100207C01002038
:100D3000780100206C01002000510000F417002011
:100D40000816002000160020F8150020E4150020E9
:100D5000D0110020D811002018180020DC1100202C
:100D6000C811002084010020C84E00208801002006
:100D70000C180020F0B50F00150085B001902C4C28
:100D8000200001F0FDFB002803DD200001F014FC31
:100D9000F5E7FA239B006B4300252E000093BD422C
:100DA00031DA022E2FD02349200001F0C5F9019934
:100DB000200001F0C1F92049200001F0BDF9200018
:100DC00001F0E4FB01F052F9039003A8FFF7A9F941
:100DD000009B984214D20021032002F017FF192033
:100DE00001F04AF90121032002F010FF192001F05F
:100DF00043F91249200001F09CFB0028E5D00226AF
:100E00000135EDB2CBE70021032002F0FFFE6420A4
:100E100001F032F90320012102F0F8FE642001F014
:100E20002BF9022E01D000F019FB300005B0F0BD07
:100E3000883E0020414E0000454E0000474E000015
:100E400010B50A220221FFF795FF10BD452307B513
:100E500001A80380FFF7F4FF07BD00001FB50922BA
:100E6000044901A803F027FF01A8FFF7E9FF05B037
:100E700000BDC0464B4E00001FB5002803D0FFF751
:100E8000EDFF05B000BD0922034901A803F013FFDF
:100E900001A8FFF7D5FFF4E7544E00007FB51222FA
:100EA000044901A803F007FF01A8FFF7C9FF07B035
:100EB00000BDC0465D4E00007FB51122044901A867
:100EC00003F0F9FE01A8FFF7BBFF07B000BDC04665
:100ED000304E00007FB51222044901A803F0EBFE5A
:100EE00001A8FFF7ADFF07B000BDC0461E4E0000D1
:100EF00000B589B01922044901A803F0DCFE01A85D
:100F0000FFF79EFF09B000BDC94F000013B5FA24DA
:100F100000216400032002F079FE200001F0ACF80B
:100F20000121032002F072FE200001F0A5F85A23EF
:100F300001A80380FFF784FF13BD000000B589B04E
:100F40001D220449684603F0B6FE6846FFF778FFA5
:100F500009B000BDA44E000000B58BB023220449A7
:100F600001A803F0A8FE01A8FFF76AFF0BB000BDBF
:100F70006F4E000007B505220349684603F09BFE4B
:100F80006846FFF75DFF07BDC44F00007FB5122222
:100F9000044901A803F08FFE01A8FFF751FF07B035
:100FA00000BDC046924E000000B589B01D22044924
:100FB000684603F080FE6846FFF742FF09B000BDB7
:100FC000184F000000B589B020220449684603F09C
:100FD00072FE6846FFF734FF09B000BD704F000095
:100FE00000B58BB0002803D0FFF7ECFF0BB000BDBD
:100FF0002122044901A803F05EFE01A8FFF720FFAB
:10100000F4E7C046904F000000B58FB03422044989
:1010100001A803F050FE01A8FFF712FF0FB000BDBA
:10102000E24F00001FB50C22044901A803F043FE63
:1010300001A8FFF705FF05B000BDC046574F0000EF
:101040001FB5002803D0FFF7EDFF05B000BD0D224E
:101050000349684603F02FFE6846FFF7F1FEF4E708
:10106000634F00001FB50A22044901A803F023FEC4
:1010700001A8FFF7E5FE05B000BDC046B14F000076
:101080001FB5002803D0FFF7EDFF05B000BD092212
:10109000034901A803F00FFE01A8FFF7D1FEF4E712
:1010A000BB4F000010B50021032002F0AFFDFA2075
:1010B00000F0E2FF0121032002F0A8FDFA2000F079
:1010C000DBFF0021032002F0A1FDFA2000F0D4FF95
:1010D0000121032002F09AFDFFF7B8FE0020FFF780
:1010E000CBFEFFF739FFFFF7BDFF0120FFF78CFFB5
:1010F000FFF768FFFFF74AFFFFF756FF0020FFF7F3
:10110000BFFF0020FFF76CFFFFF7F2FEFFF716FFAF
:10111000FFF7C4FEFFF7D0FEFFF7DCFEFFF7F6FE99
:1011200010BD00001FB5002809D00822054901A8FC
:1011300003F0C1FD01A8FFF783FE05B000BD092241
:101140000149F4E7165000001E500000F7B50400F6
:101150000021032002F05AFDFA2000F08DFF01214A
:10116000032002F053FDFA2000F086FF0021032047
:1011700002F04CFDFA2000F07FFF0121032002F075
:1011800045FD00F083F9FFF761FE5D4A631CDBB2A9
:1011900013705C4A5C4D0532D3775C4E012C06D04F
:1011A000022C0AD001232B700023337001E02C7035
:1011B00034700020FFF744FF04E000232B703370ED
:1011C000FFF730FFC827FFF7D5FE7F00002103207F
:1011D00002F01CFD192000F04FFF0121032002F056
:1011E00015FD192000F048FF49494A4801F0A1F9CE
:1011F000002802D1013F002FE8D10021032002F096
:1012000005FDFA20400000F037FF0121032002F025
:10121000FDFCFA20400000F02FFF00F037F9FFF747
:1012200015FE3078FFF72CFF631E012B0DD8FFF75A
:10123000C9FE05223849684603F03DFD012C08D05F
:10124000022C0BD0FFF762FE3FE00020FFF7C8FE44
:10125000EFE7FFF7A9FEFFF799FEF3E7C824FFF7D2
:1012600055FE0326192764000021300002F0CEFC51
:10127000380000F001FF0121300002F0C7FC380007
:1012800000F0FAFE2249234801F053F9002802D168
:10129000013C002CE8D10021032002F0B7FCFA2029
:1012A000400000F0E9FE0121032002F0AFFCFA202B
:1012B000400000F0E1FE00F0E9F8FFF7C7FD2878F4
:1012C000FFF730FF6846FFF7BBFD0021032002F067
:1012D0009DFCFA2000F0D0FE0121032002F096FCD4
:1012E000FA2000F0C9FE0021032002F08FFCFA2052
:1012F00000F0C2FE0121032002F088FCF7BDC046C9
:101300001C180020A81700202C000020F115002038
:101310004D4F0000883E0020524F0000F8B50F20CE
:1013200002F0A0FC431E9841444E454D377828708A
:10133000444C002F09D139002000FEF7F9FE390096
:101340004148FEF7F5FE414B1F702F78002F4ED01D
:10135000012333702B78002B20D03D4B1A78002AC4
:101360001CD13278002A19D0012220001A70FEF711
:10137000D8FE384B984201D9FFF70CF82000FEF751
:10138000D0FE632806D92000FEF7CBFEFA235B00CF
:1013900098423AD900212000FEF7CAFE2D78002D90
:1013A00008D12000FEF7BDFE2A4B984202D93378BF
:1013B000002B2FD12000FEF7B4FEF423FF33984218
:1013C00014D9224C2378022B02D10120FFF7BEFE54
:1013D0002378032B02D10020FFF7B8FE2378052BDA
:1013E00002D10220FFF7B2FE00232370F8BD184B94
:1013F0001A78002AAED0390020001F70FEF798FE40
:1014000039001148FEF794FEA4E7104A137801331F
:101410001370BFE70C4E3000FEF783FE6328C9D976
:1014200001210D4B03201A785140197002F0EEFB98
:1014300029003000FEF77CFEBCE7C046EA1500201C
:1014400005160020081600200016002004160020B3
:1014500006160020CF0700002E00002070B5FA24E9
:101460006400FFF75BFF084D0121287802F0CEFBF6
:10147000200000F001FE2878002102F0C7FB2000C8
:1014800000F0FAFDEDE7C04631000020F7B5234C2F
:10149000200001F075F8002803DD200001F08CF831
:1014A000F5E700F0E3FD1E490190200000F044FE46
:1014B000200001F06BF800251A4E01A8FEF731FE5E
:1014C000194FB04209D8002D09D13900200001F090
:1014D00030F80500F1E7FFF7C1FF002DFBD00A202F
:1014E00000F0CAFD3900200000F026FE200001F0C7
:1014F0004DF8002501A8FEF714FEB04207D8002DD4
:1015000005D10A49200001F014F80500F2E719207E
:1015100000F0B2FD002DDED00220FEBD883E00208E
:10152000354F0000C3090000394F0000474E00004E
:1015300070B50C4C0C4B20006B215D7F02F098FDC8
:101540000121200002F02BFD80212000294302F020
:1015500026FD200002F0D0FD96235B01013BFDD16A
:1015600070BDC046181E0020A817002073B51025B6
:10157000374C23782B420DD0012301A900224920AA
:101580000B70FFF791FA2378AB432370FA239B018A
:10159000013BFDD1012523782B420FD02D4B01A912
:1015A0005B7800220B7040202B00FFF77DFA237838
:1015B000AB432370FA239B01013BFDD140252378E7
:1015C0002B420DD023490B23002211315220FFF76B
:1015D0006BFA2378AB432370FA239B01013BFDD1C7
:1015E00023789B0612D51B4B01A91B7C022B2CDDFB
:1015F0000B70002201235120FFF756FA2022237896
:1016000093432370FA239B01013BFDD123787F2B69
:101610001AD99626002476010F4D6B21280002F07E
:1016200027FDE1B2280002F0BAFC0A4B28001B1982
:10163000197F02F0B4FC280002F05EFD3300013B8C
:10164000FDD10134082CE7D173BD0323D0E7C04698
:1016500027000020A8170020181E0020F0B5D74B47
:1016600097B01B78D64E002B04D00C23D54A1370AC
:10167000023B337001210E2002F07CFA01210E2082
:1016800002F0C4FA0121032002F074FA01210320C0
:1016900002F0BCFA02210F2002F06CFA0D200221A8
:1016A00002F068FA0D2002F0DDFA002802D10123D1
:1016B000C54A137001210B2002F05CFA00210B20B7
:1016C00002F0A4FAC149C24801F07EF9E121C14803
:1016D000890200F03DFFC04ABC49C04801F060F8F3
:1016E00002210A2002F0D6FA02210C2002F0D2FADE
:1016F000BB4C200002F08EFC2000BA4902F0AAFC8C
:10170000FEF7A2FDB84C2378002B43D1822225009E
:1017100001276270A370E3702371803AA371E371B3
:101720006372A372E3722373B049613362712272F0
:101730006373093247331135A3738918A33B0CA88F
:1017400023742770E77303F0B6FA0B220CA9280064
:1017500003F0B1FA34232377193B63774533A3773A
:101760004F3BE377A133EB73183B2B74973B6B74C0
:1017700048332100AB74252202A8EF7403F09BFAD2
:101780009B4C2000FEF7E4FC02A92000FEF7D9FCE8
:10179000FEF75AFD0121052002F0ECF90121062097
:1017A00002F0E8F90020FFF73FFA924C01252000F3
:1017B00002F072FB904B200006CB02F095FB8F4CA1
:1017C0000121207802F0D6F90121112002F0D2F98E
:1017D0003078012102F0CEF93078012102F016FABA
:1017E000784B0221187802F0C5F90121207802F027
:1017F0000DFA642000F040FC2078002102F006FA87
:10180000FEF7E6FF6B4600221D7069462B0049205B
:10181000FFF74AF97A4E7B4B32689A421CDCFA2079
:10182000400000F029FC2900207802F0EFF9642044
:1018300000F022FC0021207802F0E8F9642000F09A
:101840001BFC2900207802F0E1F9642000F014FC70
:101850002078002102F0DAF96B4B32689A4209DCF9
:101860002078012102F0D2F9FA20800000F004FC77
:10187000FEF790FDFEF79AFDFFF778FE554E6421C6
:10188000300000F0D4FD504B1B78002B2FD0FFF719
:101890004FFE0023544925220CA80B7003F00BFACD
:1018A000534C2000FEF754FC20000CA9FEF749FC25
:1018B00001210B2002F0AAF9544800F0DDFB0124BD
:1018C000FFF7E4FDFFF7EEFB514D2800FEF729FC82
:1018D000FA2805D94F48FEF724FC4C4B984260D8B3
:1018E000FFF71CFDFFF700F9FEF7B2FFECE74A4DEA
:1018F0006B1DDB7F012B45D000F0B8FB019001A8E8
:10190000FEF70FFC454B464C984216D8454930002F
:1019100000F00FFE012107002078002F34D002F0E4
:1019200075F9FA20400000F0A7FB2078002102F0B2
:101930006DF9FA20400000F09FFB0121207802F0B1
:1019400065F9FA20400000F097FB0021207802F0B2
:101950005DF9FA200535400000F08EFBFFF796FD9B
:10196000FFF774FAEB7F032B02D10020FFF7DAFBBD
:10197000FFF774FA05222C490CA803F09CF90CA877
:10198000FFF75EFA17B0F0BD02F040F9322000F028
:1019900073FB2078390002F039F9322000F06CFB3B
:1019A000ADE700212800FEF7C3FB204B0B20197880
:1019B0006140197002F02AF992E7C046F015002044
:1019C0002400002025000020E011002090D003001A
:1019D00028180020883E00203304000088010020E1
:1019E000181E0020801A0600CD170020004E0000AF
:1019F000F4170020001E0020A01700201C0000206B
:101A0000D4110020CF030000A7020000102700001F
:101A1000DC11002018180020A81700203F1F00002C
:101A20003100002000520000524F00003000002022
:101A300037B58E4908221631684603F03CF98C4CC4
:101A400008226946200000F055FB0021200000F02C
:101A5000D7FD2121200000F0D3FD864D20002978FC
:101A600000F0CEFD6978200000F0CAFDA9782000C2
:101A700000F0C6FDE978200000F0C2FD362120000C
:101A800000F0BEFD1921200000F0BAFD0C2120005D
:101A900000F0B6FD1221200000F0B2FD0021200070
:101AA00000F0AEFD0021200000F0AAFD0021200082
:101AB00000F0A6FDFF21200000F0A2FD0021200083
:101AC00000F09EFD0021200000F09AFDD7212000AB
:101AD00000F096FD5121200000F092FD122266498F
:101AE000200000F007FB27226449200000F002FBE1
:101AF000192500212000013D00F082FD002DF8D1C4
:101B0000403500212000013D00F07AFD002DF8D184
:101B10002900200000F074FD0121200000F070FD7C
:101B20008021200000F06CFD2900200000F068FDFD
:101B30002900200000F064FD2900200000F060FD75
:101B40008021200000F05CFD0821200000F058FDFD
:101B50000821200000F054FD0821200000F050FD75
:101B60008021200000F04CFD2900200000F048FDFD
:101B70002900200000F044FD2900200000F040FD75
:101B80002900200000F03CFD2900200000F038FD75
:101B90002900200000F034FD2900200000F030FD75
:101BA0002900200000F02CFD2900200000F028FD75
:101BB0002900200000F024FD2900200000F020FD75
:101BC0002900200000F01CFD2900200000F018FD75
:101BD0002900200000F014FD2900200000F010FD75
:101BE0002900200000F00CFD2900200000F008FD75
:101BF0002900200000F004FD2900200000F000FD75
:101C00002900200000F0FCFC2900200000F0F8FC76
:101C10002900200000F0F4FC2900200000F0F0FC76
:101C20002900200000F0ECFC2900200000F0E8FC76
:101C30002900200000F0E4FC2900200000F0E0FC76
:101C40002900200000F0DCFC2900200000F0D8FC76
:101C50000F21200000F0D4FC1A3500212000013DA6
:101C600000F0CEFC002DF8D137BDC046004E00007C
:101C7000883E00201200002000000020F04E0000EE
:101C8000F0B5B34B8FB01B78002B0CD0B14C2000BB
:101C900000F076FC042806DDAF49200000F049FC86
:101CA000002800D026E10FB0F0BD062205A92000D3
:101CB00000F0BFFBA94B1B78002BF4D1A027A84D47
:101CC0003B00013BFDD1200000F05AFCA54EB04284
:101CD00002DC013D002DF3D1200000F051FCB042A8
:101CE000E1DD8023A04D9B00EF180026200000F0CE
:101CF00063FCA8550136802EF8D18035BD42F4D161
:101D000001210B2001F082FFFEF760FFCBE7A02648
:101D1000964D200000F034FC012805DC3300013B27
:101D2000FDD1013D002DF4D105AD01222900200097
:101D300000F07FFB2878062835D802F0FFFD04402C
:101D400034648D34B600A027884E200000F018FCC3
:101D5000222805DC3B00013BFDD1013E002EF4D1E1
:101D600023222900200000F064FB8148EA7B037CE9
:101D7000934205D020237F4902740C7823430B70D3
:101D80001130040001000B2209A802F085FF002891
:101D900009D04023774A200011780B43137009A91A
:101DA0000B2202F088FF744A1378002B04D1704B89
:101DB0000533D97F714B19700123137073E7A02687
:101DC0006A4D200000F0DCFB152805DC3300013BE8
:101DD000FDD1013D002DF4D112226949200000F00F
:101DE00028FB200000F0E8FB664D2870200000F082
:101DF000E3FB6870200000F0DFFBA870200000F01B
:101E0000DBFBE870CFE7A026584D200000F0B8FBC0
:101E1000012805DC3300013BFDD1013D002DF4D14B
:101E2000200000F0C9FBC5B2012D06D0022D04D060
:101E300000215548FEF77CF909E0052000F01CF967
:101E400003A90123002241200D70FEF72DFE4F490A
:101E5000200000F083F9A6E74D4B1D78002DF6D148
:101E60000122290048481A70FEF762F96422494BA2
:101E7000494E1A70494B3570187801F0F3FE484B03
:101E80000500187801F0EEFEED0080000543032008
:101E900001F0E8FE07000B2001F0E4FE7F0005439F
:101EA00030783D4305433570D1E7A0262F4D200003
:101EB00000F066FB012805DC3300013BFDD1013D4C
:101EC000002DF4D103A90622200000F0B2FA00216F
:101ED0002D48FEF72DF966E7324C3349200000F01B
:101EE0002BF969782B78090219430A22200000F0A7
:101EF0008AF9D8E6052201A9200000F09AFA6B467B
:101F00005D1D6B782A781B021343C822920193420D
:101F100000D1FCE6A022D201934200D1C5E6802286
:101F200092019342D8D1A026104D200000F028FB4A
:101F3000012805DC3300013BFDD1013D002DF4D12A
:101F4000022205A9200000F074FAFFF771FDAAE64D
:101F50002F000020883E0020C14E0000E815002020
:101F600010270000FF010000E1110020881300008D
:101F7000A817002027000020F21500201C180020C0
:101F8000000000201200002084010020484E0000C4
:101F90008001002082010020810100201C0000201F
:101FA0003100002028180020C94E000010B5FFF7AE
:101FB000B5F9FEF7A3F9FEF797FDFEF741FEFEF730
:101FC00083F9FEF725FBFEF743FCFEF7EFF9FFF779
:101FD000CDFA022000F050F8FFF752FE022000F088
:101FE0004BF810BD03BEFEE7034B10B51B68002B7A
:101FF00000D0984710BDC0462018002070B50F498A
:102000000F4CA14204D100F04DF900F051F8FEE769
:102010000C4D00238D42F6D0CA18E818A24205D311
:102020009042F0D0084B0949002204E000680433D4
:102030001060F1E704C38B42FCD3E4E7000000200A
:10204000500100207057000050010020F84E002081
:1020500010B500F02AF8002801D100F01BF810BDDF
:10206000014B18607047C04620180020014B1868CB
:102070007047C0462418002070B5041E07D0044DD8
:102080002E6800F011F82B689B1B9C42F9D870BD9C
:102090002418002010B5034A13680133136000F0C0
:1020A000C5F810BD24180020704700207047704705
:1020B00010B501F045FC02F0C1FDFFF7F8FF01206B
:1020C000FFF7DAFF084C200000F0B0FE200000F01F
:1020D00025FFFFF7C3FAFFF769FF044B002BFAD087
:1020E00000E000BFF7E7C0464418002000000000F1
:1020F00000207047F7B506000D000C008B18019307
:10210000019B671B9C4207D0336821781B68300015
:10211000984701340028F3D13800FEBD70B50500A2
:102120000C00081E07D002F047FE2B6802005B6817
:1021300021002800984770BD10B5FFF7EFFF10BDD4
:1021400010B503681B68984710BD000010B5024920
:10215000FFF7E4FF10BDC0460852000070B5040050
:10216000FFF7DCFF05002000FFF7F0FF401970BD0E
:10217000F0B5160000228DB002AB053301900D00C2
:10218000DA77012E00DC0A260BAC2800310002F0C1
:1021900065FC0F00CBB228003100009302F0D8FBA1
:1021A000FBB237330500013CDBB2092F02D8009B9C
:1021B0003033DBB22370002DE7D121000198FFF707
:1021C000ADFF0DB0F0BDF8B506000C00151E04D132
:1021D0000368C9B21B689847F8BDD2B20A2D0DD169
:1021E0002A0000290ADA2D21FFF7AAFF6142070021
:1021F0002A003000FFF7BCFF3818EDE7210030005F
:10220000FFF7B6FFE8E710B5FFF7DDFF10BD0000F0
:10221000014B18607047C046340000200122024B79
:1022200052421A607047C04634000020164A10B56A
:102230001368591C27D0013B1360002B23D172B6C1
:10224000124B134A0433934208D8BFF34F8F114AFD
:10225000114BDA60BFF34F8FC046FDE70F4A0121F3
:102260001000147D0C42FCD02021148BFF319B0800
:102270005B0021431183D361094B13800123027D4D
:102280001A42FCD0E1E710BD34000020000000003D
:10229000030200000400FA0500ED00E000400041E8
:1022A00002A5FFFF1E2270B5464847494368934385
:1022B0001C3A1343436008238C6923438B61434CCE
:1022C000434B9C829C8A14439C82DC681442FCD061
:1022D0000124404A14701578254203D055786DB218
:1022E000002DF8DB01249460547864B2002CFBDBF1
:1022F000394C5460547864B2002CFBDB8224E40136
:102300005480547864B2002CFBDB02249C840E348D
:10231000DD682542FCD0314CDC621024DD682542AA
:10232000FCD09D8C2E4C2C439C841024DD682542CF
:10233000FCD002249D8C80262C439C844024DD68A4
:102340003542FCD0DD682542F9D01024DD682542F5
:10235000FCD000249460547864B2002CFBDB214C48
:102360005460547864B2002CFBDB1C6A1E4D2C4078
:1023700080251C621C6AAC431C62032393601B4BC8
:10238000536053785BB2002BFBDB0023FF240B72FE
:10239000174A4B728B72CB72164B1A60164B174A48
:1023A0001B6811689A065B01C90E2340520F120286
:1023B0000B431343124A138580234268134343603F
:1023C00070BDC04600400041000400400C06000003
:1023D00000080040000C004001050100B905FF7D28
:1023E000040A000000070300FFFCFFFF03060100D2
:1023F000006CDC02B40000202460800020608000BB
:102400000040004210B50400FFF730FEE060236892
:1024100020005B699847002808DAFFF727FEE36889
:10242000C01AA3689842F2D30120404210BD8160D7
:102430007047F7B50E000C0001908D18A71BAC4239
:1024400007D00198FFF7DEFF002802DB207001347F
:10245000F4E73800FEBD0000F0B50C2387B0039010
:102460000C0008005A438B180193019B98420AD232
:102470004368002B05D1001B224C8010604307B03D
:10248000F0BD0C30F1E70398FFF7BCFF071E36DB09
:102490002000019B9842F6D206688268B35C9F4296
:1024A00008D14368013282609A4210D1041BA41003
:1024B0001448E3E7002A0AD083680293013B836053
:1024C000F15C8F4218D1002B03D1013383600C30B3
:1024D000DFE70021D51A75190495755CAC46049D9B
:1024E0006D5C0595059DAC4502D101318B42F4D858
:1024F0008B42E1D1029BE9E7002BDDD1E7E7012028
:102500004042BCE7ABAAAAAA7FB504000E001500A2
:1025100000210C2201A802F0D7FB012201A9200012
:1025200001960295FFF798FF43425841C0B204B0AC
:1025300070BD70B5050008000C0002F03DFC2100E4
:1025400002002800FFF7E0FF70BD01207047000087
:1025500010B50368014A1B6A984710BD13040000B8
:1025600010B50400006901F071FF2000143001F083
:10257000E3FE024BE01801F0DFFE10BD1C08000076
:1025800010B5143001F0F6FE10BD000010B50400C7
:10259000044BE01801F0EEFE0028F9D1206901F0AB
:1025A0006AFF10BD1C08000010B5024BC01801F0F6
:1025B000EFFE10BD1C08000070B5050004001435C6
:1025C000280001F0C3FE084B0600E35CFF2B09D096
:1025D000280001F0DDFE0A2804DD044B044AE3581C
:1025E000A2581A60300070BD2810000030100000A2
:1025F0003410000010B5143001F0DCFE10BD0000F6
:1026000070B5040000690E0001F051FF0D4BE51894
:10261000002804D0280001F0ADFE00280DD02800CD
:1026200001F0D6FE0028FAD12800310001F074FE36
:10263000206901F04DFF012070BD3100206901F0DB
:102640003FFFF8E71C080000F7B51D0008AB1B783A
:102650000400009309AB1B7816000193002343602C
:10266000FA239B0083600F4B0F0008330360143084
:1026700001F042FE0C4BE01801F03EFE6A460B4BA7
:102680002761E6540A4B1278E5540A4B2000E254C5
:102690006A46094B1279E254FF23084AA354084AB8
:1026A000A354FEBD0C5200001C08000024100000C2
:1026B0002510000026100000271000002810000040
:1026C0003810000070B50400006901F0E0FE002839
:1026D00016D02500206901F0EFFE14350100280016
:1026E00001F01AFE184BE35CFF2B09D0280001F023
:1026F0004FFE092804DC154B154AE358A2581A600E
:10270000206901F0D4FE00280DD0124BE5182800F6
:1027100001F030FE002812D0280001F017FEC1B2EF
:10272000206901F0CDFE206901F0B6FE002805D039
:10273000206901F0B5FE206901F0A5FE70BD206999
:1027400001F0CCFEEFE7C046281000002C1000007E
:10275000341000001C080000F020014030394842CD
:1027600048417047F0231B011940802306209B003D
:1027700099420AD00133FF330130994205D08023BA
:1027800002385B00994200D0002070470F200140C2
:102790000020012903D00239481E8141481C70479E
:1027A000F0B5182685B0334B02910400C05C3300AD
:1027B00008214343304D1700EB18595601F06AFACF
:1027C0002E4B0821E05C33004343EB18595601F0CF
:1027D00061FA2B4BE25C0393022A09D1294BE05C9E
:1027E000FF2805D008214643AE19715601F052FA70
:1027F000254EA05DFF2816D0012101F0BBF918225B
:10280000A35D22495A43AB56AD180122DB0158188B
:102810001F4960501F495B181F49635069688A400F
:102820001E4962501A600122029B1100206901F0CA
:10283000BFFF39002000FFF795FF39000500200099
:10284000FFF7A4FF390006002000FFF785FF3300E3
:10285000009029002069012201F0CCFD104B206975
:10286000E25C039BE15C01F0DFFD206901F0FAFD11
:1028700005B0F0BD24100000EC520000251000004F
:1028800027100000381000002810000018440041F4
:102890002C100000144400413010000034100000DF
:1028A000261000003F20704713B56B460268D971AF
:1028B0000733546819000122A04716BD10B5022144
:1028C000006900F02DFC10BD10B50321006900F077
:1028D0003DFC10BD10B5130004000A00006903217F
:1028E00000F02EFD002801D10123636010BD00001F
:1028F00010B5054C23685A1C04D103685B699847DE
:1029000003002060180010BD88000020074B020063
:10291000186810B5411C03D0012252421A6010BD44
:102920000221106900F0FEFCF9E7C0468800002093
:1029300010B503784222023303700249024800F0C6
:10294000ABFD10BD440000204418002010B50178F4
:10295000030042780020A12908D1212A05D11A3A82
:102960001649174800F098FD012010BD2129FCD11F
:10297000202A11D1193A1149114800F02BFC962256
:102980000E4BD2001968914203D10124D87904403A
:102990000ED0FFF743FC0EE0222A03D19A78074BB2
:1029A000DA71ECE7232AE0D15A88064B1A60DCE79B
:1029B000FA20FFF72DFC0020D7E7C0463C0000209E
:1029C000441800203800002070470000FA2200213F
:1029D000054B92009A60054A596008321A60044A11
:1029E00019761A617047C04628180020405200002E
:1029F0004418002030B50F25CB1D013902002A40B4
:102A0000140000093034092A01DD373214001C702B
:102A1000013B8B42F2D130BD70B5C026C1B21B4C18
:102A20004B01E3189A681A4DB6052A4032439A6062
:102A3000184A800110180A005860072024680832DC
:102A40005201115D8143080001210143702011559D
:102A500099692940314399610F495961115D814359
:102A6000080010210143115599680C48A21808402C
:102A700080214903014399609968890B8903996012
:102A8000402351790B43537170BDC046FC1C00209C
:102A9000FFFFFF8F301A002070180020FF3F00F06A
:102AA00070B50400012320CC00212A7820001343B4
:102AB00080222B70520002F007F9AB78DB07FCD4C0
:102AC0006C6270BD1F22144B70B51B68590B9C0CB7
:102AD0009B0111405B0F22401F2900D11A391F2A88
:102AE00000D1023A072B00D1043B1F2500688E015C
:102AF000048D0A492A40214031430185018D14008B
:102B00000A00AA4322430285028D1903044B134095
:102B10000B43038570BDC046246080003FF8FFFF73
:102B2000FF8FFFFFEFF3108303600123436072B652
:102B300070470368002B02D162B6BFF36F8F7047F6
:102B400037B5056904006846002D14D1FFF7EAFF88
:102B5000019B621D013B02D3D57FEDB2FAE76846C7
:102B60000193FFF7E6FF002D01D100203EBD206A52
:102B7000E369C01AFAE7FFF7D5FF22000025019BA1
:102B80003432013B02D31578EDB2FAE7684601937F
:102B9000FFF7CFFF002DE8D0206BE36AE9E70000E4
:102BA000F0B501254668037A31685A018C18FF3464
:102BB000A77AB2183D43A572C468094D9068A40471
:102BC000284024092043906090680833800B8003DC
:102BD000906040225B01CB1819790A431A71F0BD4D
:102BE000FF3F00F0F7B5036904000E0017006846C8
:102BF000002B3DD1FFF796FF019B611D013B5A1C45
:102C00000CD0CD7F5A1EEDB2002D05D16846019340
:102C1000FFF78FFF2800FEBD1300F0E76846019321
:102C20000025FFF786FFE369AF4202D0226A934294
:102C300057D3226A9342EDD10023E361013323612C
:102C40006846FFF76FFF22000021019B671D013BD3
:102C50003532581CDAD0F97710785E1E002805D07E
:102C6000117020000193FFF79BFFECE73300F0E7C2
:102C7000FFF758FF2100019B3431013B5A1C06D05D
:102C80000D785A1EEDB2002DC0D01300F6E768464D
:102C900001930025FFF74DFFE36ABD4202D0226B8E
:102CA000934226D3226B9342B4D100236846E36259
:102CB0002361FFF737FF270022000021019B3437F3
:102CC000013B3532581CA1D0397010785E1E0028A7
:102CD00005D0117020000193FFF762FFEBE733008E
:102CE000F0E75A1CE261A269D3181B7873550135CD
:102CF00099E75A1CE262A26AD3181B787355013512
:102D0000CAE7F7B5027A4368110004000831186871
:102D100049014118C879C00727D501255201CD7155
:102D20009B189A6861699204920C002921D1226251
:102D3000226A002A3ED0A26A656168465A60FFF79F
:102D4000F1FE27002100019B661D013B3437353120
:102D50005A1C2BD0F5773A78581ED2B2002A05D0EB
:102D6000019368460D70FFF7E4FEF7BD0A7003009B
:102D7000EEE72263226B002A1CD000226261A26966
:102D800068465A60FFF7CEFE26002100019B3436CC
:102D9000013B671D35315A1C08D03570FA7F581E2B
:102DA000D2B2002ADCD10A700300F4E7684601932E
:102DB000FFF7BFFE2000FFF7F3FED6E737B56B46FF
:102DC000DC1D00230D0020002370FFF7B1FD2B68F0
:102DD0001818286001F0A0FD210001F059FD2B68B2
:102DE0001818286020783EBD03290ED180220E4B92
:102DF00062311B68FF31585C524202435A546822C8
:102E00006339FF39FF32995470470129FCD1802280
:102E1000054B24311B68FF31585C524202435A541F
:102E20002339FF392822EDE7FC1C002070B500256E
:102E30002F4B012104001A201D7000F09BFE012180
:102E40001A2000F0E3FE2B4B012119201D7000F029
:102E500091FE0121192000F0D9FE2023264A0F20DF
:102E6000D1690B43D361012224490B7813430B70C2
:102E7000234B19788143197006211D782943197055
:102E800020490D782A430A701A7802401A7060228D
:102E900019780A431A701C4B1C4A5A805A78D20976
:102EA000FCD11B48FFF7DCF81A4D2800FFF7F8FDAE
:102EB0002800FFF707FE7F212B68C1201A788000C9
:102EC0000A401A70042219780A430C211A701A89D0
:102ED0008A4311491A810A581202120A0A508022A2
:102EE0000A6019787E3A0A431A700123237070BD74
:102EF0006518002064180020000400405844004178
:102F00003C44004159440041000C00400640000090
:102F100021390000FC1C002000E100E000780028BE
:102F200010D00121084B1B681A898A431A81082294
:102F3000198B0A431A830422198B0A431A8300222D
:102F4000024B1A607047C046FC1C0020F41C002095
:102F500010B50F4A93699B0B9B0393611368022280
:102F6000FF331A729879823A02439A711A7A920759
:102F7000FCD57F24074A2140937A0800A343190017
:102F8000802301439172917A5B420B43937210BD8F
:102F9000FC1C00200050004110B50B790C00002BE8
:102FA0000CD10800FFF7D2FC002801D0012010BD91
:102FB000094A93699B0B9B039361F7E701F0ACFC13
:102FC000210001F098FC0028F0D1034A93699B0B83
:102FD0009B039361EBE7C046FC1C0020F7B50D0096
:102FE000832A19D1CBB2404C5A01A21891693F48AB
:102FF000AD010840C0218905014391613C49206829
:103000004D197021083355615B011A5C8A43110028
:1030100040220A431A54F7BD022A3DD1382001F05C
:1030200067F9344B8027036000232F4E7F00421D39
:10303000036203614361C36146608560C760D37703
:103040002F32C3620363040013703800537001F021
:1030500019FE0190A061380001F014FEEBB25A0194
:10306000A062B2189168214808330840C021890540
:1030700001439160306807265B01195CAD00B143E4
:103080000E00032131431954019B20005360FFF7C8
:1030900087FD194BEC50BEE7822A1FD1CBB2124CF0
:1030A0005A01A21891691148AD010840C021890553
:1030B000014391610E4908334D1980215561226801
:1030C0005B01D01804794942214301717020995C59
:1030D000814308003021014399549CE7002A9AD18A
:1030E0000800FFF799FC96E7FC1C0020FFFFFF8F0C
:1030F000701800206C5200004818002070B50500C0
:103100000124064BA200D258002A05D02100280035
:10311000FFF764FF0134F4E770BDC0468C00002067
:10312000084B8A00D05810B5002803D003689B686C
:10313000984710BDC9B2044B4901591888688004EA
:10314000800CF6E748180020FC1C002010B50C008D
:10315000FFF7E6FF00280CD0064BE4B21B680834EA
:1031600064011C19802362795B421343637102235B
:10317000E37110BDFC1C002070B5134BCCB2134A98
:10318000600189015918131859609968104D083465
:103190000D40802189022943402599609968890B57
:1031A0008903996011686301CB181E7935431D713D
:1031B0009D796D06FCD564010919CB79DB07FCD537
:1031C00012189068C0B270BD301A0020FC1C00209C
:1031D000FF3F00F070B5140040220B4B0D001B6840
:1031E000FF3359790A435A710021FFF7C5FFA04206
:1031F00000D9200000230549A34203D05A5CEA54B9
:103200000133F9E770BDC046FC1C0020301A0020D5
:1032100010B5C9B20B484901421893689B049B0C36
:103220003F2B0BDD9468403B9B04A40B9B0CA40339
:103230002343936041188868C0B210BD93689B0B0C
:103240009B03F6E7FC1C0020F0B51C00304B85B05A
:103250001B6806000D000192002B55D02D4F3978C8
:10326000C9B2002902D1192000F0D0FC64233B70C0
:10327000294BAA00D058002808D0036822005B68B8
:10328000019998470400200005B0F0BD29003000E6
:10329000FFF746FF844204D929003000FFF740FFC2
:1032A000040029003000FFF7B3FF0121EBB21B4FF0
:1032B00003935B010293029A3B6801989B18FF33CA
:1032C0005A7A0A4316495A72AB01C918220001F012
:1032D000F2FC002CD7D029003000FFF721FF002896
:1032E000D1D14021039B3A6808335B01D318187988
:1032F000014319710121D9710121029BD318FF33B8
:103300009A7A0A439A72BEE701246442BBE7C04638
:10331000F41C00206418002048180020FC1C002029
:10332000301A002013B56B46DC1D22000123FFF785
:103330008BFF012801D1207816BD01204042FBE718
:10334000F0B51E003A4B85B01B680F000192002BB0
:103350003FD08023DB019E423BD8364C2178C9B256
:10336000002902D11A2000F051FC64230025324AC2
:103370002370BB01D3180293002E2CD02F4B1B6857
:103380000393FF233B401C0000930834039B64011C
:103390001C19A379DB0921D0294B2A49186801F0AF
:1033A000D7FA294B1721584301F0D2FA274BE2797B
:1033B000920713D4DA5D002A01D10138F7D2012235
:1033C000DA55009B5A011D4B9B189A69920B920388
:1033D0009A6101256D42280005B0F0BD00221B4B0B
:1033E0003400DA553F2E00D93F242200019902987B
:1033F00001F061FC009BA1045A01104B890C9B1841
:10340000029A2D195A619A69361B920B92030A434C
:103410009A61009B039A08335B01D3180222DA7188
:103420005979823A0A435A71019B1B190193A3E708
:10343000F41C00206518002070180020FC1C0020DF
:10344000B400002040420F007011010067180020F6
:1034500070B50D001C000D4EAB01F61811003000C8
:10346000220001F028FCEDB209496D014D196E6191
:10347000AB69084A20001340AB61AB69A2049B0B07
:10348000920C9B031343AB6170BDC04670180020C3
:10349000FC1C0020FF3F00F0F7B5104B01901B789B
:1034A0000F001500002B0CD10D4B16001C78002CC2
:1034B00009D00C4E0C4834880019641901F0FBFB4C
:1034C00034802800FEBD002EFBD03A1933000021C5
:1034D0000198FFF7BDFF2418361AF4E7F01B00200F
:1034E000F11C0020F21C0020F11B0020F8B5002088
:1034F00000AF0E001500012A26DDD31D6A46DB0849
:10350000DB00D31A9D46080001F056FC6C460323ED
:10351000002101304000207063705A1ED2B29542E3
:103520000BDD3078002808D00136A0549D4203D02E
:10353000E1540233DBB2F0E72A0021000348FFF731
:10354000ABFF431E9841C0B2BD46F8BD44180020F1
:10355000F0B50027012687B01E4B009102A91E700E
:1035600005000297FFF72AFC03AC019009223900FD
:10357000200001F0A9FB09232370022363709E330E
:10358000E3715A332372029B6671093363806B4681
:103590001B7923710F4B1F70009B092B07D11A0059
:1035A00021002800FFF778FF012007B0F0BD0A4B8B
:1035B00009221E70094E2100280002973780FFF76C
:1035C0006BFF02A92800FFF7F9FB034B32881F703D
:1035D0000349E6E7F01B0020F11C0020F21C00204C
:1035E000F11B002070B5CE7892B005000C00022EC1
:1035F00008D1C9882B48FFF7ABFF431E9841C0B2E2
:1036000012B070BD01F088F9210001F055F90028D1
:1036100003D0C317181AC00FF2E7012E0BD1E288AE
:103620002149112A10DCD2B2002A0DD02800FFF760
:1036300033FF0120E4E7032EE2D1A378002B05D16C
:10364000E2881A49032AEEDD0A78EFE7022B05D15A
:10365000A27917492800FFF749FFD1E7012B02D1D2
:10366000A2791449F6E7032BCAD1134B01A91868B4
:10367000FFF7C0F9114B03A91868FFF7BBF9104B0E
:1036800005A91868FFF7B6F90E4B07A91868FFF7E8
:10369000B1F901F041F909A901F01EF9A27901A9D6
:1036A000D8E7C04644180020965200008652000019
:1036B000785200008A5200000CA0800040A08000D8
:1036C00044A0800048A0800073B5060048780D0033
:1036D0000B2811D801F032F9061D102E1043487046
:1036E0004C4F696C097801AA002907D10223117097
:1036F00051703000FFF7ACFE012076BD002313703F
:1037000053702E4B1B78012B00D113700223002124
:10371000EFE78A780023012A04D101AA13705370BD
:10372000274BEFE7254A1370264A93699B0B9B03AF
:103730009361E1E78C78012C06D10021204B01AA8E
:103740001C7011702300D4E7002C08D101201B4B02
:103750001C4A187093699B0B9B039361CDE7A97872
:103760003000FFF7F5FBC7E73000FFF73BFFC4E78A
:103770000123154ACBE70B780020DB06BDD13000D2
:10378000FFF7BCFC2A200221AA780F4BFF301A60F9
:103790000C4A13681C5C21434A241954FF34195DF8
:1037A0002938FF3801431955D4E70123074AAEE70A
:1037B0008A78064B1A60B7E700209EE7661800205B
:1037C0006E180020FC1C0020F41C0020F81C0020B7
:1037D0004B4BF7B51C780700002C7CD1494E336861
:1037E0009B8B1B070DD52000FFF716F932681023BD
:1037F0001100FF31887A03438B72434B1C6008230E
:10380000938333689A8B52071FD504229A833F4AC9
:103810001378002B0AD01378013BDBB213701378B6
:10382000002B03D101211A2000F0F0F9384A137857
:10383000002B0AD01378013BDBB213701378002BF6
:1038400003D10121192000F0E1F93368FF331A7A1E
:10385000D20620D510221A72597930320A435A7191
:1038600060232C4938000A781A4235D1FFF72CFF23
:10387000002834D0802233685242FF3399790A43BA
:103880009A713368FF331A7A520604D540221A72AD
:10389000597A0A435A72336800251C8C01239C43D1
:1038A000E4B20193E9B2002C15D023002B41019A18
:1038B00013420DD02B00326808335B01D318DA793C
:1038C000D20713D4DB799B0710D4019BAB409C43F8
:1038D0000135092DE6D1F7BDFFF75EFBC8E72022D1
:1038E0000D4BCDE703681B689847EEE70B4BAA002A
:1038F000D0580028F6D13800FFF776FAE5E7C04641
:10390000F11C0020FC1C0020F41C00206518002085
:1039100064180020301A0020FF5000414818002091
:1039200010B50248FFF754FF10BDC04644180020F0
:10393000014A024B1A60704700500041FC1C0020F5
:10394000FA21314B10B51868890001F001F82F4BAE
:103950000138984256D82E492E4A4860C020136A32
:1039600000061B021B0A03431362002407238C601A
:103970000B608021136A09061B021B0A0B431362AA
:10398000FC22254B196A0A431A62FC22196A920129
:103990000A431A62A022196AD2020A431A6220005C
:1039A0000021013400F0E6F8142CF8D11B4B1C0068
:1039B0005A7852B2002AFBDB194A5A80194B1A0076
:1039C000597EC9090129FBD0E421C90099803F2112
:1039D000D970537EDB09012BFBD0C02300205B0193
:1039E0001361907000F02EF863785BB2002BFBDB64
:1039F0000D4B0E4A6380D379DB09012BFBD04123A9
:103A0000537010BDFEE7C046B4000020FFFFFF006A
:103A100010E000E000ED00E000040040000C004079
:103A20001E400000004000422140000000480042CB
:103A3000914202D002D98A1AD0407047521A90405F
:103A4000FBE70000164A00B51300517EC9090129A1
:103A5000FBD00138042816D81969124A0A400F21F0
:103A60001A615A788A4300F069FF0308060B0300C5
:103A7000110001220A435A7000BD11000322F9E728
:103A800011000222F6E7F02311691B050B430F21F9
:103A9000136153788B43190002230B435370EBE7F8
:103AA00000400042FFFFFFF010B504000D2800D8D1
:103AB0000E340121200000F0EDF80E2C0DD1284B22
:103AC0001900DA79D209012AFBD002201A78824340
:103AD0001A70CB79DB09012BFBD022490B004A7EFF
:103AE000D209012AFBD0182262431F4CA418207C63
:103AF0001F240A692040A24302430A615A7ED20968
:103B0000012AFBD0022219780A431A705A7ED20980
:103B1000012AFBD00222197B0A431A7301221A766A
:103B20005A7ED209012AFBD00222197B0A431A735A
:103B30001A7ED207FCD5588B80B25A7ED209012A50
:103B4000FBD002211A788A431A705A7ED209012AC0
:103B5000FBD0064B1A68064B1968FFF769FF10BDCA
:103B60000048004200400042EC520000BC0000202F
:103B7000B8000020182330B51D000400454308207C
:103B8000204A55192856013014D0032912D80800AC
:103B90006343D156D31800F0D1FE02280E1B58689B
:103BA000CB010221184A9B181A18403211700122C9
:103BB00082405A6030BD5868CB010621124A9B18DA
:103BC0001A1840321170012282405A609A61F1E75E
:103BD0005868CB0106210C4A9B181A184032117004
:103BE000012282405A605A61E4E75868CB01022101
:103BF000054A9B181A1840321170012282409A60BF
:103C0000D8E7C046EC520000004400411823F0B54C
:103C100008245843114A13181C5701341BD001269D
:103C200035005F688356BD400D4ADB019A189068E5
:103C300028420BD10C00601E8441D219403210780A
:103C400034400336A400B04320431070044A9B184C
:103C5000002901D15D61F0BD9D61FCE7EC520000DF
:103C600000440041182310B5082458430749002395
:103C70000A181457013406D043560549DB015B1876
:103C80001B6A5268D3400120184010BDEC5200005E
:103C900000440041F8B50300182058432A4A101880
:103CA000007A40B20400013013D0481C00240C28D4
:103CB0000FD800F043FE451C1C1C1C1C1C1C1C07C0
:103CC00007070700092906D100211800FFF752FF56
:103CD00000242000F8BD0A2901D10839F5E70024A5
:103CE0000B29F6D10A391800FFF744FFF1E7182035
:103CF0004343D018466801253400D2561348D201F8
:103D000012187308D31830332C401878002C0BD0BD
:103D10000F24090120400143C9B2921919704032A1
:103D200013781D431570D3E70F27B8430143921949
:103D3000C9B21970130040331A7815431D70C8E7D3
:103D400001246442C5E7C046EC5200000044004133
:103D500030B5094D094CAB685B035B0F9B001C59E8
:103D60000460AB6801619BB243606343A40083605D
:103D7000C460426130BDC04600400041A85200000E
:103D8000F7B580261A4D03336F689B083E436E607B
:103D90000191002B2BD0174E2E802E7DF107FCD5E4
:103DA0001E0001689F1B89088F4219D2002E17D070
:103DB000FF2117788C433C430F4957780C403F0252
:103DC0003C439778013E39040C4F2740D478BFB26A
:103DD0000F43240601993C4310C101910432E0E7EE
:103DE000074B2B802B7DDB07FCD53300D1E7F7BDDC
:103DF0000040004144A5FFFFFF00FFFFFFFF00FF61
:103E000004A5FFFF044B054A4908D9611A801A7DB1
:103E1000D207FCD57047C0460040004102A5FFFF15
:103E200070B5050016000C00EB68210028009E42CA
:103E300005D9FFF7E7FFEB68E418F61AF4E7FFF798
:103E4000E1FF70BD10B510001A0000F034FF10BD86
:103E5000437A002B04D18372C372C360013343726F
:103E6000704730B5040085B002AD0068029103923E
:103E700000F063FB6B79227AE179009320680023DC
:103E800000F0C8FC2979029A206800F02BFB20681A
:103E900000F04AFB05B030BD70B518260400FFF7EE
:103EA000D7FF3300082120790D4D4343EB185956B5
:103EB000FFF7F0FE33000821A0794343EB18595671
:103EC000FFF7E8FE082160794643AD196956FFF710
:103ED000E1FE044B200006CBFFF7C3FF70BDC046D8
:103EE000EC520000101E002007B5837A0091019269
:103EF000002B07D09A070AD5EFF3108253425341A3
:103F0000C37272B60099019AFFF7ABFF07BDDB07DA
:103F1000F8D58389014A9360F4E7C0460018004051
:103F200010B5006800F012FB10BD0000094B0A4AF2
:103F30000A491A6000225A711A71094B1960162138
:103F40001971023199710139597116395A72D97141
:103F50001A727047101E002000093D00D44E002048
:103F6000001E0020F8B505000E0017000024BC421A
:103F700008D02B68315D1B6828009847002801D0C5
:103F80000134F4E72000F8BD704710B5183000F098
:103F9000F1F910BD10B5183000F0D8F910BD70B5AA
:103FA000837D0D00002B01D1002070BD82231B01F9
:103FB000C418200000F00CFA0028F5D120002900D8
:103FC00000F0AAF90120F0E710B5183000F0F2F97E
:103FD00010BD0000F7B50193FA2300259B00836014
:103FE0000B4B040008334560036018300F001600C7
:103FF00000F082F982231B01E01800F07DF96B4686
:104000001B7927612675A57520006375FEBDC04626
:10401000C852000070B5060018250C49006900F070
:104020001DFC306900F0AAFA2B000821307D084CF5
:104030004343E3185956FFF72DFE0821707D454391
:1040400064196156FFF726FE70BDC046A0860100C8
:10405000EC52000070B504000D00006900F0A1FAF8
:104060002900206900F0FAFB206900F087FA70BD92
:10407000054B10B5C15482231B010400C01800F089
:104080005BF90123A37510BD281000000022F8B5CC
:10409000184B827504000E00C15C006900F0B8FA8C
:1040A000002806D10321206900F096FA0225280095
:1040B000F8BD82231B01E518280000F05BF90028F9
:1040C0000FD02800276900F041F9C1B2380000F094
:1040D000CBFA0028EDD10321206900F07DFA0325F9
:1040E000E5E70500002EE2D00321206900F074FA14
:1040F000DDE7C0462810000010B50121FFF7C6FF1C
:1041000010BD000070B50400006900F0CDFA002871
:1041100027D0206900F0D6FA00280ED1206900F0DF
:10412000DBFA002851D0206900F0D1FA00284CD0E9
:10413000206900F0D6FA002847D1206900F042FA41
:104140000321206900F048FA304BE558002D04D0D7
:10415000236820001B699847A8472000183000F00A
:10416000EBF870BD206900F02DFA2069032100F002
:1041700033FA206900F0B5FA0028F2D082231B013F
:10418000E01800F0D9F80123A375214BE358002B68
:10419000E7D09847E5E725001835280000F018F922
:1041A000002807D0206900F005FA0321206900F0FB
:1041B00013FAD6E7206900F099FA0100280000F010
:1041C000ABF8206900F0FEF9EFE7206900F084FA0F
:1041D0000028C7D1206900F070FA0028C1D02069FA
:1041E00000F07FFA0028D6D082231B01E5182800B2
:1041F00000F0C0F8FF21002803D0280000F0A6F846
:10420000C1B2206900F042FAA075AAE730100000A0
:104210002C10000010B50248FFF774FF10BDC04617
:10422000181E002010B51523142202490248FFF77A
:10423000D1FE10BDD04E0020181E002010B502483F
:10424000FEF740FA10BDC046883E002010B5024877
:10425000FEF738FA10BDC0464C2E0020F7B50124F9
:104260000326154F1549380000F0C2F814491548C7
:1042700000F0BEF81449154800F0BAF81449154882
:1042800000F0B6F81449154800F0B2F8144D15497D
:10429000280000F0ADF839000096230001940022B8
:1042A0001148FEF7D1F90096290001941E231F2220
:1042B0000E48FEF7C9F9F7BDC44E002000080042C1
:1042C000000C0042C84E002000100042CC4E0020DE
:1042D00000140042D04E002000180042D44E0020AE
:1042E000D84E0020001C0042883E00204C2E0020AA
:1042F00010B500F0C7FC10BD70B580252D012A0057
:104300000021040000F0E0FC0023024A6351200079
:10431000A35070BD040800008022120130B58458FB
:10432000044D631C45595B055B0D9D4201D0015551
:10433000835030BD04080000802200231201835006
:10434000014A83507047C046040800008022084993
:10435000120143588258934206D0C25C01335B0578
:104360005B0D43501000704701204042FBE7C04600
:10437000040800008023054A1B01C3588058181AFE
:1043800002D580231B01C0187047C04604080000F6
:104390008023064A1B01C3588058834203DBC01A9E
:1043A000034BC0187047C01A0138FBE7040800002F
:1043B000FF0700008022054B1201C3588258934228
:1043C00001D0C05C704701204042FBE704080000B8
:1043D00080231B01C358054A013380585B055B0DE0
:1043E000181A43425841C0B27047C0460408000042
:1043F00001607047F0B505AC25780468981E471E2B
:10440000B841266892070006324302430720226023
:104410000140AD01626829430020022B00D05803FF
:10442000114301436160F0BD10B5C0240368A403CB
:104430001868120522400243C0200904800201408E
:10444000114319605A681043586010BD0122036877
:1044500019680A431A601A68D207FCD4DA69D207CD
:10446000F9D470470222036819680A431A60DA69AE
:104470009207FCD4704703681A7ED20702D41A7ED2
:104480009207FCD57047002203685A83704703687F
:10449000187E4007C00F70470368187EC009704738
:1044A000802302685B42117E0B43137670470368DA
:1044B000187EC007C00F70470368188DC0B27047E0
:1044C00003681A7ED207FCD589B20120198570478E
:1044D00001230268917D0B439375704701220368A5
:1044E0001A75704770B5012504684B082B402940A8
:1044F000206809075B070B4303432360510003480F
:1045000000F026FA0138C0B2207370BD006CDC02E6
:104510000122036819680A431A601A68D207FCD49A
:10452000DA69D207F9D470470222036819680A438E
:104530001A60DA699207FCD470470368DA69920757
:10454000FCD402211A688A431A6070470268936A91
:104550005B0A5B0219439162137E5B07FCD5906A8C
:10456000C0B270470122036819680A431A601A68CA
:10457000D207FCD4DA69D207F9D470470222036863
:1045800019680A431A60DA699207FCD430215A8B01
:104590008A43110010220A435A83DA695207FCD475
:1045A0007047022103681A688A431A60DA69920721
:1045B000FCD4704780230268DB02116851680B430A
:1045C00053607047036803491A685A680A405A6082
:1045D0007047C046FFFFFBFF036810B51868032251
:1045E000C006400F094C052809D15868114009043C
:1045F000204001435960DA695207FCD410BD586865
:1046000011400904204001435960F7E7FFFFFCFF18
:1046100049001143036810B5CCB2598B8906890F44
:10462000012904D0598B8906890F0229F5D1596ACD
:10463000C90AC90221435962002A0CD0187E80079A
:10464000C00F0BD11A7ED207F8D5C022596892024A
:104650000A435A6010BD1A7ED207FCD5588B40071A
:10466000C30F01205840F5E703681A002832117083
:10467000187EC007C00F03D15A8BD207F8D57047F8
:10468000588B4007C30F01205840F8E7036800200B
:104690001A00283211701A7E520704D5588B012354
:1046A0004007C00F5840704703681868C006400FA5
:1046B000043843425841C0B270470368187E40072F
:1046C000C00F70470368187EC007C00F70470368AB
:1046D000588BC006C00F70470368187E8007C00F54
:1046E00070470368588B0007C00F704703681A684B
:1046F000D206520F052A02D11A7E9207FCD5283322
:104700001878C0B2704700000368214A30B5934260
:1047100011D0204A93422FD01F4A93422FD01F4AD4
:1047200093422FD01E4A93422FD01E4A934222D149
:104730000E23192201E009231422012103259940A7
:104740001948C024016099082B40AB40FC359D40BE
:1047500089000918A4000859A843C0259D402B00D2
:1047600003430B518023DB011A43104B5A805A78C4
:1047700052B2002AFBDB30BD0A231522DDE70B23F2
:104780001622DAE70C231722D7E70D231822D4E7E5
:1047900000080042000C00420010004200140042D9
:1047A00000180042001C004200E100E0000C004044
:1047B000F8B5040016000F001D00FFF7A5FF20004C
:1047C000FFF744FE1C22BB00134072072468120C42
:1047D000134323608423A375012F18D11021012EC8
:1047E00000D008390A4B69431868C00000F0B0F8DF
:1047F0000722A3890240DB045203DB0C1343A3818D
:104800000304A089DB0C400B40031843A081F8BDD2
:10481000B4000020F7B50700019308AB1E780D0027
:104820001400FFF775FE3800FFF76EFFC022240565
:1048300092031440B2070C2607211643019A344311
:104840000A40C02611008022B6022D043B68354084
:10485000920225430A431D605A60F7BD70B50400FB
:104860000D00FFF751FF2000FFF77CFE14232468A2
:1048700069002360054B186800F06AF8FF22431EA8
:10488000E068134090431843E06070BDB40000201E
:1048900070B50E0000254468002C0BD02368310051
:1048A0005B6820009847002802DB2D18E468F3E7D6
:1048B00001256D42280070BD70B50D004468002CC4
:1048C00008D0236829009B6820009847002802D15F
:1048D000E468F4E7200070BD70B50D004468002C5A
:1048E00007D0236829002000DB689847E4682D186A
:1048F000F5E72C7070BD70B50D004468002C08D031
:10490000236829001B6820009847002802D1E4682A
:10491000F4E7200070BD00000121064A10B51368BD
:1049200005480B4005D102240470241944704360EB
:10493000116010BDDC4E0020E04E002002B4714634
:1049400049084900095C49008E4402BC7047C046D2
:10495000002243088B4274D303098B425FD3030ABE
:104960008B4244D3030B8B4228D3030C8B420DD3D1
:10497000FF22090212BA030C8B4202D3121209025F
:1049800065D0030B8B4219D300E0090AC30B8B429D
:1049900001D3CB03C01A5241830B8B4201D38B034B
:1049A000C01A5241430B8B4201D34B03C01A5241F0
:1049B000030B8B4201D30B03C01A5241C30A8B4233
:1049C00001D3CB02C01A5241830A8B4201D38B021E
:1049D000C01A5241430A8B4201D34B02C01A5241C2
:1049E000030A8B4201D30B02C01A5241CDD2C30934
:1049F0008B4201D3CB01C01A524183098B4201D3B0
:104A00008B01C01A524143098B4201D34B01C01A9A
:104A1000524103098B4201D30B01C01A5241C30812
:104A20008B4201D3CB00C01A524183088B4201D381
:104A30008B00C01A524143088B4201D34B00C01A6D
:104A40005241411A00D20146524110467047FFE7D9
:104A500001B5002000F0F0F802BDC0460029F7D0F3
:104A600076E7704703460B437FD4002243088B420E
:104A700074D303098B425FD3030A8B4244D3030BE5
:104A80008B4228D3030C8B420DD3FF22090212BAAA
:104A9000030C8B4202D31212090265D0030B8B4226
:104AA00019D300E0090AC30B8B4201D3CB03C01A10
:104AB0005241830B8B4201D38B03C01A5241430BEB
:104AC0008B4201D34B03C01A5241030B8B4201D3DB
:104AD0000B03C01A5241C30A8B4201D3CB02C01A46
:104AE0005241830A8B4201D38B02C01A5241430ABE
:104AF0008B4201D34B02C01A5241030A8B4201D3AD
:104B00000B02C01A5241CDD2C3098B4201D3CB0153
:104B1000C01A524183098B4201D38B01C01A524102
:104B200043098B4201D34B01C01A524103098B4206
:104B300001D30B01C01A5241C3088B4201D3CB00F1
:104B4000C01A524183088B4201D38B00C01A5241D4
:104B500043088B4201D34B00C01A5241411A00D284
:104B600001465241104670475DE0CA0F00D04942ED
:104B7000031000D34042534000229C4603098B425D
:104B80002DD3030A8B4212D3FC22890112BA030AE5
:104B90008B420CD3890192118B4208D38901921167
:104BA0008B4204D389013AD0921100E08909C309EC
:104BB0008B4201D3CB01C01A524183098B4201D3EE
:104BC0008B01C01A524143098B4201D34B01C01AD9
:104BD000524103098B4201D30B01C01A5241C30851
:104BE0008B4201D3CB00C01A524183088B4201D3C0
:104BF0008B00C01A5241D9D243088B4201D34B00DB
:104C0000C01A5241411A00D20146634652415B101C
:104C1000104601D34042002B00D5494270476346FD
:104C20005B1000D3404201B5002000F005F802BD42
:104C30000029F8D016E770477047C04670B50026C7
:104C40000C4D0D4C641BA410A64209D1002600F0A7
:104C5000CBF80A4D0A4C641BA410A64205D170BDC6
:104C6000B300EB5898470136EEE7B300EB5898478E
:104C70000136F2E724010020240100202401002055
:104C80004001002010B5034B0100186800F024F823
:104C900010BDC046C000002030B50024A24201D1A2
:104CA000002005E0035D651C0C5DA34201D0181BCC
:104CB00030BD2C00F2E7002310B59A4200D110BDA0
:104CC000CC5CC4540133F8E703008218934200D14E
:104CD000704719700133F9E7032370B5CD1C9D436C
:104CE000083506000C2D1ED20C25A9421DD8300017
:104CF00000F069F8254A14682100002919D1244CD4
:104D00002368002B03D1300000F044F82060290014
:104D1000300000F03FF8431C2CD10C2330003360EE
:104D200000F052F803E0002DDFDA0C23336000209E
:104D300070BD0B685B1B1AD40B2B03D90B60CC180E
:104D4000256003E08C420ED163681360300000F0F0
:104D50003BF8200007220B30231D9043C31AE7D0F5
:104D60005A42E250E4E74B6863600C00EEE70C0047
:104D70004968C2E70323C41C9C43A042E0D0211A27
:104D8000300000F007F8431CDAD1C6E7E84E0020F7
:104D9000EC4E0020002370B5064C0500080023608F
:104DA00000F014F8431C03D12368002B00D02B60C3
:104DB00070BDC046F44E00200023C25C0133002ABF
:104DC000FBD1581E7047704770470000044A1368B3
:104DD000002B03D01818106018007047014BF9E73A
:104DE000F04E0020F84E0020F8B5C046F8BC08BCD4
:104DF0009E467047F8B5C046F8BC08BC9E46704752
:104E00000C11161B20252A2F34393EFFFFFF00000E
:104E1000000000FFFFFF4172742D4E657400465381
:104E2000454E433D5750413250534B2C4145530062
:104E300046534B45593D71756965746F6E73657462
:104E40000041542B000D002B6F6B004152544E4516
:104E5000543D31004152544E45543D300046535369
:104E60005349443D52617470616320414B53004E7D
:104E70004554503D5544502C434C49454E542C36D6
:104E80003435342C31302E31302E3130302E323515
:104E900035005753535349443D5261747061632048
:104EA000414B530057414B45593D575041325053A8
:104EB0004B2C4145532C71756965746F6E73657425
:104EC000004172742D4E657400556E6B6E6F776E77
:104ED000204172744E6574204F70436F64653A20B0
:104EE0000057726974696E6720454550524F4D00F6
:104EF00052617470616320414B53202D20446573CF
:104F000069676E6564206279205261747061632004
:104F100044696D6D6572730057534B45593D575049
:104F2000413250534B2C4145532C71756965746F58
:104F30006E736574002B2B2B0061004C696E6B69DE
:104F40006E6700556E6C696E6B696E67005F7265A7
:104F50006200454E544D00465645573D656E6162B0
:104F60006C6500465645573D64697361626C650027
:104F70004C414E4E3D31302E31302E39392E3235A6
:104F8000342C3235352E3235352E3235352E300033
:104F90004C414E4E3D31302E31302E3130302E329C
:104FA00035342C3235352E3235352E3235352E30DE
:104FB00000574D4F44453D53544100574D4F4445D4
:104FC0003D41500052454C44005741503D31314223
:104FD000474E2C52617470616320414B532C4348FF
:104FE000310057414E4E3D444843502C31302E3114
:104FF000302E3130302E3130302C3235352E3235A6
:10500000352E3235352E302C31302E31302E313098
:10501000302E323534004D534C503D4F4E004D53E1
:105020004C503D4F464600000000000000000000CC
:105030000000000000000000000000000000000070
:105040000000000000000000000000000000000060
:105050000000000000000000000000000000000050
:105060000000000000000000000000000000000040
:105070000000000000000000000000000000000030
:105080000000000000000000000000000000000020
:105090000000000000000000000000000000000010
:1050A0000000000000000000000000000000000000
:1050B00000000000000000000000000000000000F0
:1050C00000000000000000000000000000000000E0
:1050D00000000000000000000000000000000000D0
:1050E00000000000000000000000000000000000C0
:1050F00000000000000000000000000000000000B0
:10510000000000000000000000000000000000009F
:10511000000000000000000000000000000000008F
:10512000000000000000000000000000000000007F
:10513000000000000000000000000000000000006F
:10514000000000000000000000000000000000005F
:10515000000000000000000000000000000000004F
:10516000000000000000000000000000000000003F
:10517000000000000000000000000000000000002F
:10518000000000000000000000000000000000001F
:10519000000000000000000000000000000000000F
:1051A00000000000000000000000000000000000FF
:1051B00000000000000000000000000000000000EF
:1051C00000000000000000000000000000000000DF
:1051D00000000000000000000000000000000000CF
:1051E00000000000000000000000000000000000BF
:1051F00000000000000000000000000000000000AF
:105200005F7265626F6F74000D0A0000000000009D
:105210000000000001260000F5200000A925000084
:105220008D25000081250000B9250000F52500002E
:1052300051250000A1270000612500004B2500003A
:105240000000000000000000A9280000D528000090
:10525000A5280000C9280000BD2800000D29000075
:10526000F12800000000000000000000032D0000F5
:10527000E52B0000412B000041726475696E6F20C0
:105280005A65726F00000403090441726475696E07
:105290006F204C4C430012010002EF0201404123F9
:1052A0004D80000101020301080000001000000011
:1052B000200000004000000080000000000100000D
:1052C00000020000000400000000000000000000D8
:1052D0009F3F0000653F0000F1200000893F000073
:1052E0008B3F0000953F0000C93F00000000000018
:1052F0000B0000000200000004000000FF00FFFFA0
:10530000FFFF0B00000000000A0000000200000088
:1053100004000000FF00FFFFFFFF0A000000000084
:105320000E0000000800000004000000FF00FFFF66
:10533000FFFF0E0000000000090000000400000054
:105340001C000000FF000100010009000000000037
:1053500008000000040000001C000000FF00000026
:1053600000001000000000000F000000040000001A
:105370001C000000FF00010301030F0000000000FB
:1053800014000000050000002C000000FF000200D7
:1053900002000400000000001500000005000000ED
:1053A0002C000000FF0003000300050000000000C7
:1053B00006000000040000001C000000FF000001C7
:1053C00000010600000000000700000004000000CB
:1053D0001C000000FF0001010101070000000000A7
:1053E00012000000040000001C000000FF00000389
:1053F0000003020000000000100000000400000094
:105400001C000000FF00000200020000000000007D
:1054100013000000050000002C000000FF00030046
:105420000300030000000000110000000400000061
:105430001C000000FF00010201020100000000004A
:105440000200000001000000020000000000FFFF59
:10545000FFFF020001000000080000000100000042
:105460001800000002000004000408000100000011
:105470000900000001000000180000000300010402
:105480000104090000000000040000000100000009
:10549000000000000400FFFFFFFF04000000000008
:1054A0000500000001000000000000000500FFFFF3
:1054B000FFFF0500010000000200000001000000E5
:1054C000000000000A00FFFFFFFF020000000000D4
:1054D000160000000200000004000000FF00FFFFB3
:1054E000FFFF06000000000017000000020000009F
:1054F00004000000FF00FFFFFFFF070000000000A6
:105500000C0000000300000004000000FF00FFFF8B
:10551000FFFF0C00010000000A0000000300000073
:1055200004000000FF00FFFFFFFF0A000100000071
:105530000B0000000300000004000000FF00FFFF5C
:10554000FFFF0B0001000000030000000B00000043
:1055500004000000FF00FFFFFFFFFF00000000004D
:105560001B0000000B00000004000000FF00FFFF14
:10557000FFFFFF00000000001C000000060000000C
:1055800000000000FF00FFFFFFFFFF000000000021
:10559000180000000600000000000000FF00FFFFF0
:1055A000FFFFFF00000000001900000006000000DF
:1055B00000000000FF00FFFFFFFFFF0001000000F0
:1055C000160000000300000000000000FF00FFFFC5
:1055D000FFFFFF00010000001700000003000000B3
:1055E00000000000FF00FFFFFFFFFF0000000000C1
:1055F000160000000200000000000000FF00FFFF96
:10560000FFFFFF0000000000170000000200000084
:1056100000000000FF00FFFFFFFFFF000000000090
:10562000130000000200000000000000FF00FFFF68
:10563000FFFFFF000000000010000000020000005B
:1056400000000000FF00FFFFFFFFFF000000000060
:10565000120000000200000000000000FF00FFFF39
:10566000FFFFFF000000000011000000020000002A
:1056700000000000FF00FFFFFFFFFF000000000030
:105680000D000000040000000C000000FF000100FD
:10569000FFFF0D00000000001500000005000000E5
:1056A0000C000000FF000300FFFFFF0000000000EF
:1056B00006000000040000000C000000FF000001D4
:1056C000FFFFFF00000000000700000004000000D2
:1056D0000C000000FF000101FFFFFF0000000000C0
:1056E000030000000100000002000000FF00FFFFB7
:1056F000FFFFFF00000000000200000001000000AA
:10570000020000001400FFFFFFFF02000000000085
:105710000000000000000000000000000000000089
:105720000000000000000000000000000000000079
:105730000000000000000000000000000000000069
:105740000000000000000000000000000000000059
:105750000000000000000000000000000000000049
:105760000000000000000000000000000000000039
:1057700052617470616320414B532020202020200F
:1057800020200A0A64FE000032000000120000001F
:10579000EE020000080909FF1300000001010101E9
:1057A00001110000FFFFFFFFFFFFFFFF00C201002C
:1057B00000000800080B00020202000009040000BB
:1057C0000102020000052400100104240206052441
:1057D00006000105240101010705810310001009DD
:1057E000040100020A000000070502024000000751
:1057F0000583024000000000FFFFFFFF00000000E3
:105800008300000002000000820000000000000091
:105810000000000000000000000000000000000088
:105820000000000040420F000A0000000A000000D3
:10583000C4000020000000002C5700004C5700005E
:105840000C570000000000000000000000000000F5
:105850000000000000000000000000000000000048
:105860000000000000000000000000000000000038
:105870000000000000000000000000000000000028
:105880000000000000000000000000000000000018
:1058900000000000DD000000950C0000CD29000094
:1058A000313900002D3F0000254200005D4200001C
:1058B000B500000000000000000000000000000033
:0400000300001FFDDD
:00000001FF
