:1000000000800020490B0000310B0000310B000084
:1000100000000000000000000000000000000000E0
:10002000000000000000000000000000310B000094
:100030000000000000000000310B00009D0B0000DC
:10004000310B0000310B0000310B0000310B0000C0
:10005000310B0000310B0000310B0000350B0000AC
:10006000310B0000552B00007D01000061010000F4
:100070002D2B0000310B0000652B0000310B000020
:10008000310B0000310B0000310B0000310B000080
:1000900000000000310B0000310B0000310B0000AC
:1000A000310B0000310B0000310B0000310B000060
:1000B0000000000010B5064C2378002B07D1054B3B
:1000C000002B02D0044800E000BF0123237010BDC4
:1000D0000002002000000000603D0000084B10B549
:1000E000002B03D00749084800E000BF0748036819
:1000F000002B00D110BD064B002BFBD09847F9E731
:100100000000000004020020603D000020010020EB
:100110000000000010B50400236820001B69984708
:10012000002804D0236820005B699847F4E710BDDD
:1001300010B5040000F040FD2060200010BD10B597
:10014000040000F039FD2368C01A10BD70B504002A
:100150000D0000F031FD401B2060200070BD00004C
:10016000054B1A7ED20905D08022197E52420A43DD
:100170001A765B8B7047C0460010004270B52A4B60
:100180001A7E198D187E5207D20F89B2C00920D06D
:1001900080201C7E404220431876588B800718D55B
:1001A000002101245983214B21481C70FFF7CEFF09
:1001B000204B214D1C702B68002B07D080221F493B
:1001C00092001F4803F0B4F91E4B1C7000232B60F3
:1001D00070BD002AFCD01548C9B20378012B1DD090
:1001E000022BF5D17F25144C2268D3172B40164DD6
:1001F0009B18DB11154004D58026013D764235431E
:1002000001350E4EDB01F31859558023013222606F
:100210009B009A42DCD1FE3BFF3B03E00223002916
:1002200000D000230370D3E7000C0042200200201E
:10023000781200203C1B0020240200201819002006
:10024000181700203D1B00207F000080FA2010B509
:10025000800000F0B7FC00210E2002F0B3F910BDC1
:1002600070B50F2002F0DAF9431E9841364D374C35
:100270002E782070002E09D131003548FFF766FF37
:1002800031003448FFF762FF334B1E702678002E92
:1002900033D001232B702378002B21D02F4B1A78D9
:1002A000002A1DD12A78002A1AD00122284E1A705D
:1002B0003000FFF744FF2A4B984201D9FFF7C6FFF1
:1002C0003000FFF73CFF632806D93000FFF737FF07
:1002D000FA235B0098421ED900213000FFF736FF59
:1002E0002478002C08D11A48FFF729FF1C4B9842AC
:1002F00002D92B78002B13D170BD184B1A78002A25
:10030000C9D0310012481E70FFF720FF310011489C
:10031000FFF71CFFBFE7104A137801331370DBE7C8
:100320000C4D2800FFF70BFF6328E5D901210D4B89
:1003300003201A785140197002F044F92100280076
:10034000FFF704FFD8E7C0463E1B00204D1B0020EE
:10035000581B0020481B00204C1B0020541B002071
:10036000CF07000008000020F0B5194F85B03868AD
:1003700002F076F8174B186064230193164C174E61
:100380002368174D9B0002939B5938680393039A87
:100390002B689B1A2B6002F063F8029B985123682C
:1003A0009A0090592A68013380182860632B0CDC6E
:1003B0002360642102F0A2FF0A4B1860019B013BFD
:1003C0000193002BDAD105B0F0BD0023F0E7C04661
:1003D00004000020441B00205C1B0020601B002048
:1003E000001D002000170020F0B580240E4B0332C2
:1003F0005D6892082C435C600C4D0D4C002A11D0B6
:100400001C801E7DF607FCD50E00403680C9013ADF
:1004100080C0B14201D0002AF8D11D801E7DF607B0
:10042000FCD5EBE7F0BDC0460040004104A5FFFF4E
:1004300044A5FFFF044B054A4008D8611A801A7D85
:10044000D207FCD57047C0460040004102A5FFFF1F
:10045000F8B5802705000E0004007F00331BEB1861
:100460002000BB4204D90134FFF7E4FFFF34F5E775
:10047000FFF7E0FFF8BD0000194B10B51B78002B0B
:1004800014D0184C2000FFF75AFE174B1B889842D7
:100490000CD30121154B1A7851401970144B187860
:1004A00002F090F800212000FFF750FE114B1B785E
:1004B000002B14D0104C2000FFF741FE0F4B1B887F
:1004C00098420CD301210E4B1A78514019700D4BF4
:1004D000187802F077F800212000FFF737FE10BDF2
:1004E00010170020081D00200E000020041D002011
:1004F0000C00002008170020501B00200A000020DC
:100500004E1B00200000002000228020130030B588
:100510000A4980005458043263408242FAD1084D9F
:10052000180A1C0C58402B6060401B0E8A5CC0B23D
:100530005840101A431E9841404230BD001300201D
:10054000F01C002037B5002418486A464369016949
:10055000019402F053F96A466B4650781D78917801
:10056000134A1B88507015709170124A9818C02257
:100570001202904217D898082200230080259C0080
:10058000ED0164192468013362409842F6D1130AE0
:100590005340100C5840C0B2120E5040401A431E37
:1005A000984140423EBD0120FBE7C046201B002091
:1005B0001C1B002000B8FFFF07B5274B274A28481F
:1005C0001A6000225A711A71FFF7B2FD2548FFF731
:1005D000AFFD2548FFF7ACFD2448FFF7A9FD032236
:1005E0002349244802F090F800F0E6FA224B186004
:1005F00000F0E2FA214B18602148FFF799FD2148ED
:10060000FFF796FD2048FFF793FD2048FFF790FD88
:100610001F48FFF78DFD1F48FFF78AFD1E48FFF7B3
:1006200087FD1E48FFF784FD1D48FFF781FD1D482B
:10063000FFF77EFD00F0C0FA1B4B0C22186001236F
:1006400001930233009319490733194800F0CCFC99
:100650001848FFF76DFD07BDF41C002080841E00C4
:10066000701200202C020020280200201C02002012
:1006700000370000201B0020081D0020501B002018
:1006800014170020581B0020481B0020401B00208E
:10069000181B002078120020041700200C1D0020D9
:1006A0000C1700207412002030020020B8530020E4
:1006B00034020020FC1C0020F8B5624B624F1B780E
:1006C000624D002B03D00C233B70023B2B700121A9
:1006D0000E2001F02BFF01210E2001F073FF0121FC
:1006E000032001F023FF02210F2001F01FFF0D2046
:1006F000022101F01BFF0D2001F090FF002802D124
:100700000122534B1A7001210B2001F00FFF002131
:100710000B2001F057FF01211A2001F007FF4D497E
:100720004D4800F021FEE1214C4E8902300000F0DE
:10073000DFFB4B4A47494B4800F002FD02210A20EB
:1007400001F084FF02210C2001F080FF464C2000C4
:1007500002F036F92000454902F052F90121052046
:1007600001F0E4FE0121062001F0E0FE404C2000F3
:1007700002F06EF83F4B200006CB02F091F83E4CA1
:100780000121207801F0D2FE0121112001F0CEFEDE
:100790002878012101F0CAFE2878012101F012FF1A
:1007A0003878022101F0C2FE0121207801F00AFF11
:1007B000642000F007FA2078002101F003FFFFF722
:1007C000D3FD2E4D2E4B2A689A421CDCFA204000A5
:1007D00000F0F8F90121207801F0F4FE642000F027
:1007E000F1F90021207801F0EDFE642000F0EAF933
:1007F0000121207801F0E6FE642000F0E3F9207882
:10080000002101F0DFFE1F4B2A689A4209DC2078A4
:10081000012101F0D7FEFA20800000F0D3F9FFF7A4
:1008200015FD30000A2100F04EFB0122164B00217D
:1008300016481A70FFF78AFC0023154A1370154AF0
:100840001370F8BD3F1B00200200002001000020B3
:100850001117002090D00300181D002078430020BD
:10086000330400003402002008230020801A060010
:10087000F0220020F41C00200000002000170020BF
:10088000CF030000A702000010170020081D002061
:100890000817002012170020F0B58E4C85B0207884
:1008A00006281FD802F096FC2500340025003400ED
:1008B000F20071000700884E300000F031FB002884
:1008C00010DD0027854D20222900300000F0FDFAC0
:1008D000834928002F7202F0BEFEB84204D13000D6
:1008E000FFF718FC05B0F0BD2B7B072BF7D1277065
:1008F000F8E7794D2800FFF70DFC7A49280000F051
:10090000C9F90323002178482370FFF71FFCE9E7AA
:10091000754E3000FFF713FCC7282ED86E4D280007
:1009200000F0FEFA0028DDDD6C4F032239002800BC
:1009300000F0CBFA002338006C49FB7002F07AFE1D
:10094000071E17D1842180204902C001FFF780FDD6
:100950002800FFF7DFFB6649280000F09BF939000B
:100960003000FFF7F3FB052380222370614BD20197
:100970001A60B7E72800FFF7CDFB2378032B02D1DD
:1009800004232370AEE70223FBE7574F3800FFF73D
:10099000D6FBC72868D8504D280000F0C1FA0028BF
:1009A000A0DD4E4E04223100280000F08EFA0190A6
:1009B000042801D00623E4E700234F4930003371B7
:1009C00002F038FE002826D131000322280000F072
:1009D0007CFA4A49337803220B70737803A84B7072
:1009E000B3788B7002F0A4FD454E72693169300016
:1009F00001F0F2FE736903AA3169300001F09CFE38
:100A00003B49280000F046F9FA20800000F0DAF8AF
:100A10006B461B79B5E7FE24FF34311D2200280008
:100A200000F053FAA04209D02800FFF773FB3549C4
:100A3000280000F02FF90021380066E7FFF764FD79
:100A400001900028F0D180222A4C310092002068C9
:100A5000FFF7CAFC8022236892009B1828002360BD
:100A6000FFF758FB2249E3E70125274B00211D70C2
:100A7000264B27481D70FFF769FB00212548FFF72B
:100A800065FB2900032001F09DFD93E7FFF75AFD68
:100A9000431C13D10623237001241B4B00211C701F
:100AA0001A4B1B481C70FFF751FB00211948FFF738
:100AB0004DFB2100032001F085FD13E772B6164BB4
:100AC0001A68043B196881F3088814498B60104741
:100AD00008E7C046121700207843002000130020CA
:100AE000C0360000C836000014170020CF360000C2
:100AF000D3360000381B0020D63600001C1B002017
:100B0000201B0020DB3600001017002008170020F3
:100B1000081D0020501B00200440000000ED00E0F4
:100B200010B5FFF79DFBFFF7B7FEFFF7A5FC10BD63
:100B300003BEFEE7034B10B51B68002B00D098479F
:100B400010BDC046101D002070B50F490F4CA142CA
:100B500004D100F0F3F800F051F8FEE70C4D00234B
:100B60008D42F6D0CA18E818A24205D39042F0D0C0
:100B7000084B0949002204E0006804331060F1E7E3
:100B800004C38B42FCD3E4E70000002030010020C6
:100B9000643D000000020020E853002010B500F082
:100BA0002AF8002801D100F01BF810BD014B186095
:100BB0007047C046101D0020014B18687047C046A2
:100BC000141D002070B5041E07D0044D2E6800F0DF
:100BD00011F82B689B1B9C42F9D870BD141D002096
:100BE00010B5034A13680133136000F06BF810BDB1
:100BF000141D0020704700207047704710B501F0A9
:100C00006FFB02F067FCFFF7F8FF62B60520FFF705
:100C1000D9FF084C200000F0D9FD200000F04EFE66
:100C2000FFF74AFDFFF77CFF034B002BFAD000E0F3
:100C300000BFF7E7341D00200000000000207047CF
:100C4000F7B506000D000C008B180193019B671B84
:100C50009C4207D0336821781B68300098470134E4
:100C60000028F3D13800FEBD70B505000C00081E49
:100C700007D002F0E9FC2B6802005B682100280025
:100C8000984770BD10B50249FFF7EEFF10BDC04692
:100C90000038000070B50400FFF7E6FF05002000F3
:100CA000FFF7F0FF401970BD014B18607047C04658
:100CB000100000200122024B52421A607047C046C9
:100CC00010000020164A10B51368591C27D0013BAC
:100CD0001360002B23D172B6124B134A0433934294
:100CE00008D8BFF34F8F114A114BDA60BFF34F8F13
:100CF000C046FDE70F4A01211000147D0C42FCD0D4
:100D00002021148BFF319B085B0021431183D361A9
:100D1000094B13800123027D1A42FCD0E1E710BD8C
:100D20001000002000000000030200000400FA058B
:100D300000ED00E00040004102A5FFFF1E2270B55B
:100D400046484749436893431C3A1343436008238A
:100D50008C6923438B61434C434B9C829C8A144394
:100D60009C82DC681442FCD00124404A147015783F
:100D7000254203D055786DB2002DF8DB0124946034
:100D8000547864B2002CFBDB394C5460547864B264
:100D9000002CFBDB8224E4015480547864B2002CE4
:100DA000FBDB02249C840E34DD682542FCD0314CF0
:100DB000DC621024DD682542FCD09D8C2E4C2C4337
:100DC0009C841024DD682542FCD002249D8C802662
:100DD0002C439C844024DD683542FCD0DD682542EC
:100DE000F9D01024DD682542FCD0002494605478AA
:100DF00064B2002CFBDB214C5460547864B2002CAC
:100E0000FBDB1C6A1E4D2C4080251C621C6AAC4317
:100E10001C62032393601B4B536053785BB2002B1F
:100E2000FBDB0023FF240B72174A4B728B72CB72D1
:100E3000164B1A60164B174A1B6811689A065B011D
:100E4000C90E2340520F12020B431343124A13855B
:100E5000802342681343436070BDC0460040004198
:100E6000000400400C06000000080040000C004098
:100E700001050100B905FF7D040A00000007030019
:100E8000FFFCFFFF03060100006CDC029000002065
:100E900024608000206080000040004210B5040003
:100EA000FFF78AFEE060236820005B69984700280E
:100EB00008DAFFF781FEE368C01AA3689842F2D30C
:100EC0000120404210BD81607047F7B50E000C0054
:100ED00001908D18A71BAC4207D00198FFF7DEFFE9
:100EE000002802DB20700134F4E73800FEBD00006A
:100EF00010B50368014A1B6A984710BD130400002F
:100F000010B50400006901F02DFF2000143001F03D
:100F10009FFE024BE01801F09BFE10BD1C08000074
:100F200010B5143001F0B2FE10BD000010B5040081
:100F3000044BE01801F0AAFE0028F9D1206901F065
:100F400026FF10BD1C08000010B5024BC01801F0B0
:100F5000ABFE10BD1C08000070B505000400143580
:100F6000280001F07FFE084B0600E35CFF2B09D050
:100F7000280001F099FE0A2804DD044B044AE358D6
:100F8000A2581A60300070BD281000003010000018
:100F90003410000010B5143001F098FE10BD0000B0
:100FA00070B5040000690E0001F00DFF0D4BE5184F
:100FB000002804D0280001F069FE00280DD0280088
:100FC00001F092FE0028FAD12800310001F030FE35
:100FD000206901F009FF012070BD3100206901F096
:100FE000FBFEF8E71C080000F7B51D0008AB1B78F6
:100FF0000400009309AB1B781600019300234360A3
:10100000FA239B0083600F4B0F00083303601430FA
:1010100001F0FEFD0C4BE01801F0FAFD6A460B4BA7
:101020002761E6540A4B1278E5540A4B2000E2543B
:101030006A46094B1279E254FF23084AA354084A2E
:10104000A354FEBD043800001C080000241000005A
:1010500025100000261000002710000028100000B6
:101060003810000070B50400006901F09CFE0028F3
:1010700016D02500206901F0ABFE143501002800D0
:1010800001F0D6FD184BE35CFF2B09D0280001F0DE
:101090000BFE092804DC154B154AE358A2581A60C8
:1010A000206901F090FE00280DD0124BE5182800B1
:1010B00001F0ECFD002812D0280001F0D3FDC1B2F0
:1010C000206901F089FE206901F072FE002805D038
:1010D000206901F071FE206901F061FE70BD206998
:1010E00001F088FEEFE7C046281000002C10000039
:1010F000341000001C080000F02001403039484244
:1011000048417047F0231B011940802306209B00B3
:1011100099420AD00133FF330130994205D0802330
:1011200002385B00994200D0002070470F20014038
:101130000020012903D00239481E8141481C704714
:10114000F0B5182685B0334B02910400C05C330023
:1011500008214343304D1700EB18595601F076FA39
:101160002E4B0821E05C33004343EB18595601F045
:101170006DFA2B4BE25C0393022A09D1294BE05C08
:10118000FF2805D008214643AE19715601F05EFADA
:10119000254EA05DFF2816D0012101F0C7F91822C5
:1011A000A35D22495A43AB56AD180122DB01581802
:1011B0001F4960501F495B181F49635069688A4086
:1011C0001E4962501A600122029B1100206901F041
:1011D00031FF39002000FFF795FF3900050020009E
:1011E000FFF7A4FF390006002000FFF785FF33005A
:1011F000009029002069012201F088FD104B206930
:10120000E25C039BE15C01F09BFD206901F0B6FD0F
:1012100005B0F0BD24100000E038000025100000EB
:10122000271000003810000028100000184400416A
:101230002C10000014440041301000003410000055
:10124000261000003F20704713B56B460268D97125
:101250000733546819000122A04716BD10B50221BA
:10126000006900F02DFC10BD10B50321006900F0ED
:101270003DFC10BD10B5130004000A0000690321F5
:1012800000F02EFD002801D10123636010BD000095
:1012900010B5054C23685A1C04D103685B69984754
:1012A00003002060180010BD64000020074B0200FE
:1012B000186810B5411C03D0012252421A6010BDBB
:1012C0000221106900F0FEFCF9E7C046640000202E
:1012D00010B503784222023303700249024800F03D
:1012E000ABFD10BD20000020341D002010B501789A
:1012F000030042780020A12908D1212A05D11A3AF9
:101300001649174800F098FD012010BD2129FCD195
:10131000202A11D1193A1149114800F02BFC9622CC
:101320000E4BD2001968914203D10124D8790440B0
:101330000ED0FFF7BFFC0EE0222A03D19A78074BAC
:10134000DA71ECE7232AE0D15A88064B1A60DCE711
:10135000FA20FFF7A9FC0020D7E7C04618000020BC
:10136000341D00201400002070470000FA220021E4
:10137000054B92009A60054A596008321A60044A87
:1013800019761A617047C046181D002034380000D5
:10139000341D002030B50F25CB1D013902002A4035
:1013A000140000093034092A01DD373214001C70A2
:1013B000013B8B42F2D130BD70B5C026C1B21B4C8F
:1013C0004B01E3189A681A4DB6052A4032439A60D9
:1013D000184A800110180A00586007202468083253
:1013E0005201115D81430800012101437020115514
:1013F00099692940314399610F495961115D8143D0
:10140000080010210143115599680C48A2180840A2
:1014100080214903014399609968890B8903996088
:10142000402351790B43537170BDC046EC2100201D
:10143000FFFFFF8F201F0020601D0020FF3F00F0F6
:1014400070B50400012320CC00212A78200013432A
:1014500080222B70520002F074F8AB78DB07FCD4CA
:101460006C6270BD1F22144B70B51B68590B9C0C2D
:101470009B0111405B0F22401F2900D11A391F2AFE
:1014800000D1023A072B00D1043B1F2500688E01D2
:10149000048D0A492A40214031430185018D140001
:1014A0000A00AA4322430285028D1903044B13400C
:1014B0000B43038570BDC046246080003FF8FFFFEA
:1014C000FF8FFFFFEFF3108303600123436072B6C9
:1014D00070470368002B02D162B6BFF36F8F70476D
:1014E00037B5056904006846002D14D1FFF7EAFFFF
:1014F000019B621D013B02D3D57FEDB2FAE768463E
:101500000193FFF7E6FF002D01D100203EBD206AC8
:10151000E369C01AFAE7FFF7D5FF22000025019B17
:101520003432013B02D31578EDB2FAE768460193F5
:10153000FFF7CFFF002DE8D0206BE36AE9E700005A
:10154000F0B501254668037A31685A018C18FF34DA
:10155000A77AB2183D43A572C468094D9068A404E7
:10156000284024092043906090680833800B800352
:10157000906040225B01CB1819790A431A71F0BDC3
:10158000FF3F00F0F7B5036904000E00170068463E
:10159000002B3DD1FFF796FF019B611D013B5A1CBB
:1015A0000CD0CD7F5A1EEDB2002D05D168460193B7
:1015B000FFF78FFF2800FEBD1300F0E76846019398
:1015C0000025FFF786FFE369AF4202D0226A93420B
:1015D00057D3226A9342EDD10023E36101332361A3
:1015E0006846FFF76FFF22000021019B671D013B4A
:1015F0003532581CDAD0F97710785E1E002805D0F5
:10160000117020000193FFF79BFFECE73300F0E738
:10161000FFF758FF2100019B3431013B5A1C06D0D3
:101620000D785A1EEDB2002DC0D01300F6E76846C3
:1016300001930025FFF74DFFE36ABD4202D0226B04
:10164000934226D3226B9342B4D100236846E362CF
:101650002361FFF737FF270022000021019B343769
:10166000013B3532581CA1D0397010785E1E00281D
:1016700005D0117020000193FFF762FFEBE7330004
:10168000F0E75A1CE261A269D3181B787355013543
:1016900099E75A1CE262A26AD3181B787355013588
:1016A000CAE7F7B5027A43681100040008311868E8
:1016B00049014118C879C00727D501255201CD71CC
:1016C0009B189A6861699204920C002921D12262C8
:1016D000226A002A3ED0A26A656168465A60FFF716
:1016E000F1FE27002100019B661D013B3437353197
:1016F0005A1C2BD0F5773A78581ED2B2002A05D062
:10170000019368460D70FFF7E4FEF7BD0A70030011
:10171000EEE72263226B002A1CD000226261A269DC
:1017200068465A60FFF7CEFE26002100019B343642
:10173000013B671D35315A1C08D03570FA7F581EA1
:10174000D2B2002ADCD10A700300F4E768460193A4
:10175000FFF7BFFE2000FFF7F3FED6E737B56B4675
:10176000DC1D00230D0020002370FFF7B1FD2B6866
:101770001818286001F012FD210001F0CBFC2B6845
:101780001818286020783EBD03290ED180220E4B08
:1017900062311B68FF31585C524202435A5468223E
:1017A0006339FF39FF32995470470129FCD18022F7
:1017B000054B24311B68FF31585C524202435A5496
:1017C0002339FF392822EDE7EC21002070B50025F0
:1017D0002F4B012104001A201D7000F0A7FE0121EB
:1017E0001A2000F0EFFE2B4B012119201D7000F094
:1017F0009DFE0121192000F0E5FE2023264A0F203E
:10180000D1690B43D361012224490B7813430B7038
:10181000234B19788143197006211D7829431970CB
:1018200020490D782A430A701A7802401A70602203
:1018300019780A431A701C4B1C4A5A805A78D209EC
:10184000FCD11B48FFF7B2F91A4D2800FFF7F8FD4D
:101850002800FFF707FE7F212B68C1201A7880003F
:101860000A401A70042219780A430C211A701A8946
:101870008A4311491A810A581202120A0A50802218
:101880000A6019787E3A0A431A700123237070BDEA
:10189000551D0020541D0020000400405844004104
:1018A0003C44004159440041000C00400640000007
:1018B000C1220000EC21002000E100E000780028B7
:1018C00010D00121084B1B681A898A431A8108220B
:1018D000198B0A431A830422198B0A431A830022A4
:1018E000024B1A607047C046EC210020E421002022
:1018F00010B50F4A93699B0B9B03936113680222F7
:10190000FF331A729879823A02439A711A7A9207CF
:10191000FCD57F24074A2140937A0800A34319008D
:10192000802301439172917A5B420B43937210BD05
:10193000EC2100200050004110B50B790C00002B69
:101940000CD10800FFF7D2FC002801D0012010BD07
:10195000094A93699B0B9B039361F7E701F01EFC17
:10196000210001F00AFC0028F0D1034A93699B0B87
:101970009B039361EBE7C046EC210020F7B50D0017
:10198000832A19D1CBB2404C5A01A21891693F4821
:10199000AD010840C0218905014391613C4920689F
:1019A0004D197021083355615B011A5C8A4311009F
:1019B00040220A431A54F7BD022A3DD1382001F0D3
:1019C00023F9344B8027036000232F4E7F00421DF4
:1019D000036203614361C36146608560C760D3777A
:1019E0002F32C3620363040013703800537001F098
:1019F00095FD0190A061380001F090FDEBB25A0115
:101A0000A062B2189168214808330840C0218905B6
:101A100001439160306807265B01195CAD00B1435A
:101A20000E00032131431954019B20005360FFF73E
:101A300087FD194BEC50BEE7822A1FD1CBB2124C66
:101A40005A01A21891691148AD010840C0218905C9
:101A5000014391610E4908334D1980215561226877
:101A60005B01D01804794942214301717020995CCF
:101A7000814308003021014399549CE7002A9AD100
:101A80000800FFF799FC96E7EC210020FFFFFF8F8D
:101A9000601D002060380000381D002070B5050072
:101AA0000124064BA200D258002A05D021002800AC
:101AB000FFF764FF0134F4E770BDC0466800002002
:101AC000084B8A00D05810B5002803D003689B68E3
:101AD000984710BDC9B2044B490159188868800461
:101AE000800CF6E7381D0020EC21002010B50C001A
:101AF000FFF7E6FF00280CD0064BE4B21B68083461
:101B000064011C19802362795B42134363710223D1
:101B1000E37110BDEC21002070B5134BCCB2134A19
:101B2000600189015918131859609968104D0834DB
:101B30000D40802189022943402599609968890BCD
:101B40008903996011686301CB181E7935431D71B3
:101B50009D796D06FCD564010919CB79DB07FCD5AD
:101B600012189068C0B270BD201F0020EC21002028
:101B7000FF3F00F070B5140040220B4B0D001B68B6
:101B8000FF3359790A435A710021FFF7C5FFA0427C
:101B900000D9200000230549A34203D05A5CEA542F
:101BA0000133F9E770BDC046EC210020201F002062
:101BB00010B5C9B20B484901421893689B049B0CAD
:101BC0003F2B0BDD9468403B9B04A40B9B0CA403B0
:101BD0002343936041188868C0B210BD93689B0B83
:101BE0009B03F6E7EC210020F0B51C00304B85B0DC
:101BF0001B6806000D000192002B55D02D4F39783F
:101C0000C9B2002902D1192000F0DCFC64233B702A
:101C1000294BAA00D058002808D0036822005B682E
:101C2000019998470400200005B0F0BD290030005C
:101C3000FFF746FF844204D929003000FFF740FF38
:101C4000040029003000FFF7B3FF0121EBB21B4F66
:101C500003935B010293029A3B6801989B18FF3340
:101C60005A7A0A4316495A72AB01C918220001F088
:101C70005FFC002CD7D029003000FFF721FF00289F
:101C8000D1D14021039B3A6808335B01D3181879FE
:101C9000014319710121D9710121029BD318FF332E
:101CA0009A7A0A439A72BEE701246442BBE7C046AF
:101CB000E4210020541D0020381D0020EC210020CC
:101CC000201F002013B56B46DC1D22000123FFF707
:101CD0008BFF012801D1207816BD01204042FBE78F
:101CE000F0B51E003A4B85B01B680F000192002B27
:101CF0003FD08023DB019E423BD8364C2178C9B2CD
:101D0000002902D11A2000F05DFC64230025324A2C
:101D10002370BB01D3180293002E2CD02F4B1B68CD
:101D20000393FF233B401C0000930834039B640192
:101D30001C19A379DB0921D0294B2A49186801F025
:101D400053FA294B1721584301F04EFA274BE279F9
:101D5000920713D4DA5D002A01D10138F7D20122AB
:101D6000DA55009B5A011D4B9B189A69920B9203FE
:101D70009A6101256D42280005B0F0BD00221B4B81
:101D80003400DA553F2E00D93F24220001990298F1
:101D900001F0CEFB009BA1045A01104B890C9B184B
:101DA000029A2D195A619A69361B920B92030A43C3
:101DB0009A61009B039A08335B01D3180222DA71FF
:101DC0005979823A0A435A71019B1B190193A3E77F
:101DD000E4210020551D0020601D0020EC21002082
:101DE0009000002040420F0070110100571D00209C
:101DF00070B50D001C000D4EAB01F618110030003F
:101E0000220001F095FBEDB209496D014D196E619B
:101E1000AB69084A20001340AB61AB69A2049B0B7D
:101E2000920C9B031343AB6170BDC046601D002044
:101E3000EC210020FF3F00F0F7B5104B01901B781C
:101E40000F001500002B0CD10D4B16001C78002C38
:101E500009D00C4E0C4834880019641901F068FB55
:101E600034802800FEBD002EFBD03A19330000213B
:101E70000198FFF7BDFF2418361AF4E7E020002090
:101E8000E1210020E2210020E1200020F8B500201F
:101E900000AF0E001500012A26DDD31D6A46DB08BF
:101EA000DB00D31A9D46080001F0CEFB6C460323ED
:101EB000002101304000207063705A1ED2B295425A
:101EC0000BDD3078002808D00136A0549D4203D0A5
:101ED000E1540233DBB2F0E72A0021000348FFF7A8
:101EE000ABFF431E9841C0B2BD46F8BD341D002073
:101EF000F0B50027012687B01E4B009102A91E7085
:101F000005000297FFF72AFC03AC01900922390073
:101F1000200001F016FB09232370022363709E3317
:101F2000E3715A332372029B6671093363806B46F7
:101F30001B7923710F4B1F70009B092B07D11A00CF
:101F400021002800FFF778FF012007B0F0BD0A4B01
:101F500009221E70094E2100280002973780FFF7E2
:101F60006BFF02A92800FFF7F9FB034B32881F70B3
:101F70000349E6E7E0200020E1210020E2210020E3
:101F8000E120002070B5CE7892B005000C00022E42
:101F900008D1C9882B48FFF7ABFF431E9841C0B258
:101FA00012B070BD01F0FAF8210001F0C7F8002866
:101FB00003D0C317181AC00FF2E7012E0BD1E28825
:101FC0002149112A10DCD2B2002A0DD02800FFF7D7
:101FD00033FF0120E4E7032EE2D1A378002B05D1E3
:101FE000E2881A49032AEEDD0A78EFE7022B05D1D1
:101FF000A27917492800FFF749FFD1E7012B02D149
:10200000A2791449F6E7032BCAD1134B01A918682A
:10201000FFF7C0F9114B03A91868FFF7BBF9104B84
:1020200005A91868FFF7B6F90E4B07A91868FFF75E
:10203000B1F901F0B3F809A901F090F8A27901A96A
:10204000D8E7C046341D00208A3800007A380000E6
:102050006C3800007E3800000CA0800040A080009A
:1020600044A0800048A0800073B5060048780D00A9
:102070000B2811D801F0A4F8061D102E104348704B
:102080004C4F696C097801AA002907D1022311700D
:1020900051703000FFF7ACFE012076BD00231370B5
:1020A00053702E4B1B78012B00D11370022300219B
:1020B000EFE78A780023012A04D101AA1370537034
:1020C000274BEFE7254A1370264A93699B0B9B0326
:1020D0009361E1E78C78012C06D10021204B01AA05
:1020E0001C7011702300D4E7002C08D101201B4B79
:1020F0001C4A187093699B0B9B039361CDE7A978E9
:102100003000FFF7F5FBC7E73000FFF73BFFC4E700
:102110000123154ACBE70B780020DB06BDD1300048
:10212000FFF7BCFC2A200221AA780F4BFF301A606F
:102130000C4A13681C5C21434A241954FF34195D6E
:102140002938FF3801431955D4E70123074AAEE780
:102150008A78064B1A60B7E700209EE7561D0020DC
:102160005E1D0020EC210020E4210020E821002059
:102170004B4BF7B51C780700002C7CD1494E3368D7
:102180009B8B1B070DD52000FFF716F93268102333
:102190001100FF31887A03438B72434B1C60082384
:1021A000938333689A8B52071FD504229A833F4A40
:1021B0001378002B0AD01378013BDBB2137013782D
:1021C000002B03D101211A2000F0FCF9384A1378C2
:1021D000002B0AD01378013BDBB213701378002B6D
:1021E00003D10121192000F0EDF93368FF331A7A89
:1021F000D20620D510221A72597930320A435A7108
:1022000060232C4938000A781A4235D1FFF72CFF99
:10221000002834D0802233685242FF3399790A4330
:102220009A713368FF331A7A520604D540221A7223
:10223000597A0A435A72336800251C8C01239C4347
:10224000E4B20193E9B2002C15D023002B41019A8E
:1022500013420DD02B00326808335B01D318DA79B2
:10226000D20713D4DB799B0710D4019BAB409C436E
:102270000135092DE6D1F7BDFFF75EFBC8E7202247
:102280000D4BCDE703681B689847EEE70B4BAA00A0
:10229000D0580028F6D13800FFF776FAE5E7C046B7
:1022A000E1210020EC210020E4210020551D002028
:1022B000541D0020201F0020FF500041381D002029
:1022C00010B50248FFF754FF10BDC046341D002072
:1022D000014A024B1A60704700500041EC21002077
:1022E000FA21374B10B51868890000F07DFF354B97
:1022F000013898425ED83449344A4860C020136A95
:1023000000061B021B0A03431362002407238C6090
:102310000B608021136A09061B021B0A0B43136220
:10232000FC222B4B196A0A431A62FC22196A920199
:102330000A431A62A022196AD2020A431A620E2CB8
:1023400001D0032C37D10121200000F0EFF801214A
:10235000200000F037F90134142CF0D11D4B1C0083
:102360005A7852B2002AFBDB1B4A5A801B4B1A00D8
:10237000597EC9090129FBD0E421C90099803F2178
:10238000D970537EDB09012BFBD0C02300205B01F9
:102390001361907000F032F863785BB2002BFBDBC6
:1023A0000F4B104A6380D379DB09012BFBD041230B
:1023B000537010BDFEE70021200000F0B7F8CAE717
:1023C00090000020FFFFFF0010E000E000ED00E0C3
:1023D00000040040000C00401E400000004000428D
:1023E0002140000000480042914202D002D98A1ADE
:1023F000D0407047521A9040FBE70000164A00B5E3
:102400001300517EC9090129FBD00138042816D8D0
:102410001969124A0A400F211A615A788A4300F05A
:10242000CFFE0308060B0300110001220A435A7075
:1024300000BD11000322F9E711000222F6E7F023A4
:1024400011691B050B430F21136153788B4319004E
:1024500002230B435370EBE700400042FFFFFFF005
:1024600010B504000D2800D80E340121200000F022
:10247000EDF80E2C0DD1284B1900DA79D209012A7A
:10248000FBD002201A7882431A70CB79DB09012B2A
:10249000FBD022490B004A7ED209012AFBD0182228
:1024A00062431F4CA418207C1F240A692040A243C9
:1024B00002430A615A7ED209012AFBD0022219780E
:1024C0000A431A705A7ED209012AFBD00222197BD4
:1024D0000A431A7301221A765A7ED209012AFBD0C6
:1024E0000222197B0A431A731A7ED207FCD5588B35
:1024F00080B25A7ED209012AFBD002211A788A437F
:102500001A705A7ED209012AFBD0064B1A68064B74
:102510001968FFF769FF10BD004800420040004203
:10252000E03800009800002094000020182330B507
:102530001D00040045430820204A55192856013043
:1025400014D0032912D808006343D156D31800F0E1
:1025500037FE02280E1B5868CB010221184A9B182F
:102560001A1840321170012282405A6030BD5868FA
:10257000CB010621124A9B181A1840321170012211
:1025800082405A609A61F1E75868CB0106210C4AF3
:102590009B181A1840321170012282405A605A6109
:1025A000E4E75868CB010221054A9B181A1840320B
:1025B0001170012282409A60D8E7C046E0380000DE
:1025C000004400411823F0B508245843114A131859
:1025D0001C5701341BD0012635005F688356BD406F
:1025E0000D4ADB019A18906828420BD10C00601E3E
:1025F0008441D2194032107834400336A400B043ED
:1026000020431070044A9B18002901D15D61F0BD80
:102610009D61FCE7E038000000440041182310B53C
:1026200008245843074900230A181457013406D0D8
:1026300043560549DB015B181B6A5268D3400120F1
:10264000184010BDE038000000440041F8B5030018
:10265000182058432A4A1018007A40B2040001306A
:1026600013D0481C00240C280FD800F0A9FD451CED
:102670001C1C1C1C1C1C1C0707070700092906D171
:1026800000211800FFF752FF00242000F8BD0A299E
:1026900001D10839F5E700240B29F6D10A391800D1
:1026A000FFF744FFF1E718204343D018466801259F
:1026B0003400D2561348D20112187308D31830339D
:1026C0002C401878002C0BD00F2409012040014326
:1026D000C9B292191970403213781D431570D3E7AF
:1026E0000F27B84301439219C9B219701300403340
:1026F0001A7815431D70C8E701246442C5E7C04637
:10270000E03800000044004130B5094D094CAB6889
:102710005B035B0F9B001C590460AB6801619BB2BB
:1027200043606343A4008360C460426130BDC0461F
:10273000004000419C380000F7B580261A4D033355
:102740006F689B083E436E600191002B2BD0174EA3
:102750002E802E7DF107FCD51E0001689F1B890885
:102760008F4219D2002E17D0FF2117788C433C439B
:102770000F4957780C403F023C439778013E39049B
:102780000C4F2740D478BFB20F43240601993C4335
:1027900010C101910432E0E7074B2B802B7DDB0752
:1027A000FCD53300D1E7F7BD0040004144A5FFFF51
:1027B000FF00FFFFFFFF00FF04A5FFFF044B054ADA
:1027C0004908D9611A801A7DD207FCD57047C046E6
:1027D0000040004102A5FFFF70B5050016000C0087
:1027E000EB68210028009E4205D9FFF7E7FFEB6860
:1027F000E418F61AF4E7FFF7E1FF70BD10B510001A
:102800001A0000F095FE10BD437A002B04D18372AC
:10281000C372C36001334372704730B5040085B0A2
:1028200002AD00680291039200F013FB6B79227AEB
:10283000E17900932068002300F02EFC2979029AA8
:10284000206800F0DBFA206800F0FAFA05B030BD2D
:1028500070B518260400FFF7D7FF33000821207950
:102860000D4D4343EB185956FFF7F0FE3300082196
:10287000A0794343EB185956FFF7E8FE0821607929
:102880004643AD196956FFF7E1FE044B200006CB25
:10289000FFF7C3FF70BDC046E038000000230020F2
:1028A00007B5837A00910192002B07D09A070AD5C9
:1028B000EFF3108253425341C37272B60099019AEA
:1028C000FFF7ABFF07BDDB07F8D58389014A9360AB
:1028D000F4E7C04600180040094B0A4A0A491A604A
:1028E00000225A711A71094B1960162119710231AF
:1028F00099710139597116395A72D9711A72704722
:102900000023002000093D00C4530020F0220020D5
:10291000F8B505000E0017000024BC4208D02B6853
:10292000315D1B6828009847002801D00134F4E786
:102930002000F8BD704710B5183000F0A7F910BDA1
:1029400010B5183000F08EF910BD70B5837D0D0004
:10295000002B01D1002070BD82231B01C418200070
:1029600000F0C2F90028F5D12000290000F060F93C
:102970000120F0E710B5183000F0A8F910BD0000F4
:10298000F7B50193FA2300259B0083600B4B0400ED
:1029900008334560036018300F00160000F038F966
:1029A00082231B01E01800F033F96B461B79276185
:1029B0002675A57520006375FEBDC046BC380000B5
:1029C00070B5060018250C49006900F089FB3069D4
:1029D00000F054FA2B000821307D084C4343E318E3
:1029E0005956FFF733FE0821707D4543641961563F
:1029F000FFF72CFE70BDC046A0860100E038000045
:102A000070B504000D00006900F04BFA2900206940
:102A100000F066FB206900F031FA70BD70B504006B
:102A2000006900F083FA002827D0206900F08CFAB2
:102A300000280ED1206900F091FA002851D02069B9
:102A400000F087FA00284CD0206900F08CFA0028AA
:102A500047D1206900F036FA0321206900F03CFAE2
:102A6000304BE558002D04D0236820001B6998479F
:102A7000A8472000183000F0EBF870BD206900F086
:102A800021FA2069032100F027FA206900F06BFA8F
:102A90000028F2D082231B01E01800F0D9F80123AE
:102AA000A375214BE358002BE7D09847E5E72500B5
:102AB0001835280000F018F9002807D0206900F028
:102AC000F9F90321206900F007FAD6E7206900F040
:102AD0004FFA0100280000F0ABF8206900F0F2F98D
:102AE000EFE7206900F03AFA0028C7D1206900F02A
:102AF00026FA0028C1D0206900F035FA0028D6D087
:102B000082231B01E518280000F0C0F8FF210028EF
:102B100003D0280000F0A6F8C1B2206900F0F8F94F
:102B2000A075AAE7301000002C10000010B5024874
:102B3000FFF774FF10BDC0460823002010B5152311
:102B4000142202490248FFF71BFF10BDC0530020AA
:102B50000823002010B50248FEF784FA10BDC046D5
:102B60007843002010B50248FEF77CFA10BDC0463D
:102B70003C330020F7B501240326154F15493800D2
:102B800000F0C2F81449154800F0BEF81449154881
:102B900000F0BAF81449154800F0B6F81449154881
:102BA00000F0B2F8144D1549280000F0ADF83900D6
:102BB00000962300019400221148FEF715FA0096B2
:102BC000290001941E231F220E48FEF70DFAF7BDBF
:102BD000B453002000080042000C0042B85300200B
:102BE00000100042BC53002000140042C0530020DB
:102BF00000180042C4530020C8530020001C0042AB
:102C0000784300203C33002010B500F087FC10BD55
:102C100070B580252D012A000021040000F091FCF0
:102C20000023024A63512000A35070BD0408000035
:102C30008022120130B58458044D631C45595B0550
:102C40005B0D9D4201D00155835030BD040800004A
:102C50008022002312018350014A83507047C046EE
:102C60000408000080220849120143588258934208
:102C700006D0C25C01335B055B0D4350100070470A
:102C800001204042FBE7C046040800008023054ABB
:102C90001B01C3588058181A02D580231B01C01885
:102CA0007047C046040800008023064A1B01C35831
:102CB0008058834203DBC01A034BC0187047C01A08
:102CC0000138FBE704080000FF0700008022054BE5
:102CD0001201C3588258934201D0C05C7047012052
:102CE0004042FBE70408000080231B01C358054A4B
:102CF000013380585B055B0D181A43425841C0B23E
:102D00007047C0460408000001607047F0B505AC8C
:102D100025780468981E471EB84126689207000669
:102D200032430243072022600140AD01626829431B
:102D30000020022B00D05803114301436160F0BD15
:102D400010B5C0240368A40318681205224002438A
:102D5000C020090480020140114319605A681043E1
:102D6000586010BD0122036819680A431A601A6886
:102D7000D207FCD4DA69D207F9D47047022203687B
:102D800019680A431A60DA699207FCD4704703682D
:102D90001A7ED20702D41A7E9207FCD57047002211
:102DA00003685A8370470368187E4007C00F704756
:102DB0000368187EC0097047802302685B42117E59
:102DC0000B43137670470368187EC007C00F704727
:102DD0000368188DC0B2704703681A7ED207FCD50D
:102DE00089B201201985704701230268917D0B4348
:102DF00093757047012203681A75704770B50125F5
:102E000004684B082B402940206809075B070B43E7
:102E1000034323605100034800F0E6F90138C0B2D3
:102E2000207370BD006CDC020122036819680A433C
:102E30001A601A68D207FCD4DA69D207F9D470474D
:102E40000222036819680A431A60DA699207FCD4FF
:102E500070470368DA699207FCD402211A688A4332
:102E60001A6070470122036819680A431A601A68D9
:102E7000D207FCD4DA69D207F9D47047022203687A
:102E800019680A431A60DA699207FCD430215A8B18
:102E90008A43110010220A435A83DA695207FCD48C
:102EA0007047022103681A688A431A60DA69920738
:102EB000FCD4704780230268DB02116851680B4321
:102EC00053607047036803491A685A680A405A6099
:102ED0007047C046FFFFFBFF036810B51868032268
:102EE000C006400F094C052809D158681140090453
:102EF000204001435960DA695207FCD410BD58687C
:102F000011400904204001435960F7E7FFFFFCFF2F
:102F1000036800201A00283211701A7E520704D567
:102F2000588B01234007C00F58407047036818684A
:102F3000C006400F043843425841C0B2704703688E
:102F4000187E4007C00F70470368187EC007C00F87
:102F500070470368588BC006C00F70470368187E1F
:102F60008007C00F70470368588B0007C00F704779
:102F700003681A68D206520F052A02D11A7E9207F8
:102F8000FCD528331878C0B2704700000368214A86
:102F900030B5934211D0204A93422FD01F4A93421A
:102FA0002FD01F4A93422FD01E4A93422FD01E4A41
:102FB000934222D10E23192201E009231422012178
:102FC000032599401948C024016099082B40AB4063
:102FD000FC359D4089000918A4000859A843C02564
:102FE0009D402B0003430B518023DB011A43104B00
:102FF0005A805A7852B2002AFBDB30BD0A231522D0
:10300000DDE70B231622DAE70C231722D7E70D237F
:103010001822D4E700080042000C004200100042D1
:103020000014004200180042001C004200E100E0D1
:10303000000C0040F8B5040016000F001D00FFF75B
:10304000A5FF2000FFF78EFE1C22BB001340720775
:103050002468120C134323608423A375012F18D115
:103060001021012E00D008390A4B69431868C000AE
:1030700000F0BAF80722A3890240DB045203DB0CFC
:103080001343A3810304A089DB0C400B40031843C6
:10309000A081F8BD90000020F7B50700019308ABB0
:1030A0001E780D001400FFF7BFFE3800FFF76EFF1B
:1030B000C022240592031440B2070C2607211643B0
:1030C000019A34430A40C02611008022B6022D0422
:1030D0003B683540920225430A431D605A60F7BDA4
:1030E00070B504000D00FFF751FF2000FFF7BAFE96
:1030F0001423246869002360054B186800F074F8F5
:10310000FF22431EE068134090431843E06070BD07
:103110009000002070B50E0000254468002C0BD0F4
:10312000236831005B6820009847002802DB2D18D7
:10313000E468F3E701256D42280070BD70B50D000D
:103140004468002C08D0236829009B682000984719
:10315000002802D1E468F4E7200070BD70B50D00CE
:103160004468002C07D0236829002000DB689847BA
:10317000E4682D18F5E72C7070BD70B50D0044683B
:10318000002C08D0236829001B68200098470028DD
:1031900002D1E468F4E7200070BD00000121064A76
:1031A00010B5136805480B4005D10224047024199A
:1031B00044704360116010BDCC530020D0530020F8
:1031C00002B4714649084900095C49008E4402BCBA
:1031D0007047C04603B47146490840004900095A87
:1031E00049008E4403BC7047002243088B4274D3CD
:1031F00003098B425FD3030A8B4244D3030B8B42F8
:1032000028D3030C8B420DD3FF22090212BA030C00
:103210008B4202D31212090265D0030B8B4219D3E1
:1032200000E0090AC30B8B4201D3CB03C01A524101
:10323000830B8B4201D38B03C01A5241430B8B4249
:1032400001D34B03C01A5241030B8B4201D30B0332
:10325000C01A5241C30A8B4201D3CB02C01A524159
:10326000830A8B4201D38B02C01A5241430A8B421C
:1032700001D34B02C01A5241030A8B4201D30B0205
:10328000C01A5241CDD2C3098B4201D3CB01C01A1F
:10329000524183098B4201D38B01C01A5241430929
:1032A0008B4201D34B01C01A524103098B4201D317
:1032B0000B01C01A5241C3088B4201D3CB00C01A84
:1032C000524183088B4201D38B00C01A52414308FC
:1032D0008B4201D34B00C01A5241411A00D2014621
:1032E000524110467047FFE701B5002000F0F0F8AA
:1032F00002BDC0460029F7D076E7704703460B436E
:103300007FD4002243088B4274D303098B425FD3DE
:10331000030A8B4244D3030B8B4228D3030C8B420A
:103320000DD3FF22090212BA030C8B4202D31212F0
:10333000090265D0030B8B4219D300E0090AC30BC5
:103340008B4201D3CB03C01A5241830B8B4201D372
:103350008B03C01A5241430B8B4201D34B03C01A5B
:103360005241030B8B4201D30B03C01A5241C30AD3
:103370008B4201D3CB02C01A5241830A8B4201D344
:103380008B02C01A5241430A8B4201D34B02C01A2E
:103390005241030A8B4201D30B02C01A5241CDD2D3
:1033A000C3098B4201D3CB01C01A524183098B421E
:1033B00001D38B01C01A524143098B4201D34B0107
:1033C000C01A524103098B4201D30B01C01A52416A
:1033D000C3088B4201D3CB00C01A524183088B42F1
:1033E00001D38B00C01A524143088B4201D34B00DA
:1033F000C01A5241411A00D201465241104670474C
:103400005DE0CA0F00D04942031000D34042534050
:1034100000229C4603098B422DD3030A8B4212D310
:10342000FC22890112BA030A8B420CD38901921142
:103430008B4208D3890192118B4204D389013AD07F
:10344000921100E08909C3098B4201D3CB01C01A54
:10345000524183098B4201D38B01C01A5241430967
:103460008B4201D34B01C01A524103098B4201D355
:103470000B01C01A5241C3088B4201D3CB00C01AC2
:10348000524183088B4201D38B00C01A5241D9D2DA
:1034900043088B4201D34B00C01A5241411A00D25B
:1034A0000146634652415B10104601D34042002B57
:1034B00000D54942704763465B1000D3404201B5D6
:1034C000002000F005F802BD0029F8D016E770478B
:1034D0007047C04670B500260C4D0D4C641BA410FF
:1034E000A64209D1002600F0DFF80A4D0A4C641B01
:1034F000A410A64205D170BDB300EB589847013621
:10350000EEE7B300EB5898470136F2E700010020E0
:1035100000010020000100201C01002010B5034B19
:103520000100186800F016F810BDC0469C0000208D
:10353000002310B59A4200D110BDCC5CC4540133B5
:10354000F8E703008218934200D1704719700133E5
:10355000F9E70000032370B5CD1C9D430835060034
:103560000C2D1ED20C25A9421DD8300000F08BF87E
:10357000254A14682100002919D1244C2368002B06
:1035800003D1300000F044F820602900300000F042
:103590003FF8431C2CD10C233000336000F074F84A
:1035A00003E0002DDFDA0C233360002070BD0B68D0
:1035B0005B1B1AD40B2B03D90B60CC18256003E0DE
:1035C0008C420ED163681360300000F05DF820007B
:1035D00007220B30231D9043C31AE7D05A42E25012
:1035E000E4E74B6863600C00EEE70C004968C2E753
:1035F0000323C41C9C43A042E0D0211A300000F0F9
:1036000007F8431CDAD1C6E7D8530020DC5300206A
:10361000002370B5064C05000800236000F036F862
:10362000431C03D12368002B00D02B6070BDC04623
:10363000E453002002780B78002A03D001300131D6
:103640009A42F7D0D01A70470023C25C0133002A97
:10365000FBD1581E704710B502000078002804D135
:10366000097800290DD010BD013210780028FAD059
:103670000023C85C002804D0D45C8442F4D1013318
:10368000F7E71000EFE7704770470000044A13683F
:10369000002B03D01818106018007047014BF9E791
:1036A000E0530020E8530020F8B5C046F8BC08BC41
:1036B0009E467047F8B5C046F8BC08BC9E467047A9
:1036C0004172742D4E657400757064617465007983
:1036D0006573006F6B00646F6E6500657272000049
:1036E00000000000000000000000000000000000DA
:1036F00000000000000000000000000000000000CA
:1037000000000000000000000000000000000000B9
:1037100000000000000000000000000000000000A9
:103720000000000000000000000000000000000099
:103730000000000000000000000000000000000089
:103740000000000000000000000000000000000079
:103750000000000000000000000000000000000069
:103760000000000000000000000000000000000059
:103770000000000000000000000000000000000049
:103780000000000000000000000000000000000039
:103790000000000000000000000000000000000029
:1037A0000000000000000000000000000000000019
:1037B0000000000000000000000000000000000009
:1037C00000000000000000000000000000000000F9
:1037D00000000000000000000000000000000000E9
:1037E00000000000000000000000000000000000D9
:1037F00000000000000000000000000000000000C9
:103800000D0A00000000000000000000A10F0000F1
:10381000410C0000490F00002D0F0000210F000097
:10382000590F0000950F0000F10E0000411100003B
:10383000010F00000000000000000000491200001D
:103840007512000045120000691200005D120000B0
:10385000AD12000091120000000000000000000006
:10386000A316000085150000E11400004172647584
:10387000696E6F205A65726F00000403090441727B
:103880006475696E6F204C4C430012010002EF0218
:10389000014041234D8000010102030108000000A6
:1038A0001000000020000000400000008000000028
:1038B0000001000000020000000400000000000001
:1038C000000000004B290000112900003D0C000001
:1038D0003529000037290000412900007529000022
:1038E000000000000B0000000200000004000000C7
:1038F000FF00FFFFFFFF0B00000000000A000000B8
:103900000200000004000000FF00FFFFFFFF0A00AC
:10391000000000000E00000008000000040000008D
:10392000FF00FFFFFFFF0E00000000000900000085
:10393000040000001C000000FF000100010009005D
:103940000000000008000000040000001C0000004F
:10395000FF00000000001000000000000F00000049
:10396000040000001C000000FF00010301030F0021
:103970000000000014000000050000002C00000002
:10398000FF0002000200040000000000150000001B
:10399000050000002C000000FF00030003000500EC
:1039A0000000000006000000040000001C000000F1
:1039B000FF000001000106000000000007000000F9
:1039C000040000001C000000FF00010101010700CD
:1039D0000000000012000000040000001C000000B5
:1039E000FF000003000302000000000010000000C0
:1039F000040000001C000000FF00000200020000A4
:103A00000000000013000000050000002C00000072
:103A1000FF0003000300030000000000110000008D
:103A2000040000001C000000FF0001020102010070
:103A30000000000002000000010000000200000081
:103A40000000FFFFFFFF020001000000080000006F
:103A5000010000001800000002000004000408003B
:103A60000100000009000000010000001800000033
:103A7000030001040104090000000000040000002C
:103A800001000000000000000400FFFFFFFF040031
:103A90000000000005000000010000000000000020
:103AA0000500FFFFFFFF050001000000020000000D
:103AB00001000000000000000A00FFFFFFFF0200FD
:103AC00000000000160000000200000004000000DA
:103AD000FF00FFFFFFFF06000000000017000000CE
:103AE0000200000004000000FF00FFFFFFFF0700CE
:103AF000000000000C0000000300000004000000B3
:103B0000FF00FFFFFFFF0C00010000000A000000A3
:103B10000300000004000000FF00FFFFFFFF0A0099
:103B2000010000000B000000030000000400000082
:103B3000FF00FFFFFFFF0B0001000000030000007B
:103B40000B00000004000000FF00FFFFFFFFFF006C
:103B5000000000001B0000000B000000040000003B
:103B6000FF00FFFFFFFFFF00000000001C0000003F
:103B70000600000000000000FF00FFFFFFFFFF0045
:103B80000000000018000000060000000000000017
:103B9000FF00FFFFFFFFFF00000000001900000012
:103BA0000600000000000000FF00FFFFFFFFFF0015
:103BB00001000000160000000300000000000000EB
:103BC000FF00FFFFFFFFFF000100000017000000E3
:103BD0000300000000000000FF00FFFFFFFFFF00E8
:103BE00000000000160000000200000000000000BD
:103BF000FF00FFFFFFFFFF000000000017000000B4
:103C00000200000000000000FF00FFFFFFFFFF00B8
:103C1000000000001300000002000000000000008F
:103C2000FF00FFFFFFFFFF0000000000100000008A
:103C30000200000000000000FF00FFFFFFFFFF0088
:103C40000000000012000000020000000000000060
:103C5000FF00FFFFFFFFFF00000000001100000059
:103C60000200000000000000FF00FFFFFFFFFF0058
:103C7000000000000D000000040000000C00000027
:103C8000FF000100FFFF0D00000000001500000014
:103C9000050000000C000000FF000300FFFFFF0014
:103CA0000000000006000000040000000C000000FE
:103CB000FF000001FFFFFF00000000000700000000
:103CC000040000000C000000FF000101FFFFFF00E6
:103CD00000000000030000000100000002000000DE
:103CE000FF00FFFFFFFFFF000000000002000000D8
:103CF00001000000020000001400FFFFFFFF0200AF
:103D000000000000000000000000000000000000B3
:103D100000000000000000000000000000000000A3
:103D20000000000000000000000000000000000093
:103D30000000000000000000000000000000000083
:103D40000000000000000000000000000000000073
:103D50000000000000000000000000000000000063
:043D6000000000005F
:103D6400120809001300000001002C0111002C01AD
:103D7400FFFFFFFFFFFFFFFF00C20100000008007C
:103D8400080B000202020000090400000102020004
:103D94000005240010010424020605240600010580
:103DA4002401010107058103100010090401000228
:103DB4000A000000070502024000000705830240D4
:103DC40000000000FFFFFFFF000000008300000070
:103DD400020000008200000000000000000000005B
:103DE40000000000000000000000000000000000CF
:103DF40040420F000A0000000A000000A00000205A
:103E040000000000203D0000403D0000003D000097
:103E1400000000000000000000000000000000009E
:103E2400000000000000000000000000000000008E
:103E3400000000000000000000000000000000007E
:103E4400000000000000000000000000000000006E
:103E5400000000000000000000000000000000005E
:103E6400DD000000B90500006D130000D122000040
:103E7400D92800003D2B0000752B0000B500000080
:103E8400000000000000000000000000000000002E
:0400000300000B49A5
:00000001FF
